{
  "contractName": "AssetOwnership",
  "abi": [
    {
      "inputs": [],
      "stateMutability": "nonpayable",
      "type": "constructor"
    },
    {
      "anonymous": false,
      "inputs": [
        {
          "indexed": true,
          "internalType": "address",
          "name": "owner",
          "type": "address"
        },
        {
          "indexed": true,
          "internalType": "address",
          "name": "approved",
          "type": "address"
        },
        {
          "indexed": true,
          "internalType": "uint256",
          "name": "tokenId",
          "type": "uint256"
        }
      ],
      "name": "Approval",
      "type": "event"
    },
    {
      "anonymous": false,
      "inputs": [
        {
          "indexed": true,
          "internalType": "address",
          "name": "owner",
          "type": "address"
        },
        {
          "indexed": true,
          "internalType": "address",
          "name": "operator",
          "type": "address"
        },
        {
          "indexed": false,
          "internalType": "bool",
          "name": "approved",
          "type": "bool"
        }
      ],
      "name": "ApprovalForAll",
      "type": "event"
    },
    {
      "anonymous": false,
      "inputs": [
        {
          "indexed": false,
          "internalType": "uint256",
          "name": "tokenId",
          "type": "uint256"
        },
        {
          "indexed": false,
          "internalType": "uint256",
          "name": "value",
          "type": "uint256"
        }
      ],
      "name": "LogChangedValue",
      "type": "event"
    },
    {
      "anonymous": false,
      "inputs": [
        {
          "indexed": false,
          "internalType": "uint256",
          "name": "tokenId",
          "type": "uint256"
        }
      ],
      "name": "LogDestroyed",
      "type": "event"
    },
    {
      "anonymous": false,
      "inputs": [
        {
          "indexed": false,
          "internalType": "uint256",
          "name": "tokenId",
          "type": "uint256"
        }
      ],
      "name": "LogInPossession",
      "type": "event"
    },
    {
      "anonymous": false,
      "inputs": [
        {
          "indexed": false,
          "internalType": "uint256",
          "name": "tokenId",
          "type": "uint256"
        }
      ],
      "name": "LogLostOrStolen",
      "type": "event"
    },
    {
      "anonymous": false,
      "inputs": [
        {
          "indexed": false,
          "internalType": "uint256",
          "name": "tokenId",
          "type": "uint256"
        }
      ],
      "name": "LogSold",
      "type": "event"
    },
    {
      "anonymous": false,
      "inputs": [
        {
          "indexed": false,
          "internalType": "uint256",
          "name": "tokenId",
          "type": "uint256"
        }
      ],
      "name": "LogTransferringOwnership",
      "type": "event"
    },
    {
      "anonymous": false,
      "inputs": [
        {
          "indexed": true,
          "internalType": "address",
          "name": "previousOwner",
          "type": "address"
        },
        {
          "indexed": true,
          "internalType": "address",
          "name": "newOwner",
          "type": "address"
        }
      ],
      "name": "OwnershipTransferred",
      "type": "event"
    },
    {
      "anonymous": false,
      "inputs": [
        {
          "indexed": true,
          "internalType": "address",
          "name": "from",
          "type": "address"
        },
        {
          "indexed": true,
          "internalType": "address",
          "name": "to",
          "type": "address"
        },
        {
          "indexed": true,
          "internalType": "uint256",
          "name": "tokenId",
          "type": "uint256"
        }
      ],
      "name": "Transfer",
      "type": "event"
    },
    {
      "stateMutability": "payable",
      "type": "fallback",
      "payable": true
    },
    {
      "inputs": [
        {
          "internalType": "address",
          "name": "to",
          "type": "address"
        },
        {
          "internalType": "uint256",
          "name": "tokenId",
          "type": "uint256"
        }
      ],
      "name": "approve",
      "outputs": [],
      "stateMutability": "nonpayable",
      "type": "function"
    },
    {
      "inputs": [
        {
          "internalType": "address",
          "name": "owner",
          "type": "address"
        }
      ],
      "name": "balanceOf",
      "outputs": [
        {
          "internalType": "uint256",
          "name": "",
          "type": "uint256"
        }
      ],
      "stateMutability": "view",
      "type": "function",
      "constant": true
    },
    {
      "inputs": [
        {
          "internalType": "uint256",
          "name": "tokenId",
          "type": "uint256"
        }
      ],
      "name": "getApproved",
      "outputs": [
        {
          "internalType": "address",
          "name": "",
          "type": "address"
        }
      ],
      "stateMutability": "view",
      "type": "function",
      "constant": true
    },
    {
      "inputs": [
        {
          "internalType": "address",
          "name": "owner",
          "type": "address"
        },
        {
          "internalType": "address",
          "name": "operator",
          "type": "address"
        }
      ],
      "name": "isApprovedForAll",
      "outputs": [
        {
          "internalType": "bool",
          "name": "",
          "type": "bool"
        }
      ],
      "stateMutability": "view",
      "type": "function",
      "constant": true
    },
    {
      "inputs": [],
      "name": "name",
      "outputs": [
        {
          "internalType": "string",
          "name": "",
          "type": "string"
        }
      ],
      "stateMutability": "view",
      "type": "function",
      "constant": true
    },
    {
      "inputs": [],
      "name": "owner",
      "outputs": [
        {
          "internalType": "address",
          "name": "",
          "type": "address"
        }
      ],
      "stateMutability": "view",
      "type": "function",
      "constant": true
    },
    {
      "inputs": [
        {
          "internalType": "uint256",
          "name": "tokenId",
          "type": "uint256"
        }
      ],
      "name": "ownerOf",
      "outputs": [
        {
          "internalType": "address",
          "name": "",
          "type": "address"
        }
      ],
      "stateMutability": "view",
      "type": "function",
      "constant": true
    },
    {
      "inputs": [],
      "name": "renounceOwnership",
      "outputs": [],
      "stateMutability": "nonpayable",
      "type": "function"
    },
    {
      "inputs": [
        {
          "internalType": "address",
          "name": "from",
          "type": "address"
        },
        {
          "internalType": "address",
          "name": "to",
          "type": "address"
        },
        {
          "internalType": "uint256",
          "name": "tokenId",
          "type": "uint256"
        }
      ],
      "name": "safeTransferFrom",
      "outputs": [],
      "stateMutability": "nonpayable",
      "type": "function"
    },
    {
      "inputs": [
        {
          "internalType": "address",
          "name": "from",
          "type": "address"
        },
        {
          "internalType": "address",
          "name": "to",
          "type": "address"
        },
        {
          "internalType": "uint256",
          "name": "tokenId",
          "type": "uint256"
        },
        {
          "internalType": "bytes",
          "name": "_data",
          "type": "bytes"
        }
      ],
      "name": "safeTransferFrom",
      "outputs": [],
      "stateMutability": "nonpayable",
      "type": "function"
    },
    {
      "inputs": [
        {
          "internalType": "address",
          "name": "operator",
          "type": "address"
        },
        {
          "internalType": "bool",
          "name": "approved",
          "type": "bool"
        }
      ],
      "name": "setApprovalForAll",
      "outputs": [],
      "stateMutability": "nonpayable",
      "type": "function"
    },
    {
      "inputs": [],
      "name": "symbol",
      "outputs": [
        {
          "internalType": "string",
          "name": "",
          "type": "string"
        }
      ],
      "stateMutability": "view",
      "type": "function",
      "constant": true
    },
    {
      "inputs": [
        {
          "internalType": "uint256",
          "name": "index",
          "type": "uint256"
        }
      ],
      "name": "tokenByIndex",
      "outputs": [
        {
          "internalType": "uint256",
          "name": "",
          "type": "uint256"
        }
      ],
      "stateMutability": "view",
      "type": "function",
      "constant": true
    },
    {
      "inputs": [
        {
          "internalType": "address",
          "name": "owner",
          "type": "address"
        },
        {
          "internalType": "uint256",
          "name": "index",
          "type": "uint256"
        }
      ],
      "name": "tokenOfOwnerByIndex",
      "outputs": [
        {
          "internalType": "uint256",
          "name": "",
          "type": "uint256"
        }
      ],
      "stateMutability": "view",
      "type": "function",
      "constant": true
    },
    {
      "inputs": [],
      "name": "totalSupply",
      "outputs": [
        {
          "internalType": "uint256",
          "name": "",
          "type": "uint256"
        }
      ],
      "stateMutability": "view",
      "type": "function",
      "constant": true
    },
    {
      "inputs": [
        {
          "internalType": "address",
          "name": "from",
          "type": "address"
        },
        {
          "internalType": "address",
          "name": "to",
          "type": "address"
        },
        {
          "internalType": "uint256",
          "name": "tokenId",
          "type": "uint256"
        }
      ],
      "name": "transferFrom",
      "outputs": [],
      "stateMutability": "nonpayable",
      "type": "function"
    },
    {
      "inputs": [
        {
          "internalType": "address",
          "name": "newOwner",
          "type": "address"
        }
      ],
      "name": "transferOwnership",
      "outputs": [],
      "stateMutability": "nonpayable",
      "type": "function"
    },
    {
      "stateMutability": "payable",
      "type": "receive",
      "payable": true
    },
    {
      "inputs": [
        {
          "internalType": "address",
          "name": "to",
          "type": "address"
        },
        {
          "internalType": "string",
          "name": "uri",
          "type": "string"
        }
      ],
      "name": "safeMint",
      "outputs": [],
      "stateMutability": "nonpayable",
      "type": "function"
    },
    {
      "inputs": [
        {
          "internalType": "uint256",
          "name": "tokenId",
          "type": "uint256"
        }
      ],
      "name": "tokenURI",
      "outputs": [
        {
          "internalType": "string",
          "name": "",
          "type": "string"
        }
      ],
      "stateMutability": "view",
      "type": "function",
      "constant": true
    },
    {
      "inputs": [
        {
          "internalType": "bytes4",
          "name": "interfaceId",
          "type": "bytes4"
        }
      ],
      "name": "supportsInterface",
      "outputs": [
        {
          "internalType": "bool",
          "name": "",
          "type": "bool"
        }
      ],
      "stateMutability": "view",
      "type": "function",
      "constant": true
    },
    {
      "inputs": [
        {
          "internalType": "string",
          "name": "_name",
          "type": "string"
        },
        {
          "internalType": "uint256",
          "name": "_serial",
          "type": "uint256"
        },
        {
          "internalType": "uint256",
          "name": "_value",
          "type": "uint256"
        },
        {
          "internalType": "string",
          "name": "_uri",
          "type": "string"
        }
      ],
      "name": "addAsset",
      "outputs": [
        {
          "internalType": "bool",
          "name": "",
          "type": "bool"
        }
      ],
      "stateMutability": "nonpayable",
      "type": "function"
    },
    {
      "inputs": [
        {
          "internalType": "uint256",
          "name": "_tokenId",
          "type": "uint256"
        }
      ],
      "name": "buyAsset",
      "outputs": [],
      "stateMutability": "payable",
      "type": "function",
      "payable": true
    },
    {
      "inputs": [
        {
          "internalType": "uint256",
          "name": "_tokenId",
          "type": "uint256"
        }
      ],
      "name": "shipAssetAndApproveOwnershipTransfer",
      "outputs": [],
      "stateMutability": "nonpayable",
      "type": "function"
    },
    {
      "inputs": [
        {
          "internalType": "uint256",
          "name": "_tokenId",
          "type": "uint256"
        }
      ],
      "name": "receiveAsset",
      "outputs": [],
      "stateMutability": "payable",
      "type": "function",
      "payable": true
    },
    {
      "inputs": [
        {
          "internalType": "uint256",
          "name": "_tokenId",
          "type": "uint256"
        },
        {
          "internalType": "uint256",
          "name": "_value",
          "type": "uint256"
        }
      ],
      "name": "changeValueOfAsset",
      "outputs": [],
      "stateMutability": "nonpayable",
      "type": "function"
    },
    {
      "inputs": [
        {
          "internalType": "uint256",
          "name": "_tokenId",
          "type": "uint256"
        }
      ],
      "name": "reportLostOrStolen",
      "outputs": [],
      "stateMutability": "nonpayable",
      "type": "function"
    },
    {
      "inputs": [
        {
          "internalType": "uint256",
          "name": "_tokenId",
          "type": "uint256"
        }
      ],
      "name": "reportFoundAndInPossession",
      "outputs": [],
      "stateMutability": "nonpayable",
      "type": "function"
    },
    {
      "inputs": [
        {
          "internalType": "uint256",
          "name": "_tokenId",
          "type": "uint256"
        }
      ],
      "name": "destroyAsset",
      "outputs": [],
      "stateMutability": "nonpayable",
      "type": "function"
    },
    {
      "inputs": [
        {
          "internalType": "uint256",
          "name": "_tokenId",
          "type": "uint256"
        }
      ],
      "name": "fetchAsset",
      "outputs": [
        {
          "internalType": "uint256",
          "name": "tokenId",
          "type": "uint256"
        },
        {
          "internalType": "string",
          "name": "name",
          "type": "string"
        },
        {
          "internalType": "uint256",
          "name": "serial",
          "type": "uint256"
        },
        {
          "internalType": "uint256",
          "name": "value",
          "type": "uint256"
        },
        {
          "internalType": "address",
          "name": "buyer",
          "type": "address"
        },
        {
          "internalType": "address",
          "name": "_owner",
          "type": "address"
        },
        {
          "internalType": "enum AssetOwnership.State",
          "name": "state",
          "type": "uint8"
        },
        {
          "internalType": "string",
          "name": "uri",
          "type": "string"
        }
      ],
      "stateMutability": "view",
      "type": "function",
      "constant": true
    }
  ],
  "bytecode": "0x60806040523480156200001157600080fd5b506040518060400160405280600f81526020017f4173736574204f776e65727368697000000000000000000000000000000000008152506040518060400160405280600581526020017f4153534554000000000000000000000000000000000000000000000000000000815250816000908051906020019062000096929190620001b8565b508060019080519060200190620000af929190620001b8565b505050620000e4620000cf620000ea640100000000026401000000009004565b620000f2640100000000026401000000009004565b620002cd565b600033905090565b6000600b60009054906101000a900473ffffffffffffffffffffffffffffffffffffffff16905081600b60006101000a81548173ffffffffffffffffffffffffffffffffffffffff021916908373ffffffffffffffffffffffffffffffffffffffff1602179055508173ffffffffffffffffffffffffffffffffffffffff168173ffffffffffffffffffffffffffffffffffffffff167f8be0079c531659141344cd1fd0a4f28419497f9722a3daafe3b4186f6b6457e060405160405180910390a35050565b828054620001c69062000297565b90600052602060002090601f016020900481019282620001ea576000855562000236565b82601f106200020557805160ff191683800117855562000236565b8280016001018555821562000236579182015b828111156200023557825182559160200191906001019062000218565b5b50905062000245919062000249565b5090565b5b80821115620002645760008160009055506001016200024a565b5090565b7f4e487b7100000000000000000000000000000000000000000000000000000000600052602260045260246000fd5b60006002820490506001821680620002b057607f821691505b60208210811415620002c757620002c662000268565b5b50919050565b6158b980620002dd6000396000f3fe6080604052600436106101e3576000357c0100000000000000000000000000000000000000000000000000000000900480636352211e11610114578063999d0698116100b2578063ccc8ad1211610081578063ccc8ad1214610691578063d204c45e146106ad578063e985e9c5146106d6578063f2fde38b14610713576101ea565b8063999d0698146105d9578063a22cb46514610602578063b88d4fde1461062b578063c87b56dd14610654576101ea565b80637956073b116100ee5780637956073b146105165780638da5cb5b1461055a5780638da6074a1461058557806395d89b41146105ae576101ea565b80636352211e1461048557806370a08231146104c2578063715018a6146104ff576101ea565b806323b872dd1161018157806342842e0e1161015b57806342842e0e146103cd578063474c1520146103f65780634f6ccce71461041f578063624fb4c91461045c576101ea565b806323b872dd1461032a5780632f745c591461035357806337f8c17914610390576101ea565b8063095ea7b3116101bd578063095ea7b314610291578063110d35b8146102ba57806318160ddd146102d65780632021158714610301576101ea565b806301ffc9a7146101ec57806306fdde0314610229578063081812fc14610254576101ea565b366101ea57005b005b3480156101f857600080fd5b50610213600480360381019061020e9190613c69565b61073c565b6040516102209190613cb1565b60405180910390f35b34801561023557600080fd5b5061023e61074e565b60405161024b9190613d65565b60405180910390f35b34801561026057600080fd5b5061027b60048036038101906102769190613dbd565b6107e0565b6040516102889190613e2b565b60405180910390f35b34801561029d57600080fd5b506102b860048036038101906102b39190613e72565b610865565b005b6102d460048036038101906102cf9190613dbd565b61097d565b005b3480156102e257600080fd5b506102eb610c23565b6040516102f89190613ec1565b60405180910390f35b34801561030d57600080fd5b5061032860048036038101906103239190613dbd565b610c30565b005b34801561033657600080fd5b50610351600480360381019061034c9190613edc565b610e24565b005b34801561035f57600080fd5b5061037a60048036038101906103759190613e72565b610e84565b6040516103879190613ec1565b60405180910390f35b34801561039c57600080fd5b506103b760048036038101906103b29190614064565b610f29565b6040516103c49190613cb1565b60405180910390f35b3480156103d957600080fd5b506103f460048036038101906103ef9190613edc565b61112c565b005b34801561040257600080fd5b5061041d60048036038101906104189190613dbd565b61114c565b005b34801561042b57600080fd5b5061044660048036038101906104419190613dbd565b61130b565b6040516104539190613ec1565b60405180910390f35b34801561046857600080fd5b50610483600480360381019061047e9190613dbd565b61137c565b005b34801561049157600080fd5b506104ac60048036038101906104a79190613dbd565b61157a565b6040516104b99190613e2b565b60405180910390f35b3480156104ce57600080fd5b506104e960048036038101906104e49190614103565b61162c565b6040516104f69190613ec1565b60405180910390f35b34801561050b57600080fd5b506105146116e4565b005b34801561052257600080fd5b5061053d60048036038101906105389190613dbd565b61176c565b6040516105519897969594939291906141a7565b60405180910390f35b34801561056657600080fd5b5061056f6119f4565b60405161057c9190613e2b565b60405180910390f35b34801561059157600080fd5b506105ac60048036038101906105a79190614233565b611a1e565b005b3480156105ba57600080fd5b506105c3611bf2565b6040516105d09190613d65565b60405180910390f35b3480156105e557600080fd5b5061060060048036038101906105fb9190613dbd565b611c84565b005b34801561060e57600080fd5b506106296004803603810190610624919061429f565b611e79565b005b34801561063757600080fd5b50610652600480360381019061064d9190614380565b611e8f565b005b34801561066057600080fd5b5061067b60048036038101906106769190613dbd565b611ef1565b6040516106889190613d65565b60405180910390f35b6106ab60048036038101906106a69190613dbd565b611f03565b005b3480156106b957600080fd5b506106d460048036038101906106cf9190614403565b6122c0565b005b3480156106e257600080fd5b506106fd60048036038101906106f8919061445f565b6122f1565b60405161070a9190613cb1565b60405180910390f35b34801561071f57600080fd5b5061073a60048036038101906107359190614103565b612385565b005b60006107478261247d565b9050919050565b60606000805461075d906144ce565b80601f0160208091040260200160405190810160405280929190818152602001828054610789906144ce565b80156107d65780601f106107ab576101008083540402835291602001916107d6565b820191906000526020600020905b8154815290600101906020018083116107b957829003601f168201915b5050505050905090565b60006107eb826124f7565b61082a576040517f08c379a000000000000000000000000000000000000000000000000000000000815260040161082190614572565b60405180910390fd5b6004600083815260200190815260200160002060009054906101000a900473ffffffffffffffffffffffffffffffffffffffff169050919050565b60006108708261157a565b90508073ffffffffffffffffffffffffffffffffffffffff168373ffffffffffffffffffffffffffffffffffffffff1614156108e1576040517f08c379a00000000000000000000000000000000000000000000000000000000081526004016108d890614604565b60405180910390fd5b8073ffffffffffffffffffffffffffffffffffffffff16610900612563565b73ffffffffffffffffffffffffffffffffffffffff16148061092f575061092e81610929612563565b6122f1565b5b61096e576040517f08c379a000000000000000000000000000000000000000000000000000000000815260040161096590614696565b60405180910390fd5b610978838361256b565b505050565b806000600381111561099257610991614130565b5b600d600083815260200190815260200160002060050160149054906101000a900460ff1660038111156109c8576109c7614130565b5b14610a08576040517f08c379a00000000000000000000000000000000000000000000000000000000081526004016109ff90614728565b60405180910390fd5b600d600083815260200190815260200160002060050160009054906101000a900473ffffffffffffffffffffffffffffffffffffffff168073ffffffffffffffffffffffffffffffffffffffff163373ffffffffffffffffffffffffffffffffffffffff161415610aae576040517f08c379a0000000000000000000000000000000000000000000000000000000008152600401610aa5906147ba565b60405180910390fd5b82610ab8816124f7565b610af7576040517f08c379a0000000000000000000000000000000000000000000000000000000008152600401610aee90614826565b60405180910390fd5b600d60008581526020019081526020016000206003015480341015610b51576040517f08c379a0000000000000000000000000000000000000000000000000000000008152600401610b4890614892565b60405180910390fd5b33600d600087815260200190815260200160002060040160006101000a81548173ffffffffffffffffffffffffffffffffffffffff021916908373ffffffffffffffffffffffffffffffffffffffff1602179055506001600d600087815260200190815260200160002060050160146101000a81548160ff02191690836003811115610be057610bdf614130565b5b02179055507fe64ca8c671e48636f85f3008c1dd538e36bfa74fb6f2790b56b72fcc33b879ef85604051610c149190613ec1565b60405180910390a15050505050565b6000600880549050905090565b600d600082815260200190815260200160002060050160009054906101000a900473ffffffffffffffffffffffffffffffffffffffff168073ffffffffffffffffffffffffffffffffffffffff163373ffffffffffffffffffffffffffffffffffffffff1614610cd5576040517f08c379a0000000000000000000000000000000000000000000000000000000008152600401610ccc90614924565b60405180910390fd5b81600380811115610ce957610ce8614130565b5b600d600083815260200190815260200160002060050160149054906101000a900460ff166003811115610d1f57610d1e614130565b5b14610d5f576040517f08c379a0000000000000000000000000000000000000000000000000000000008152600401610d56906149b6565b60405180910390fd5b82610d69816124f7565b610da8576040517f08c379a0000000000000000000000000000000000000000000000000000000008152600401610d9f90614826565b60405180910390fd5b6000600d600086815260200190815260200160002060050160146101000a81548160ff02191690836003811115610de257610de1614130565b5b02179055507f093aa5641a6cd9311446f9c310c8be7ddd06c576fdbe8ec65122183c61d2582684604051610e169190613ec1565b60405180910390a150505050565b610e35610e2f612563565b82612624565b610e74576040517f08c379a0000000000000000000000000000000000000000000000000000000008152600401610e6b90614a48565b60405180910390fd5b610e7f838383612702565b505050565b6000610e8f8361162c565b8210610ed0576040517f08c379a0000000000000000000000000000000000000000000000000000000008152600401610ec790614ada565b60405180910390fd5b600660008473ffffffffffffffffffffffffffffffffffffffff1673ffffffffffffffffffffffffffffffffffffffff168152602001908152602001600020600083815260200190815260200160002054905092915050565b600080610f36600c61295e565b9050604051806101000160405280828152602001878152602001868152602001858152602001600073ffffffffffffffffffffffffffffffffffffffff1681526020013373ffffffffffffffffffffffffffffffffffffffff16815260200160006003811115610fa957610fa8614130565b5b815260200184815250600d6000838152602001908152602001600020600082015181600001556020820151816001019080519060200190610feb929190613b1a565b50604082015181600201556060820151816003015560808201518160040160006101000a81548173ffffffffffffffffffffffffffffffffffffffff021916908373ffffffffffffffffffffffffffffffffffffffff16021790555060a08201518160050160006101000a81548173ffffffffffffffffffffffffffffffffffffffff021916908373ffffffffffffffffffffffffffffffffffffffff16021790555060c08201518160050160146101000a81548160ff021916908360038111156110b9576110b8614130565b5b021790555060e08201518160060190805190602001906110da929190613b1a565b509050506110e833846122c0565b7f093aa5641a6cd9311446f9c310c8be7ddd06c576fdbe8ec65122183c61d25826816040516111179190613ec1565b60405180910390a16001915050949350505050565b61114783838360405180602001604052806000815250611e8f565b505050565b600d600082815260200190815260200160002060050160009054906101000a900473ffffffffffffffffffffffffffffffffffffffff168073ffffffffffffffffffffffffffffffffffffffff163373ffffffffffffffffffffffffffffffffffffffff16146111f1576040517f08c379a00000000000000000000000000000000000000000000000000000000081526004016111e890614924565b60405180910390fd5b816000600381111561120657611205614130565b5b600d600083815260200190815260200160002060050160149054906101000a900460ff16600381111561123c5761123b614130565b5b1461127c576040517f08c379a000000000000000000000000000000000000000000000000000000000815260040161127390614728565b60405180910390fd5b82611286816124f7565b6112c5576040517f08c379a00000000000000000000000000000000000000000000000000000000081526004016112bc90614826565b60405180910390fd5b6112ce8461296c565b7f5b26169f8a09a82388a380e50ae25febdebf7a25930bed9d2d4c40997aa2bff5846040516112fd9190613ec1565b60405180910390a150505050565b6000611315610c23565b8210611356576040517f08c379a000000000000000000000000000000000000000000000000000000000815260040161134d90614b6c565b60405180910390fd5b6008828154811061136a57611369614b8c565b5b90600052602060002001549050919050565b806001600381111561139157611390614130565b5b600d600083815260200190815260200160002060050160149054906101000a900460ff1660038111156113c7576113c6614130565b5b14611407576040517f08c379a00000000000000000000000000000000000000000000000000000000081526004016113fe90614c2d565b60405180910390fd5b600d600083815260200190815260200160002060050160009054906101000a900473ffffffffffffffffffffffffffffffffffffffff168073ffffffffffffffffffffffffffffffffffffffff163373ffffffffffffffffffffffffffffffffffffffff16146114ac576040517f08c379a00000000000000000000000000000000000000000000000000000000081526004016114a390614924565b60405180910390fd5b826114b6816124f7565b6114f5576040517f08c379a00000000000000000000000000000000000000000000000000000000081526004016114ec90614826565b60405180910390fd5b611535600d600086815260200190815260200160002060040160009054906101000a900473ffffffffffffffffffffffffffffffffffffffff168561256b565b6002600d600086815260200190815260200160002060050160146101000a81548160ff0219169083600381111561156f5761156e614130565b5b021790555050505050565b6000806002600084815260200190815260200160002060009054906101000a900473ffffffffffffffffffffffffffffffffffffffff169050600073ffffffffffffffffffffffffffffffffffffffff168173ffffffffffffffffffffffffffffffffffffffff161415611623576040517f08c379a000000000000000000000000000000000000000000000000000000000815260040161161a90614cbf565b60405180910390fd5b80915050919050565b60008073ffffffffffffffffffffffffffffffffffffffff168273ffffffffffffffffffffffffffffffffffffffff16141561169d576040517f08c379a000000000000000000000000000000000000000000000000000000000815260040161169490614d51565b60405180910390fd5b600360008373ffffffffffffffffffffffffffffffffffffffff1673ffffffffffffffffffffffffffffffffffffffff168152602001908152602001600020549050919050565b6116ec612563565b73ffffffffffffffffffffffffffffffffffffffff1661170a6119f4565b73ffffffffffffffffffffffffffffffffffffffff1614611760576040517f08c379a000000000000000000000000000000000000000000000000000000000815260040161175790614dbd565b60405180910390fd5b61176a6000612978565b565b600060606000806000806000606088611784816124f7565b6117c3576040517f08c379a00000000000000000000000000000000000000000000000000000000081526004016117ba90614826565b60405180910390fd5b600d60008b8152602001908152602001600020600001549850600d60008b815260200190815260200160002060010180546117fd906144ce565b80601f0160208091040260200160405190810160405280929190818152602001828054611829906144ce565b80156118765780601f1061184b57610100808354040283529160200191611876565b820191906000526020600020905b81548152906001019060200180831161185957829003601f168201915b50505050509750600d60008b8152602001908152602001600020600201549650600d60008b8152602001908152602001600020600301549550600d60008b815260200190815260200160002060040160009054906101000a900473ffffffffffffffffffffffffffffffffffffffff169450600d60008b815260200190815260200160002060050160009054906101000a900473ffffffffffffffffffffffffffffffffffffffff169350600d60008b815260200190815260200160002060050160149054906101000a900460ff169250600d60008b81526020019081526020016000206006018054611968906144ce565b80601f0160208091040260200160405190810160405280929190818152602001828054611994906144ce565b80156119e15780601f106119b6576101008083540402835291602001916119e1565b820191906000526020600020905b8154815290600101906020018083116119c457829003601f168201915b5050505050915050919395975091939597565b6000600b60009054906101000a900473ffffffffffffffffffffffffffffffffffffffff16905090565b600d600083815260200190815260200160002060050160009054906101000a900473ffffffffffffffffffffffffffffffffffffffff168073ffffffffffffffffffffffffffffffffffffffff163373ffffffffffffffffffffffffffffffffffffffff1614611ac3576040517f08c379a0000000000000000000000000000000000000000000000000000000008152600401611aba90614924565b60405180910390fd5b8260006003811115611ad857611ad7614130565b5b600d600083815260200190815260200160002060050160149054906101000a900460ff166003811115611b0e57611b0d614130565b5b14611b4e576040517f08c379a0000000000000000000000000000000000000000000000000000000008152600401611b4590614728565b60405180910390fd5b83611b58816124f7565b611b97576040517f08c379a0000000000000000000000000000000000000000000000000000000008152600401611b8e90614826565b60405180910390fd5b83600d6000878152602001908152602001600020600301819055507f4976485b2f48f09df07ae290110ea4f5337927c6e906f45113aa7103dbb7b8168585604051611be3929190614ddd565b60405180910390a15050505050565b606060018054611c01906144ce565b80601f0160208091040260200160405190810160405280929190818152602001828054611c2d906144ce565b8015611c7a5780601f10611c4f57610100808354040283529160200191611c7a565b820191906000526020600020905b815481529060010190602001808311611c5d57829003601f168201915b5050505050905090565b600d600082815260200190815260200160002060050160009054906101000a900473ffffffffffffffffffffffffffffffffffffffff168073ffffffffffffffffffffffffffffffffffffffff163373ffffffffffffffffffffffffffffffffffffffff1614611d29576040517f08c379a0000000000000000000000000000000000000000000000000000000008152600401611d2090614924565b60405180910390fd5b8160006003811115611d3e57611d3d614130565b5b600d600083815260200190815260200160002060050160149054906101000a900460ff166003811115611d7457611d73614130565b5b14611db4576040517f08c379a0000000000000000000000000000000000000000000000000000000008152600401611dab90614728565b60405180910390fd5b82611dbe816124f7565b611dfd576040517f08c379a0000000000000000000000000000000000000000000000000000000008152600401611df490614826565b60405180910390fd5b6003600d600086815260200190815260200160002060050160146101000a81548160ff02191690836003811115611e3757611e36614130565b5b02179055507f17f25fb4ca769af8193da43a90b66526915e8d63e8ea591300c9257e3082607384604051611e6b9190613ec1565b60405180910390a150505050565b611e8b611e84612563565b8383612a3e565b5050565b611ea0611e9a612563565b83612624565b611edf576040517f08c379a0000000000000000000000000000000000000000000000000000000008152600401611ed690614a48565b60405180910390fd5b611eeb84848484612bab565b50505050565b6060611efc82612c07565b9050919050565b600d600082815260200190815260200160002060040160009054906101000a900473ffffffffffffffffffffffffffffffffffffffff168073ffffffffffffffffffffffffffffffffffffffff163373ffffffffffffffffffffffffffffffffffffffff1614611fa8576040517f08c379a0000000000000000000000000000000000000000000000000000000008152600401611f9f90614e78565b60405180910390fd5b8160026003811115611fbd57611fbc614130565b5b600d600083815260200190815260200160002060050160149054906101000a900460ff166003811115611ff357611ff2614130565b5b14612033576040517f08c379a000000000000000000000000000000000000000000000000000000000815260040161202a90614f30565b60405180910390fd5b8261203d816124f7565b61207c576040517f08c379a000000000000000000000000000000000000000000000000000000000815260040161207390614826565b60405180910390fd5b6120f3600d600086815260200190815260200160002060050160009054906101000a900473ffffffffffffffffffffffffffffffffffffffff16600d600087815260200190815260200160002060040160009054906101000a900473ffffffffffffffffffffffffffffffffffffffff168661112c565b600d600085815260200190815260200160002060050160009054906101000a900473ffffffffffffffffffffffffffffffffffffffff1673ffffffffffffffffffffffffffffffffffffffff166108fc670de0b6b3a7640000600d60008881526020019081526020016000206003015461216d9190614f7f565b9081150290604051600060405180830381858888f19350505050158015612198573d6000803e3d6000fd5b5033600d600086815260200190815260200160002060050160006101000a81548173ffffffffffffffffffffffffffffffffffffffff021916908373ffffffffffffffffffffffffffffffffffffffff1602179055506000600d600086815260200190815260200160002060040160006101000a81548173ffffffffffffffffffffffffffffffffffffffff021916908373ffffffffffffffffffffffffffffffffffffffff1602179055506000600d600086815260200190815260200160002060050160146101000a81548160ff0219169083600381111561227e5761227d614130565b5b02179055507f093aa5641a6cd9311446f9c310c8be7ddd06c576fdbe8ec65122183c61d25826846040516122b29190613ec1565b60405180910390a150505050565b60006122cc600c61295e565b90506122d8600c612d59565b6122e28382612d6f565b6122ec8183612d8d565b505050565b6000600560008473ffffffffffffffffffffffffffffffffffffffff1673ffffffffffffffffffffffffffffffffffffffff16815260200190815260200160002060008373ffffffffffffffffffffffffffffffffffffffff1673ffffffffffffffffffffffffffffffffffffffff16815260200190815260200160002060009054906101000a900460ff16905092915050565b61238d612563565b73ffffffffffffffffffffffffffffffffffffffff166123ab6119f4565b73ffffffffffffffffffffffffffffffffffffffff1614612401576040517f08c379a00000000000000000000000000000000000000000000000000000000081526004016123f890614dbd565b60405180910390fd5b600073ffffffffffffffffffffffffffffffffffffffff168173ffffffffffffffffffffffffffffffffffffffff161415612471576040517f08c379a00000000000000000000000000000000000000000000000000000000081526004016124689061504b565b60405180910390fd5b61247a81612978565b50565b60007f780e9d63000000000000000000000000000000000000000000000000000000007bffffffffffffffffffffffffffffffffffffffffffffffffffffffff1916827bffffffffffffffffffffffffffffffffffffffffffffffffffffffff191614806124f057506124ef82612e01565b5b9050919050565b60008073ffffffffffffffffffffffffffffffffffffffff166002600084815260200190815260200160002060009054906101000a900473ffffffffffffffffffffffffffffffffffffffff1673ffffffffffffffffffffffffffffffffffffffff1614159050919050565b600033905090565b816004600083815260200190815260200160002060006101000a81548173ffffffffffffffffffffffffffffffffffffffff021916908373ffffffffffffffffffffffffffffffffffffffff160217905550808273ffffffffffffffffffffffffffffffffffffffff166125de8361157a565b73ffffffffffffffffffffffffffffffffffffffff167f8c5be1e5ebec7d5bd14f71427d1e84f3dd0314c0f7b2291e5b200ac8c7c3b92560405160405180910390a45050565b600061262f826124f7565b61266e576040517f08c379a0000000000000000000000000000000000000000000000000000000008152600401612665906150dd565b60405180910390fd5b60006126798361157a565b90508073ffffffffffffffffffffffffffffffffffffffff168473ffffffffffffffffffffffffffffffffffffffff1614806126e857508373ffffffffffffffffffffffffffffffffffffffff166126d0846107e0565b73ffffffffffffffffffffffffffffffffffffffff16145b806126f957506126f881856122f1565b5b91505092915050565b8273ffffffffffffffffffffffffffffffffffffffff166127228261157a565b73ffffffffffffffffffffffffffffffffffffffff1614612778576040517f08c379a000000000000000000000000000000000000000000000000000000000815260040161276f9061516f565b60405180910390fd5b600073ffffffffffffffffffffffffffffffffffffffff168273ffffffffffffffffffffffffffffffffffffffff1614156127e8576040517f08c379a00000000000000000000000000000000000000000000000000000000081526004016127df90615201565b60405180910390fd5b6127f3838383612ee3565b6127fe60008261256b565b6001600360008573ffffffffffffffffffffffffffffffffffffffff1673ffffffffffffffffffffffffffffffffffffffff168152602001908152602001600020600082825461284e9190615221565b925050819055506001600360008473ffffffffffffffffffffffffffffffffffffffff1673ffffffffffffffffffffffffffffffffffffffff16815260200190815260200160002060008282546128a59190615255565b92505081905550816002600083815260200190815260200160002060006101000a81548173ffffffffffffffffffffffffffffffffffffffff021916908373ffffffffffffffffffffffffffffffffffffffff160217905550808273ffffffffffffffffffffffffffffffffffffffff168473ffffffffffffffffffffffffffffffffffffffff167fddf252ad1be2c89b69c2b068fc378daa952ba7f163c4a11628f55a4df523b3ef60405160405180910390a4505050565b600081600001549050919050565b61297581612ef3565b50565b6000600b60009054906101000a900473ffffffffffffffffffffffffffffffffffffffff16905081600b60006101000a81548173ffffffffffffffffffffffffffffffffffffffff021916908373ffffffffffffffffffffffffffffffffffffffff1602179055508173ffffffffffffffffffffffffffffffffffffffff168173ffffffffffffffffffffffffffffffffffffffff167f8be0079c531659141344cd1fd0a4f28419497f9722a3daafe3b4186f6b6457e060405160405180910390a35050565b8173ffffffffffffffffffffffffffffffffffffffff168373ffffffffffffffffffffffffffffffffffffffff161415612aad576040517f08c379a0000000000000000000000000000000000000000000000000000000008152600401612aa4906152f7565b60405180910390fd5b80600560008573ffffffffffffffffffffffffffffffffffffffff1673ffffffffffffffffffffffffffffffffffffffff16815260200190815260200160002060008473ffffffffffffffffffffffffffffffffffffffff1673ffffffffffffffffffffffffffffffffffffffff16815260200190815260200160002060006101000a81548160ff0219169083151502179055508173ffffffffffffffffffffffffffffffffffffffff168373ffffffffffffffffffffffffffffffffffffffff167f17307eab39ab6107e8899845ad3d59bd9653f200f220920489ca2b5937696c3183604051612b9e9190613cb1565b60405180910390a3505050565b612bb6848484612702565b612bc284848484612f46565b612c01576040517f08c379a0000000000000000000000000000000000000000000000000000000008152600401612bf890615389565b60405180910390fd5b50505050565b6060612c12826124f7565b612c51576040517f08c379a0000000000000000000000000000000000000000000000000000000008152600401612c489061541b565b60405180910390fd5b6000600a60008481526020019081526020016000208054612c71906144ce565b80601f0160208091040260200160405190810160405280929190818152602001828054612c9d906144ce565b8015612cea5780601f10612cbf57610100808354040283529160200191612cea565b820191906000526020600020905b815481529060010190602001808311612ccd57829003601f168201915b505050505090506000612cfb613106565b9050600081511415612d11578192505050612d54565b600082511115612d46578082604051602001612d2e929190615477565b60405160208183030381529060405292505050612d54565b612d4f8461311d565b925050505b919050565b6001816000016000828254019250508190555050565b612d898282604051806020016040528060008152506131c4565b5050565b612d96826124f7565b612dd5576040517f08c379a0000000000000000000000000000000000000000000000000000000008152600401612dcc9061550d565b60405180910390fd5b80600a60008481526020019081526020016000209080519060200190612dfc929190613b1a565b505050565b60007f80ac58cd000000000000000000000000000000000000000000000000000000007bffffffffffffffffffffffffffffffffffffffffffffffffffffffff1916827bffffffffffffffffffffffffffffffffffffffffffffffffffffffff19161480612ecc57507f5b5e139f000000000000000000000000000000000000000000000000000000007bffffffffffffffffffffffffffffffffffffffffffffffffffffffff1916827bffffffffffffffffffffffffffffffffffffffffffffffffffffffff1916145b80612edc5750612edb8261321f565b5b9050919050565b612eee838383613289565b505050565b612efc8161339d565b6000600a60008381526020019081526020016000208054612f1c906144ce565b905014612f4357600a60008281526020019081526020016000206000612f429190613ba0565b5b50565b6000612f678473ffffffffffffffffffffffffffffffffffffffff166134ae565b156130f9578373ffffffffffffffffffffffffffffffffffffffff1663150b7a02612f90612563565b8786866040518563ffffffff167c0100000000000000000000000000000000000000000000000000000000028152600401612fce9493929190615582565b6020604051808303816000875af192505050801561300a57506040513d601f19601f8201168201806040525081019061300791906155e3565b60015b61308d573d806000811461303a576040519150601f19603f3d011682016040523d82523d6000602084013e61303f565b606091505b50600081511415613085576040517f08c379a000000000000000000000000000000000000000000000000000000000815260040161307c90615389565b60405180910390fd5b805181602001fd5b63150b7a027c0100000000000000000000000000000000000000000000000000000000027bffffffffffffffffffffffffffffffffffffffffffffffffffffffff1916817bffffffffffffffffffffffffffffffffffffffffffffffffffffffff1916149150506130fe565b600190505b949350505050565b606060405180602001604052806000815250905090565b6060613128826124f7565b613167576040517f08c379a000000000000000000000000000000000000000000000000000000000815260040161315e90615682565b60405180910390fd5b6000613171613106565b9050600081511161319157604051806020016040528060008152506131bc565b8061319b846134c1565b6040516020016131ac929190615477565b6040516020818303038152906040525b915050919050565b6131ce8383613641565b6131db6000848484612f46565b61321a576040517f08c379a000000000000000000000000000000000000000000000000000000000815260040161321190615389565b60405180910390fd5b505050565b60007f01ffc9a7000000000000000000000000000000000000000000000000000000007bffffffffffffffffffffffffffffffffffffffffffffffffffffffff1916827bffffffffffffffffffffffffffffffffffffffffffffffffffffffff1916149050919050565b61329483838361380f565b600073ffffffffffffffffffffffffffffffffffffffff168373ffffffffffffffffffffffffffffffffffffffff1614156132d7576132d281613814565b613316565b8173ffffffffffffffffffffffffffffffffffffffff168373ffffffffffffffffffffffffffffffffffffffff161461331557613314838261385d565b5b5b600073ffffffffffffffffffffffffffffffffffffffff168273ffffffffffffffffffffffffffffffffffffffff16141561335957613354816139ca565b613398565b8273ffffffffffffffffffffffffffffffffffffffff168273ffffffffffffffffffffffffffffffffffffffff1614613397576133968282613a9b565b5b5b505050565b60006133a88261157a565b90506133b681600084612ee3565b6133c160008361256b565b6001600360008373ffffffffffffffffffffffffffffffffffffffff1673ffffffffffffffffffffffffffffffffffffffff16815260200190815260200160002060008282546134119190615221565b925050819055506002600083815260200190815260200160002060006101000a81549073ffffffffffffffffffffffffffffffffffffffff021916905581600073ffffffffffffffffffffffffffffffffffffffff168273ffffffffffffffffffffffffffffffffffffffff167fddf252ad1be2c89b69c2b068fc378daa952ba7f163c4a11628f55a4df523b3ef60405160405180910390a45050565b600080823b905060008111915050919050565b60606000821415613509576040518060400160405280600181526020017f3000000000000000000000000000000000000000000000000000000000000000815250905061363c565b600082905060005b6000821461353b578080613524906156a2565b915050600a82613534919061571a565b9150613511565b60008167ffffffffffffffff81111561355757613556613f39565b5b6040519080825280601f01601f1916602001820160405280156135895781602001600182028036833780820191505090505b5090505b60008514613635576001826135a29190615221565b9150600a856135b1919061574b565b60306135bd9190615255565b7f0100000000000000000000000000000000000000000000000000000000000000028183815181106135f2576135f1614b8c565b5b60200101907effffffffffffffffffffffffffffffffffffffffffffffffffffffffffffff1916908160001a905350600a8561362e919061571a565b945061358d565b8093505050505b919050565b600073ffffffffffffffffffffffffffffffffffffffff168273ffffffffffffffffffffffffffffffffffffffff1614156136b1576040517f08c379a00000000000000000000000000000000000000000000000000000000081526004016136a8906157c8565b60405180910390fd5b6136ba816124f7565b156136fa576040517f08c379a00000000000000000000000000000000000000000000000000000000081526004016136f190615834565b60405180910390fd5b61370660008383612ee3565b6001600360008473ffffffffffffffffffffffffffffffffffffffff1673ffffffffffffffffffffffffffffffffffffffff16815260200190815260200160002060008282546137569190615255565b92505081905550816002600083815260200190815260200160002060006101000a81548173ffffffffffffffffffffffffffffffffffffffff021916908373ffffffffffffffffffffffffffffffffffffffff160217905550808273ffffffffffffffffffffffffffffffffffffffff16600073ffffffffffffffffffffffffffffffffffffffff167fddf252ad1be2c89b69c2b068fc378daa952ba7f163c4a11628f55a4df523b3ef60405160405180910390a45050565b505050565b6008805490506009600083815260200190815260200160002081905550600881908060018154018082558091505060019003906000526020600020016000909190919091505550565b6000600161386a8461162c565b6138749190615221565b9050600060076000848152602001908152602001600020549050818114613959576000600660008673ffffffffffffffffffffffffffffffffffffffff1673ffffffffffffffffffffffffffffffffffffffff168152602001908152602001600020600084815260200190815260200160002054905080600660008773ffffffffffffffffffffffffffffffffffffffff1673ffffffffffffffffffffffffffffffffffffffff168152602001908152602001600020600084815260200190815260200160002081905550816007600083815260200190815260200160002081905550505b6007600084815260200190815260200160002060009055600660008573ffffffffffffffffffffffffffffffffffffffff1673ffffffffffffffffffffffffffffffffffffffff16815260200190815260200160002060008381526020019081526020016000206000905550505050565b600060016008805490506139de9190615221565b9050600060096000848152602001908152602001600020549050600060088381548110613a0e57613a0d614b8c565b5b906000526020600020015490508060088381548110613a3057613a2f614b8c565b5b906000526020600020018190555081600960008381526020019081526020016000208190555060096000858152602001908152602001600020600090556008805480613a7f57613a7e615854565b5b6001900381819060005260206000200160009055905550505050565b6000613aa68361162c565b905081600660008573ffffffffffffffffffffffffffffffffffffffff1673ffffffffffffffffffffffffffffffffffffffff168152602001908152602001600020600083815260200190815260200160002081905550806007600084815260200190815260200160002081905550505050565b828054613b26906144ce565b90600052602060002090601f016020900481019282613b485760008555613b8f565b82601f10613b6157805160ff1916838001178555613b8f565b82800160010185558215613b8f579182015b82811115613b8e578251825591602001919060010190613b73565b5b509050613b9c9190613be0565b5090565b508054613bac906144ce565b6000825580601f10613bbe5750613bdd565b601f016020900490600052602060002090810190613bdc9190613be0565b5b50565b5b80821115613bf9576000816000905550600101613be1565b5090565b6000604051905090565b600080fd5b600080fd5b60007fffffffff0000000000000000000000000000000000000000000000000000000082169050919050565b613c4681613c11565b8114613c5157600080fd5b50565b600081359050613c6381613c3d565b92915050565b600060208284031215613c7f57613c7e613c07565b5b6000613c8d84828501613c54565b91505092915050565b60008115159050919050565b613cab81613c96565b82525050565b6000602082019050613cc66000830184613ca2565b92915050565b600081519050919050565b600082825260208201905092915050565b60005b83811015613d06578082015181840152602081019050613ceb565b83811115613d15576000848401525b50505050565b6000601f19601f8301169050919050565b6000613d3782613ccc565b613d418185613cd7565b9350613d51818560208601613ce8565b613d5a81613d1b565b840191505092915050565b60006020820190508181036000830152613d7f8184613d2c565b905092915050565b6000819050919050565b613d9a81613d87565b8114613da557600080fd5b50565b600081359050613db781613d91565b92915050565b600060208284031215613dd357613dd2613c07565b5b6000613de184828501613da8565b91505092915050565b600073ffffffffffffffffffffffffffffffffffffffff82169050919050565b6000613e1582613dea565b9050919050565b613e2581613e0a565b82525050565b6000602082019050613e406000830184613e1c565b92915050565b613e4f81613e0a565b8114613e5a57600080fd5b50565b600081359050613e6c81613e46565b92915050565b60008060408385031215613e8957613e88613c07565b5b6000613e9785828601613e5d565b9250506020613ea885828601613da8565b9150509250929050565b613ebb81613d87565b82525050565b6000602082019050613ed66000830184613eb2565b92915050565b600080600060608486031215613ef557613ef4613c07565b5b6000613f0386828701613e5d565b9350506020613f1486828701613e5d565b9250506040613f2586828701613da8565b9150509250925092565b600080fd5b600080fd5b7f4e487b7100000000000000000000000000000000000000000000000000000000600052604160045260246000fd5b613f7182613d1b565b810181811067ffffffffffffffff82111715613f9057613f8f613f39565b5b80604052505050565b6000613fa3613bfd565b9050613faf8282613f68565b919050565b600067ffffffffffffffff821115613fcf57613fce613f39565b5b613fd882613d1b565b9050602081019050919050565b82818337600083830152505050565b600061400761400284613fb4565b613f99565b90508281526020810184848401111561402357614022613f34565b5b61402e848285613fe5565b509392505050565b600082601f83011261404b5761404a613f2f565b5b813561405b848260208601613ff4565b91505092915050565b6000806000806080858703121561407e5761407d613c07565b5b600085013567ffffffffffffffff81111561409c5761409b613c0c565b5b6140a887828801614036565b94505060206140b987828801613da8565b93505060406140ca87828801613da8565b925050606085013567ffffffffffffffff8111156140eb576140ea613c0c565b5b6140f787828801614036565b91505092959194509250565b60006020828403121561411957614118613c07565b5b600061412784828501613e5d565b91505092915050565b7f4e487b7100000000000000000000000000000000000000000000000000000000600052602160045260246000fd5b600481106141705761416f614130565b5b50565b60008190506141818261415f565b919050565b600061419182614173565b9050919050565b6141a181614186565b82525050565b6000610100820190506141bd600083018b613eb2565b81810360208301526141cf818a613d2c565b90506141de6040830189613eb2565b6141eb6060830188613eb2565b6141f86080830187613e1c565b61420560a0830186613e1c565b61421260c0830185614198565b81810360e08301526142248184613d2c565b90509998505050505050505050565b6000806040838503121561424a57614249613c07565b5b600061425885828601613da8565b925050602061426985828601613da8565b9150509250929050565b61427c81613c96565b811461428757600080fd5b50565b60008135905061429981614273565b92915050565b600080604083850312156142b6576142b5613c07565b5b60006142c485828601613e5d565b92505060206142d58582860161428a565b9150509250929050565b600067ffffffffffffffff8211156142fa576142f9613f39565b5b61430382613d1b565b9050602081019050919050565b600061432361431e846142df565b613f99565b90508281526020810184848401111561433f5761433e613f34565b5b61434a848285613fe5565b509392505050565b600082601f83011261436757614366613f2f565b5b8135614377848260208601614310565b91505092915050565b6000806000806080858703121561439a57614399613c07565b5b60006143a887828801613e5d565b94505060206143b987828801613e5d565b93505060406143ca87828801613da8565b925050606085013567ffffffffffffffff8111156143eb576143ea613c0c565b5b6143f787828801614352565b91505092959194509250565b6000806040838503121561441a57614419613c07565b5b600061442885828601613e5d565b925050602083013567ffffffffffffffff81111561444957614448613c0c565b5b61445585828601614036565b9150509250929050565b6000806040838503121561447657614475613c07565b5b600061448485828601613e5d565b925050602061449585828601613e5d565b9150509250929050565b7f4e487b7100000000000000000000000000000000000000000000000000000000600052602260045260246000fd5b600060028204905060018216806144e657607f821691505b602082108114156144fa576144f961449f565b5b50919050565b7f4552433732313a20617070726f76656420717565727920666f72206e6f6e657860008201527f697374656e7420746f6b656e0000000000000000000000000000000000000000602082015250565b600061455c602c83613cd7565b915061456782614500565b604082019050919050565b6000602082019050818103600083015261458b8161454f565b9050919050565b7f4552433732313a20617070726f76616c20746f2063757272656e74206f776e6560008201527f7200000000000000000000000000000000000000000000000000000000000000602082015250565b60006145ee602183613cd7565b91506145f982614592565b604082019050919050565b6000602082019050818103600083015261461d816145e1565b9050919050565b7f4552433732313a20617070726f76652063616c6c6572206973206e6f74206f7760008201527f6e6572206e6f7220617070726f76656420666f7220616c6c0000000000000000602082015250565b6000614680603883613cd7565b915061468b82614624565b604082019050919050565b600060208201905081810360008301526146af81614673565b9050919050565b7f546865206173736574206973206e6f742063757272656e746c79206265696e6760008201527f20736f6c64000000000000000000000000000000000000000000000000000000602082015250565b6000614712602583613cd7565b915061471d826146b6565b604082019050919050565b6000602082019050818103600083015261474181614705565b9050919050565b7f596f752061726520616c726561647920746865206f776e6572206f662074686960008201527f7320617373657400000000000000000000000000000000000000000000000000602082015250565b60006147a4602783613cd7565b91506147af82614748565b604082019050919050565b600060208201905081810360008301526147d381614797565b9050919050565b7f5468697320746f6b656e20646f6573206e6f7420657869737400000000000000600082015250565b6000614810601983613cd7565b915061481b826147da565b602082019050919050565b6000602082019050818103600083015261483f81614803565b9050919050565b7f596f75206861766520696e73756666696369656e742066756e64730000000000600082015250565b600061487c601b83613cd7565b915061488782614846565b602082019050919050565b600060208201905081810360008301526148ab8161486f565b9050919050565b7f596f7520617265206e6f7420746865206f776e6572206f66207468697320617360008201527f7365740000000000000000000000000000000000000000000000000000000000602082015250565b600061490e602383613cd7565b9150614919826148b2565b604082019050919050565b6000602082019050818103600083015261493d81614901565b9050919050565b7f5468697320617373657420686173206e6f74206265656e207265706f7274656460008201527f206c6f7374206f722073746f6c656e0000000000000000000000000000000000602082015250565b60006149a0602f83613cd7565b91506149ab82614944565b604082019050919050565b600060208201905081810360008301526149cf81614993565b9050919050565b7f4552433732313a207472616e736665722063616c6c6572206973206e6f74206f60008201527f776e6572206e6f7220617070726f766564000000000000000000000000000000602082015250565b6000614a32603183613cd7565b9150614a3d826149d6565b604082019050919050565b60006020820190508181036000830152614a6181614a25565b9050919050565b7f455243373231456e756d657261626c653a206f776e657220696e646578206f7560008201527f74206f6620626f756e6473000000000000000000000000000000000000000000602082015250565b6000614ac4602b83613cd7565b9150614acf82614a68565b604082019050919050565b60006020820190508181036000830152614af381614ab7565b9050919050565b7f455243373231456e756d657261626c653a20676c6f62616c20696e646578206f60008201527f7574206f6620626f756e64730000000000000000000000000000000000000000602082015250565b6000614b56602c83613cd7565b9150614b6182614afa565b604082019050919050565b60006020820190508181036000830152614b8581614b49565b9050919050565b7f4e487b7100000000000000000000000000000000000000000000000000000000600052603260045260246000fd5b7f4f776e65727368697020686173206e6f74206265656e207472616e736665727260008201527f65642e0000000000000000000000000000000000000000000000000000000000602082015250565b6000614c17602383613cd7565b9150614c2282614bbb565b604082019050919050565b60006020820190508181036000830152614c4681614c0a565b9050919050565b7f4552433732313a206f776e657220717565727920666f72206e6f6e657869737460008201527f656e7420746f6b656e0000000000000000000000000000000000000000000000602082015250565b6000614ca9602983613cd7565b9150614cb482614c4d565b604082019050919050565b60006020820190508181036000830152614cd881614c9c565b9050919050565b7f4552433732313a2062616c616e636520717565727920666f7220746865207a6560008201527f726f206164647265737300000000000000000000000000000000000000000000602082015250565b6000614d3b602a83613cd7565b9150614d4682614cdf565b604082019050919050565b60006020820190508181036000830152614d6a81614d2e565b9050919050565b7f4f776e61626c653a2063616c6c6572206973206e6f7420746865206f776e6572600082015250565b6000614da7602083613cd7565b9150614db282614d71565b602082019050919050565b60006020820190508181036000830152614dd681614d9a565b9050919050565b6000604082019050614df26000830185613eb2565b614dff6020830184613eb2565b9392505050565b7f596f7520617265206e6f7420746865206275796572206f66207468697320617360008201527f7365740000000000000000000000000000000000000000000000000000000000602082015250565b6000614e62602383613cd7565b9150614e6d82614e06565b604082019050919050565b60006020820190508181036000830152614e9181614e55565b9050919050565b7f5468697320617373657420686173206e6f74206265656e20736869707065642060008201527f6f7220617070726f76656420666f72206f776e657273686970207472616e736660208201527f65722e0000000000000000000000000000000000000000000000000000000000604082015250565b6000614f1a604383613cd7565b9150614f2582614e98565b606082019050919050565b60006020820190508181036000830152614f4981614f0d565b9050919050565b7f4e487b7100000000000000000000000000000000000000000000000000000000600052601160045260246000fd5b6000614f8a82613d87565b9150614f9583613d87565b9250817fffffffffffffffffffffffffffffffffffffffffffffffffffffffffffffffff0483118215151615614fce57614fcd614f50565b5b828202905092915050565b7f4f776e61626c653a206e6577206f776e657220697320746865207a65726f206160008201527f6464726573730000000000000000000000000000000000000000000000000000602082015250565b6000615035602683613cd7565b915061504082614fd9565b604082019050919050565b6000602082019050818103600083015261506481615028565b9050919050565b7f4552433732313a206f70657261746f7220717565727920666f72206e6f6e657860008201527f697374656e7420746f6b656e0000000000000000000000000000000000000000602082015250565b60006150c7602c83613cd7565b91506150d28261506b565b604082019050919050565b600060208201905081810360008301526150f6816150ba565b9050919050565b7f4552433732313a207472616e73666572206f6620746f6b656e2074686174206960008201527f73206e6f74206f776e0000000000000000000000000000000000000000000000602082015250565b6000615159602983613cd7565b9150615164826150fd565b604082019050919050565b600060208201905081810360008301526151888161514c565b9050919050565b7f4552433732313a207472616e7366657220746f20746865207a65726f2061646460008201527f7265737300000000000000000000000000000000000000000000000000000000602082015250565b60006151eb602483613cd7565b91506151f68261518f565b604082019050919050565b6000602082019050818103600083015261521a816151de565b9050919050565b600061522c82613d87565b915061523783613d87565b92508282101561524a57615249614f50565b5b828203905092915050565b600061526082613d87565b915061526b83613d87565b9250827fffffffffffffffffffffffffffffffffffffffffffffffffffffffffffffffff038211156152a05761529f614f50565b5b828201905092915050565b7f4552433732313a20617070726f766520746f2063616c6c657200000000000000600082015250565b60006152e1601983613cd7565b91506152ec826152ab565b602082019050919050565b60006020820190508181036000830152615310816152d4565b9050919050565b7f4552433732313a207472616e7366657220746f206e6f6e20455243373231526560008201527f63656976657220696d706c656d656e7465720000000000000000000000000000602082015250565b6000615373603283613cd7565b915061537e82615317565b604082019050919050565b600060208201905081810360008301526153a281615366565b9050919050565b7f45524337323155524953746f726167653a2055524920717565727920666f722060008201527f6e6f6e6578697374656e7420746f6b656e000000000000000000000000000000602082015250565b6000615405603183613cd7565b9150615410826153a9565b604082019050919050565b60006020820190508181036000830152615434816153f8565b9050919050565b600081905092915050565b600061545182613ccc565b61545b818561543b565b935061546b818560208601613ce8565b80840191505092915050565b60006154838285615446565b915061548f8284615446565b91508190509392505050565b7f45524337323155524953746f726167653a2055524920736574206f66206e6f6e60008201527f6578697374656e7420746f6b656e000000000000000000000000000000000000602082015250565b60006154f7602e83613cd7565b91506155028261549b565b604082019050919050565b60006020820190508181036000830152615526816154ea565b9050919050565b600081519050919050565b600082825260208201905092915050565b60006155548261552d565b61555e8185615538565b935061556e818560208601613ce8565b61557781613d1b565b840191505092915050565b60006080820190506155976000830187613e1c565b6155a46020830186613e1c565b6155b16040830185613eb2565b81810360608301526155c38184615549565b905095945050505050565b6000815190506155dd81613c3d565b92915050565b6000602082840312156155f9576155f8613c07565b5b6000615607848285016155ce565b91505092915050565b7f4552433732314d657461646174613a2055524920717565727920666f72206e6f60008201527f6e6578697374656e7420746f6b656e0000000000000000000000000000000000602082015250565b600061566c602f83613cd7565b915061567782615610565b604082019050919050565b6000602082019050818103600083015261569b8161565f565b9050919050565b60006156ad82613d87565b91507fffffffffffffffffffffffffffffffffffffffffffffffffffffffffffffffff8214156156e0576156df614f50565b5b600182019050919050565b7f4e487b7100000000000000000000000000000000000000000000000000000000600052601260045260246000fd5b600061572582613d87565b915061573083613d87565b9250826157405761573f6156eb565b5b828204905092915050565b600061575682613d87565b915061576183613d87565b925082615771576157706156eb565b5b828206905092915050565b7f4552433732313a206d696e7420746f20746865207a65726f2061646472657373600082015250565b60006157b2602083613cd7565b91506157bd8261577c565b602082019050919050565b600060208201905081810360008301526157e1816157a5565b9050919050565b7f4552433732313a20746f6b656e20616c7265616479206d696e74656400000000600082015250565b600061581e601c83613cd7565b9150615829826157e8565b602082019050919050565b6000602082019050818103600083015261584d81615811565b9050919050565b7f4e487b7100000000000000000000000000000000000000000000000000000000600052603160045260246000fdfea2646970667358221220acb0354a05493c0fe5ccdf7b70a411b5d753d6594f3709f890ba47ca5d68abc964736f6c634300080b0033",
  "immutableReferences": {},
  "source": "// SPDX-License-Identifier: MIT\npragma solidity ^0.8.0;\n\nimport \"@openzeppelin/contracts/token/ERC721/ERC721.sol\";\nimport \"@openzeppelin/contracts/token/ERC721/extensions/ERC721Enumerable.sol\";\nimport \"@openzeppelin/contracts/token/ERC721/extensions/ERC721URIStorage.sol\";\nimport \"@openzeppelin/contracts/access/Ownable.sol\";\nimport \"@openzeppelin/contracts/utils/Counters.sol\";\n\ncontract AssetOwnership is ERC721, ERC721Enumerable, ERC721URIStorage, Ownable {\n    using Counters for Counters.Counter;\n\n    Counters.Counter private _tokenIdCounter;\n\n    constructor() ERC721(\"Asset Ownership\", \"ASSET\") {}\n\n    function safeMint(address to, string memory uri) public {\n        uint256 tokenId = _tokenIdCounter.current();\n        _tokenIdCounter.increment();\n        _safeMint(to, tokenId);\n        _setTokenURI(tokenId, uri);\n    }\n\n    // The following functions are overrides required by Solidity.\n\n    function _beforeTokenTransfer(address from, address to, uint256 tokenId)\n        internal\n        override(ERC721, ERC721Enumerable)\n    {\n        super._beforeTokenTransfer(from, to, tokenId);\n    }\n\n    function _burn(uint256 tokenId) internal override(ERC721, ERC721URIStorage) {\n        super._burn(tokenId);\n    }\n\n    function tokenURI(uint256 tokenId)\n        public\n        view\n        override(ERC721, ERC721URIStorage)\n        returns (string memory)\n    {\n        return super.tokenURI(tokenId);\n    }\n\n    function supportsInterface(bytes4 interfaceId)\n        public\n        view\n        override(ERC721, ERC721Enumerable)\n        returns (bool)\n    {\n        return super.supportsInterface(interfaceId);\n    }\n\n\n    /*****************************************************************\n     ****************************** Data ****************************\n     ****************************************************************/\n\n\n    // Function to receive Ether. msg.data must be empty\n    receive() external payable {}\n\n    // Fallback function is called when msg.data is not empty\n    fallback() external payable {}\n\n    // assets\n    mapping (uint => Asset) assets;\n\n    // asset state\n    enum State{InPossession, PendingTransfer, TransferringOwnership, LostOrStolen}\n\n    // asset struct\n    struct Asset {\n        uint tokenId;\n        string name;\n        uint serial;\n        uint value;\n        address payable buyer;\n        address payable owner;\n        State state;\n        string uri;\n    }\n\n    /*****************************************************************\n     ****************************** Events ***************************\n     ****************************************************************/\n\n    event LogInPossession(uint tokenId);\n\n    event LogSold(uint tokenId);\n\n    event LogTransferringOwnership(uint tokenId);\n    \n    event LogLostOrStolen(uint tokenId);\n\n    event LogDestroyed(uint tokenId);\n\n    event LogChangedValue(uint tokenId, uint value);\n\n    /*****************************************************************\n     **************************** Modifiers **************************\n     ****************************************************************/\n\n    modifier verifyOwner (address _address) {\n        require(msg.sender == _address, \"You are not the owner of this asset\");\n        _;\n    }\n\n    modifier verifyTokenExists (uint _tokenId) {\n        require(_exists(_tokenId), \"This token does not exist\");\n        _;\n    }\n\n\n    modifier verifyBuyer (address _address) {\n        require(msg.sender == _address, \"You are not the buyer of this asset\");\n        _;\n    }\n\n    modifier verifyNotOwner (address _address) {\n        require(msg.sender != _address, \"You are already the owner of this asset\");\n        _;\n    }\n\n    modifier inPossession (uint _tokenId) {\n        require(assets[_tokenId].state == State.InPossession, \"The asset is not currently being sold\"); \n        _;\n    }\n\n    modifier isLostorStolen (uint _tokenId) {\n        require(assets[_tokenId].state == State.LostOrStolen, \"This asset has not been reported lost or stolen\");\n        _;\n    }\n\n    modifier pendingTransfer (uint _tokenId) {\n        require(assets[_tokenId].state == State.PendingTransfer, \"Ownership has not been transferred.\");\n        _;\n    }\n\n    modifier transferringOwnership (uint _tokenId) {\n        require(assets[_tokenId].state == State.TransferringOwnership, \"This asset has not been shipped or approved for ownership transfer.\");\n        _;\n    }\n\n    modifier paidEnough (uint _value) {\n        require(msg.value >= _value, \"You have insufficient funds\");\n        _;\n    }\n\n    /*****************************************************************\n     ****************************** Logic ****************************\n     ****************************************************************/\n\n    // ADD\n    function addAsset(string memory _name, uint _serial, uint _value, string memory _uri) public returns (bool) {\n        uint tokenId = _tokenIdCounter.current();\n\n        assets[tokenId] = Asset({\n            tokenId: tokenId,\n            name: _name,\n            serial: _serial,\n            value: _value,\n            buyer: payable (address(0)),\n            owner: payable (msg.sender),\n            state: State.InPossession,\n            uri: _uri\n        });\n\n        safeMint(msg.sender, _uri);\n\n        emit LogInPossession(tokenId);\n\n        return true;\n    }\n\n    // BUY\n    function buyAsset(uint _tokenId) \n    inPossession(_tokenId) \n    verifyNotOwner(assets[_tokenId].owner) \n    verifyTokenExists(_tokenId)\n    paidEnough(assets[_tokenId].value) \n    payable public {        \n        // TODO: Change and add modifiers and make sure money is sent\n        \n        assets[_tokenId].buyer = payable(msg.sender);\n\n        assets[_tokenId].state = State.PendingTransfer;\n\n        emit LogSold(_tokenId);\n    }\n\n    // APPROVE FOR OWNERSHIP TRANSFER\n    function shipAssetAndApproveOwnershipTransfer(uint _tokenId) pendingTransfer(_tokenId) verifyOwner(assets[_tokenId].owner) verifyTokenExists(_tokenId) public {\n        _approve(assets[_tokenId].buyer, _tokenId);\n        \n        assets[_tokenId].state = State.TransferringOwnership;\n    }\n\n    // RECEIVE AND TRANSFER OWNERSHIP\n    function receiveAsset(uint _tokenId) verifyBuyer(assets[_tokenId].buyer) transferringOwnership(_tokenId) verifyTokenExists(_tokenId) payable public {\n        safeTransferFrom(assets[_tokenId].owner, assets[_tokenId].buyer, _tokenId);\n\n        assets[_tokenId].owner.transfer(assets[_tokenId].value * 1000000000000000000);\n\n        assets[_tokenId].owner = payable(msg.sender);\n\n        assets[_tokenId].buyer = payable(address(0));\n        \n        assets[_tokenId].state = State.InPossession;\n\n        emit LogInPossession(_tokenId);\n    }\n\n    // CHANGE VALUE\n    function changeValueOfAsset(uint _tokenId, uint _value) verifyOwner(assets[_tokenId].owner) inPossession(_tokenId) verifyTokenExists(_tokenId) public {\n        assets[_tokenId].value = _value;\n\n        emit LogChangedValue(_tokenId, _value);\n    }\n\n    // LOST OR STOLEN\n    function reportLostOrStolen(uint _tokenId) verifyOwner(assets[_tokenId].owner) inPossession(_tokenId) verifyTokenExists(_tokenId) public {\n        assets[_tokenId].state = State.LostOrStolen;\n\n        emit LogLostOrStolen(_tokenId);\n    }\n\n    // IN POSSESSION\n    function reportFoundAndInPossession(uint _tokenId) verifyOwner(assets[_tokenId].owner) isLostorStolen(_tokenId) verifyTokenExists(_tokenId) public {\n        assets[_tokenId].state = State.InPossession;\n\n        emit LogInPossession(_tokenId);\n    }\n\n    // DESTROY\n    function destroyAsset(uint _tokenId) verifyOwner(assets[_tokenId].owner) inPossession(_tokenId) verifyTokenExists(_tokenId) public {\n        _burn(_tokenId);\n        emit LogDestroyed(_tokenId);\n    }\n\n\n    // FETCH\n    function fetchAsset(uint _tokenId) verifyTokenExists(_tokenId) public view \n    returns (uint tokenId, string memory name, uint serial, uint value, address buyer, address _owner, State state, string memory uri) {\n        tokenId = assets[_tokenId].tokenId;\n        name = assets[_tokenId].name;\n        serial = assets[_tokenId].serial;\n        value = assets[_tokenId].value;\n        buyer = assets[_tokenId].buyer;\n        _owner = assets[_tokenId].owner;\n        state = assets[_tokenId].state;\n        uri = assets[_tokenId].uri;\n\n        return (tokenId, name, serial, value, buyer, _owner, state, uri);\n    }\n}",
  "sourcePath": "/Users/leo/sandbox/blockchain/blockchain-developer-bootcamp-final-project/contracts/AssetOwnership.sol",
  "compiler": {
    "name": "solc",
    "version": "0.8.11+commit.d7f03943.Emscripten.clang"
  },
  "schemaVersion": "3.4.3",
  "updatedAt": "2022-01-15T03:38:00.964Z",
  "networkType": "ethereum",
  "devdoc": {
    "kind": "dev",
    "methods": {
      "approve(address,uint256)": {
        "details": "See {IERC721-approve}."
      },
      "balanceOf(address)": {
        "details": "See {IERC721-balanceOf}."
      },
      "getApproved(uint256)": {
        "details": "See {IERC721-getApproved}."
      },
      "isApprovedForAll(address,address)": {
        "details": "See {IERC721-isApprovedForAll}."
      },
      "name()": {
        "details": "See {IERC721Metadata-name}."
      },
      "owner()": {
        "details": "Returns the address of the current owner."
      },
      "ownerOf(uint256)": {
        "details": "See {IERC721-ownerOf}."
      },
      "renounceOwnership()": {
        "details": "Leaves the contract without owner. It will not be possible to call `onlyOwner` functions anymore. Can only be called by the current owner. NOTE: Renouncing ownership will leave the contract without an owner, thereby removing any functionality that is only available to the owner."
      },
      "safeTransferFrom(address,address,uint256)": {
        "details": "See {IERC721-safeTransferFrom}."
      },
      "safeTransferFrom(address,address,uint256,bytes)": {
        "details": "See {IERC721-safeTransferFrom}."
      },
      "setApprovalForAll(address,bool)": {
        "details": "See {IERC721-setApprovalForAll}."
      },
      "symbol()": {
        "details": "See {IERC721Metadata-symbol}."
      },
      "tokenByIndex(uint256)": {
        "details": "See {IERC721Enumerable-tokenByIndex}."
      },
      "tokenOfOwnerByIndex(address,uint256)": {
        "details": "See {IERC721Enumerable-tokenOfOwnerByIndex}."
      },
      "totalSupply()": {
        "details": "See {IERC721Enumerable-totalSupply}."
      },
      "transferFrom(address,address,uint256)": {
        "details": "See {IERC721-transferFrom}."
      },
      "transferOwnership(address)": {
        "details": "Transfers ownership of the contract to a new account (`newOwner`). Can only be called by the current owner."
      }
    },
    "version": 1
  },
  "userdoc": {
    "kind": "user",
    "methods": {},
    "version": 1
  }
}