{
  "contractName": "AssetOwnership",
  "abi": [
    {
      "inputs": [],
      "stateMutability": "nonpayable",
      "type": "constructor"
    },
    {
      "anonymous": false,
      "inputs": [
        {
          "indexed": true,
          "internalType": "address",
          "name": "owner",
          "type": "address"
        },
        {
          "indexed": true,
          "internalType": "address",
          "name": "approved",
          "type": "address"
        },
        {
          "indexed": true,
          "internalType": "uint256",
          "name": "tokenId",
          "type": "uint256"
        }
      ],
      "name": "Approval",
      "type": "event"
    },
    {
      "anonymous": false,
      "inputs": [
        {
          "indexed": true,
          "internalType": "address",
          "name": "owner",
          "type": "address"
        },
        {
          "indexed": true,
          "internalType": "address",
          "name": "operator",
          "type": "address"
        },
        {
          "indexed": false,
          "internalType": "bool",
          "name": "approved",
          "type": "bool"
        }
      ],
      "name": "ApprovalForAll",
      "type": "event"
    },
    {
      "anonymous": false,
      "inputs": [
        {
          "indexed": false,
          "internalType": "uint256",
          "name": "tokenId",
          "type": "uint256"
        }
      ],
      "name": "LogBought",
      "type": "event"
    },
    {
      "anonymous": false,
      "inputs": [
        {
          "indexed": false,
          "internalType": "uint256",
          "name": "tokenId",
          "type": "uint256"
        },
        {
          "indexed": false,
          "internalType": "uint256",
          "name": "value",
          "type": "uint256"
        }
      ],
      "name": "LogChangedValue",
      "type": "event"
    },
    {
      "anonymous": false,
      "inputs": [
        {
          "indexed": false,
          "internalType": "uint256",
          "name": "tokenId",
          "type": "uint256"
        }
      ],
      "name": "LogDestroyed",
      "type": "event"
    },
    {
      "anonymous": false,
      "inputs": [
        {
          "indexed": false,
          "internalType": "uint256",
          "name": "tokenId",
          "type": "uint256"
        }
      ],
      "name": "LogInPossession",
      "type": "event"
    },
    {
      "anonymous": false,
      "inputs": [
        {
          "indexed": false,
          "internalType": "uint256",
          "name": "tokenId",
          "type": "uint256"
        }
      ],
      "name": "LogLostOrStolen",
      "type": "event"
    },
    {
      "anonymous": false,
      "inputs": [
        {
          "indexed": false,
          "internalType": "uint256",
          "name": "tokenId",
          "type": "uint256"
        }
      ],
      "name": "LogShipped",
      "type": "event"
    },
    {
      "anonymous": false,
      "inputs": [
        {
          "indexed": false,
          "internalType": "uint256",
          "name": "tokenId",
          "type": "uint256"
        }
      ],
      "name": "LogTransferringOwnership",
      "type": "event"
    },
    {
      "anonymous": false,
      "inputs": [
        {
          "indexed": true,
          "internalType": "address",
          "name": "previousOwner",
          "type": "address"
        },
        {
          "indexed": true,
          "internalType": "address",
          "name": "newOwner",
          "type": "address"
        }
      ],
      "name": "OwnershipTransferred",
      "type": "event"
    },
    {
      "anonymous": false,
      "inputs": [
        {
          "indexed": true,
          "internalType": "address",
          "name": "from",
          "type": "address"
        },
        {
          "indexed": true,
          "internalType": "address",
          "name": "to",
          "type": "address"
        },
        {
          "indexed": true,
          "internalType": "uint256",
          "name": "tokenId",
          "type": "uint256"
        }
      ],
      "name": "Transfer",
      "type": "event"
    },
    {
      "stateMutability": "payable",
      "type": "fallback",
      "payable": true
    },
    {
      "inputs": [
        {
          "internalType": "address",
          "name": "to",
          "type": "address"
        },
        {
          "internalType": "uint256",
          "name": "tokenId",
          "type": "uint256"
        }
      ],
      "name": "approve",
      "outputs": [],
      "stateMutability": "nonpayable",
      "type": "function"
    },
    {
      "inputs": [
        {
          "internalType": "address",
          "name": "owner",
          "type": "address"
        }
      ],
      "name": "balanceOf",
      "outputs": [
        {
          "internalType": "uint256",
          "name": "",
          "type": "uint256"
        }
      ],
      "stateMutability": "view",
      "type": "function",
      "constant": true
    },
    {
      "inputs": [
        {
          "internalType": "uint256",
          "name": "tokenId",
          "type": "uint256"
        }
      ],
      "name": "getApproved",
      "outputs": [
        {
          "internalType": "address",
          "name": "",
          "type": "address"
        }
      ],
      "stateMutability": "view",
      "type": "function",
      "constant": true
    },
    {
      "inputs": [
        {
          "internalType": "address",
          "name": "owner",
          "type": "address"
        },
        {
          "internalType": "address",
          "name": "operator",
          "type": "address"
        }
      ],
      "name": "isApprovedForAll",
      "outputs": [
        {
          "internalType": "bool",
          "name": "",
          "type": "bool"
        }
      ],
      "stateMutability": "view",
      "type": "function",
      "constant": true
    },
    {
      "inputs": [],
      "name": "name",
      "outputs": [
        {
          "internalType": "string",
          "name": "",
          "type": "string"
        }
      ],
      "stateMutability": "view",
      "type": "function",
      "constant": true
    },
    {
      "inputs": [],
      "name": "owner",
      "outputs": [
        {
          "internalType": "address",
          "name": "",
          "type": "address"
        }
      ],
      "stateMutability": "view",
      "type": "function",
      "constant": true
    },
    {
      "inputs": [
        {
          "internalType": "uint256",
          "name": "tokenId",
          "type": "uint256"
        }
      ],
      "name": "ownerOf",
      "outputs": [
        {
          "internalType": "address",
          "name": "",
          "type": "address"
        }
      ],
      "stateMutability": "view",
      "type": "function",
      "constant": true
    },
    {
      "inputs": [],
      "name": "renounceOwnership",
      "outputs": [],
      "stateMutability": "nonpayable",
      "type": "function"
    },
    {
      "inputs": [
        {
          "internalType": "address",
          "name": "from",
          "type": "address"
        },
        {
          "internalType": "address",
          "name": "to",
          "type": "address"
        },
        {
          "internalType": "uint256",
          "name": "tokenId",
          "type": "uint256"
        }
      ],
      "name": "safeTransferFrom",
      "outputs": [],
      "stateMutability": "nonpayable",
      "type": "function"
    },
    {
      "inputs": [
        {
          "internalType": "address",
          "name": "from",
          "type": "address"
        },
        {
          "internalType": "address",
          "name": "to",
          "type": "address"
        },
        {
          "internalType": "uint256",
          "name": "tokenId",
          "type": "uint256"
        },
        {
          "internalType": "bytes",
          "name": "_data",
          "type": "bytes"
        }
      ],
      "name": "safeTransferFrom",
      "outputs": [],
      "stateMutability": "nonpayable",
      "type": "function"
    },
    {
      "inputs": [
        {
          "internalType": "address",
          "name": "operator",
          "type": "address"
        },
        {
          "internalType": "bool",
          "name": "approved",
          "type": "bool"
        }
      ],
      "name": "setApprovalForAll",
      "outputs": [],
      "stateMutability": "nonpayable",
      "type": "function"
    },
    {
      "inputs": [],
      "name": "symbol",
      "outputs": [
        {
          "internalType": "string",
          "name": "",
          "type": "string"
        }
      ],
      "stateMutability": "view",
      "type": "function",
      "constant": true
    },
    {
      "inputs": [
        {
          "internalType": "uint256",
          "name": "index",
          "type": "uint256"
        }
      ],
      "name": "tokenByIndex",
      "outputs": [
        {
          "internalType": "uint256",
          "name": "",
          "type": "uint256"
        }
      ],
      "stateMutability": "view",
      "type": "function",
      "constant": true
    },
    {
      "inputs": [
        {
          "internalType": "address",
          "name": "owner",
          "type": "address"
        },
        {
          "internalType": "uint256",
          "name": "index",
          "type": "uint256"
        }
      ],
      "name": "tokenOfOwnerByIndex",
      "outputs": [
        {
          "internalType": "uint256",
          "name": "",
          "type": "uint256"
        }
      ],
      "stateMutability": "view",
      "type": "function",
      "constant": true
    },
    {
      "inputs": [],
      "name": "totalSupply",
      "outputs": [
        {
          "internalType": "uint256",
          "name": "",
          "type": "uint256"
        }
      ],
      "stateMutability": "view",
      "type": "function",
      "constant": true
    },
    {
      "inputs": [
        {
          "internalType": "address",
          "name": "from",
          "type": "address"
        },
        {
          "internalType": "address",
          "name": "to",
          "type": "address"
        },
        {
          "internalType": "uint256",
          "name": "tokenId",
          "type": "uint256"
        }
      ],
      "name": "transferFrom",
      "outputs": [],
      "stateMutability": "nonpayable",
      "type": "function"
    },
    {
      "inputs": [
        {
          "internalType": "address",
          "name": "newOwner",
          "type": "address"
        }
      ],
      "name": "transferOwnership",
      "outputs": [],
      "stateMutability": "nonpayable",
      "type": "function"
    },
    {
      "stateMutability": "payable",
      "type": "receive",
      "payable": true
    },
    {
      "inputs": [
        {
          "internalType": "address",
          "name": "to",
          "type": "address"
        },
        {
          "internalType": "string",
          "name": "uri",
          "type": "string"
        }
      ],
      "name": "safeMint",
      "outputs": [],
      "stateMutability": "nonpayable",
      "type": "function"
    },
    {
      "inputs": [
        {
          "internalType": "uint256",
          "name": "tokenId",
          "type": "uint256"
        }
      ],
      "name": "tokenURI",
      "outputs": [
        {
          "internalType": "string",
          "name": "",
          "type": "string"
        }
      ],
      "stateMutability": "view",
      "type": "function",
      "constant": true
    },
    {
      "inputs": [
        {
          "internalType": "bytes4",
          "name": "interfaceId",
          "type": "bytes4"
        }
      ],
      "name": "supportsInterface",
      "outputs": [
        {
          "internalType": "bool",
          "name": "",
          "type": "bool"
        }
      ],
      "stateMutability": "view",
      "type": "function",
      "constant": true
    },
    {
      "inputs": [
        {
          "internalType": "string",
          "name": "_name",
          "type": "string"
        },
        {
          "internalType": "uint256",
          "name": "_serial",
          "type": "uint256"
        },
        {
          "internalType": "uint256",
          "name": "_value",
          "type": "uint256"
        },
        {
          "internalType": "string",
          "name": "_uri",
          "type": "string"
        }
      ],
      "name": "addAsset",
      "outputs": [
        {
          "internalType": "bool",
          "name": "",
          "type": "bool"
        }
      ],
      "stateMutability": "nonpayable",
      "type": "function"
    },
    {
      "inputs": [
        {
          "internalType": "uint256",
          "name": "_tokenId",
          "type": "uint256"
        }
      ],
      "name": "buyAsset",
      "outputs": [],
      "stateMutability": "payable",
      "type": "function",
      "payable": true
    },
    {
      "inputs": [
        {
          "internalType": "uint256",
          "name": "_tokenId",
          "type": "uint256"
        }
      ],
      "name": "shipAssetAndApproveOwnershipTransfer",
      "outputs": [],
      "stateMutability": "nonpayable",
      "type": "function"
    },
    {
      "inputs": [
        {
          "internalType": "uint256",
          "name": "_tokenId",
          "type": "uint256"
        }
      ],
      "name": "receiveAsset",
      "outputs": [],
      "stateMutability": "payable",
      "type": "function",
      "payable": true
    },
    {
      "inputs": [
        {
          "internalType": "uint256",
          "name": "_tokenId",
          "type": "uint256"
        },
        {
          "internalType": "uint256",
          "name": "_value",
          "type": "uint256"
        }
      ],
      "name": "changeValueOfAsset",
      "outputs": [],
      "stateMutability": "nonpayable",
      "type": "function"
    },
    {
      "inputs": [
        {
          "internalType": "uint256",
          "name": "_tokenId",
          "type": "uint256"
        }
      ],
      "name": "reportLostOrStolen",
      "outputs": [],
      "stateMutability": "nonpayable",
      "type": "function"
    },
    {
      "inputs": [
        {
          "internalType": "uint256",
          "name": "_tokenId",
          "type": "uint256"
        }
      ],
      "name": "reportFoundAndInPossession",
      "outputs": [],
      "stateMutability": "nonpayable",
      "type": "function"
    },
    {
      "inputs": [
        {
          "internalType": "uint256",
          "name": "_tokenId",
          "type": "uint256"
        }
      ],
      "name": "destroyAsset",
      "outputs": [],
      "stateMutability": "nonpayable",
      "type": "function"
    },
    {
      "inputs": [
        {
          "internalType": "uint256",
          "name": "_tokenId",
          "type": "uint256"
        }
      ],
      "name": "fetchAsset",
      "outputs": [
        {
          "internalType": "uint256",
          "name": "tokenId",
          "type": "uint256"
        },
        {
          "internalType": "string",
          "name": "name",
          "type": "string"
        },
        {
          "internalType": "uint256",
          "name": "serial",
          "type": "uint256"
        },
        {
          "internalType": "uint256",
          "name": "value",
          "type": "uint256"
        },
        {
          "internalType": "address",
          "name": "buyer",
          "type": "address"
        },
        {
          "internalType": "address",
          "name": "_owner",
          "type": "address"
        },
        {
          "internalType": "enum AssetOwnership.State",
          "name": "state",
          "type": "uint8"
        },
        {
          "internalType": "string",
          "name": "uri",
          "type": "string"
        }
      ],
      "stateMutability": "view",
      "type": "function",
      "constant": true
    },
    {
      "inputs": [],
      "name": "totalSupplyOfTokens",
      "outputs": [
        {
          "internalType": "uint256",
          "name": "supply",
          "type": "uint256"
        }
      ],
      "stateMutability": "view",
      "type": "function",
      "constant": true
    }
  ],
  "bytecode": "0x60806040523480156200001157600080fd5b506040518060400160405280600f81526020017f4173736574204f776e65727368697000000000000000000000000000000000008152506040518060400160405280600581526020017f4153534554000000000000000000000000000000000000000000000000000000815250816000908051906020019062000096929190620001b8565b508060019080519060200190620000af929190620001b8565b505050620000e4620000cf620000ea640100000000026401000000009004565b620000f2640100000000026401000000009004565b620002cd565b600033905090565b6000600b60009054906101000a900473ffffffffffffffffffffffffffffffffffffffff16905081600b60006101000a81548173ffffffffffffffffffffffffffffffffffffffff021916908373ffffffffffffffffffffffffffffffffffffffff1602179055508173ffffffffffffffffffffffffffffffffffffffff168173ffffffffffffffffffffffffffffffffffffffff167f8be0079c531659141344cd1fd0a4f28419497f9722a3daafe3b4186f6b6457e060405160405180910390a35050565b828054620001c69062000268565b90600052602060002090601f016020900481019282620001ea576000855562000236565b82601f106200020557805160ff191683800117855562000236565b8280016001018555821562000236579182015b828111156200023557825182559160200191906001019062000218565b5b50905062000245919062000249565b5090565b5b80821115620002645760008160009055506001016200024a565b5090565b600060028204905060018216806200028157607f821691505b602082108114156200029857620002976200029e565b5b50919050565b7f4e487b7100000000000000000000000000000000000000000000000000000000600052602260045260246000fd5b615a9480620002dd6000396000f3fe6080604052600436106101ee576000357c01000000000000000000000000000000000000000000000000000000009004806370a0823111610114578063a22cb465116100b2578063ccc8ad1211610081578063ccc8ad12146106c7578063d204c45e146106e3578063e985e9c51461070c578063f2fde38b14610749576101f5565b8063a22cb4651461060d578063b385bea114610636578063b88d4fde14610661578063c87b56dd1461068a576101f5565b80638da5cb5b116100ee5780638da5cb5b146105655780638da6074a1461059057806395d89b41146105b9578063999d0698146105e4576101f5565b806370a08231146104cd578063715018a61461050a5780637956073b14610521576101f5565b806323b872dd1161018c578063474c15201161015b578063474c1520146104015780634f6ccce71461042a578063624fb4c9146104675780636352211e14610490576101f5565b806323b872dd146103355780632f745c591461035e57806337f8c1791461039b57806342842e0e146103d8576101f5565b8063095ea7b3116101c8578063095ea7b31461029c578063110d35b8146102c557806318160ddd146102e1578063202115871461030c576101f5565b806301ffc9a7146101f757806306fdde0314610234578063081812fc1461025f576101f5565b366101f557005b005b34801561020357600080fd5b5061021e600480360381019061021991906143ab565b610772565b60405161022b919061512f565b60405180910390f35b34801561024057600080fd5b50610249610784565b604051610256919061514a565b60405180910390f35b34801561026b57600080fd5b5061028660048036038101906102819190614490565b610816565b60405161029391906150c8565b60405180910390f35b3480156102a857600080fd5b506102c360048036038101906102be919061436f565b61089b565b005b6102df60048036038101906102da9190614490565b6109b3565b005b3480156102ed57600080fd5b506102f6610ccb565b604051610303919061550c565b60405180910390f35b34801561031857600080fd5b50610333600480360381019061032e9190614490565b610cd8565b005b34801561034157600080fd5b5061035c60048036038101906103579190614215565b610f3e565b005b34801561036a57600080fd5b506103856004803603810190610380919061436f565b610f9e565b604051610392919061550c565b60405180910390f35b3480156103a757600080fd5b506103c260048036038101906103bd91906143fd565b611043565b6040516103cf919061512f565b60405180910390f35b3480156103e457600080fd5b506103ff60048036038101906103fa9190614215565b611292565b005b34801561040d57600080fd5b5061042860048036038101906104239190614490565b6112b2565b005b34801561043657600080fd5b50610451600480360381019061044c9190614490565b6114bd565b60405161045e919061550c565b60405180910390f35b34801561047357600080fd5b5061048e60048036038101906104899190614490565b611554565b005b34801561049c57600080fd5b506104b760048036038101906104b29190614490565b6117fb565b6040516104c491906150c8565b60405180910390f35b3480156104d957600080fd5b506104f460048036038101906104ef91906141b0565b6118ad565b604051610501919061550c565b60405180910390f35b34801561051657600080fd5b5061051f611965565b005b34801561052d57600080fd5b5061054860048036038101906105439190614490565b6119ed565b60405161055c989796959493929190615527565b60405180910390f35b34801561057157600080fd5b5061057a611c75565b60405161058791906150c8565b60405180910390f35b34801561059c57600080fd5b506105b760048036038101906105b291906144b9565b611c9f565b005b3480156105c557600080fd5b506105ce611ebf565b6040516105db919061514a565b60405180910390f35b3480156105f057600080fd5b5061060b60048036038101906106069190614490565b611f51565b005b34801561061957600080fd5b50610634600480360381019061062f91906142df565b6121b8565b005b34801561064257600080fd5b5061064b6121ce565b604051610658919061550c565b60405180910390f35b34801561066d57600080fd5b5061068860048036038101906106839190614264565b6121dd565b005b34801561069657600080fd5b506106b160048036038101906106ac9190614490565b61223f565b6040516106be919061514a565b60405180910390f35b6106e160048036038101906106dc9190614490565b612251565b005b3480156106ef57600080fd5b5061070a6004803603810190610705919061431b565b61266d565b005b34801561071857600080fd5b50610733600480360381019061072e91906141d9565b61269e565b604051610740919061512f565b60405180910390f35b34801561075557600080fd5b50610770600480360381019061076b91906141b0565b612732565b005b600061077d8261282a565b9050919050565b60606000805461079390615846565b80601f01602080910402602001604051908101604052809291908181526020018280546107bf90615846565b801561080c5780601f106107e15761010080835404028352916020019161080c565b820191906000526020600020905b8154815290600101906020018083116107ef57829003601f168201915b5050505050905090565b6000610821826128a4565b610860576040517f08c379a00000000000000000000000000000000000000000000000000000000081526004016108579061538c565b60405180910390fd5b6004600083815260200190815260200160002060009054906101000a900473ffffffffffffffffffffffffffffffffffffffff169050919050565b60006108a6826117fb565b90508073ffffffffffffffffffffffffffffffffffffffff168373ffffffffffffffffffffffffffffffffffffffff161415610917576040517f08c379a000000000000000000000000000000000000000000000000000000000815260040161090e9061544c565b60405180910390fd5b8073ffffffffffffffffffffffffffffffffffffffff16610936612910565b73ffffffffffffffffffffffffffffffffffffffff16148061096557506109648161095f612910565b61269e565b5b6109a4576040517f08c379a000000000000000000000000000000000000000000000000000000000815260040161099b906152cc565b60405180910390fd5b6109ae8383612918565b505050565b80600060038111156109ee577f4e487b7100000000000000000000000000000000000000000000000000000000600052602160045260246000fd5b600d600083815260200190815260200160002060050160149054906101000a900460ff166003811115610a4a577f4e487b7100000000000000000000000000000000000000000000000000000000600052602160045260246000fd5b14610a8a576040517f08c379a0000000000000000000000000000000000000000000000000000000008152600401610a819061520c565b60405180910390fd5b600d600083815260200190815260200160002060050160009054906101000a900473ffffffffffffffffffffffffffffffffffffffff168073ffffffffffffffffffffffffffffffffffffffff163373ffffffffffffffffffffffffffffffffffffffff161415610b30576040517f08c379a0000000000000000000000000000000000000000000000000000000008152600401610b279061546c565b60405180910390fd5b82610b3a816128a4565b610b79576040517f08c379a0000000000000000000000000000000000000000000000000000000008152600401610b70906152ac565b60405180910390fd5b600d60008581526020019081526020016000206003015480341015610bd3576040517f08c379a0000000000000000000000000000000000000000000000000000000008152600401610bca9061522c565b60405180910390fd5b33600d600087815260200190815260200160002060040160006101000a81548173ffffffffffffffffffffffffffffffffffffffff021916908373ffffffffffffffffffffffffffffffffffffffff1602179055506001600d600087815260200190815260200160002060050160146101000a81548160ff02191690836003811115610c88577f4e487b7100000000000000000000000000000000000000000000000000000000600052602160045260246000fd5b02179055507fd4b1a462442457e8f0670eceba835119a30a4c054d9982617639bc6a5ab5682a85604051610cbc919061550c565b60405180910390a15050505050565b6000600880549050905090565b600d600082815260200190815260200160002060050160009054906101000a900473ffffffffffffffffffffffffffffffffffffffff168073ffffffffffffffffffffffffffffffffffffffff163373ffffffffffffffffffffffffffffffffffffffff1614610d7d576040517f08c379a0000000000000000000000000000000000000000000000000000000008152600401610d749061516c565b60405180910390fd5b81600380811115610db7577f4e487b7100000000000000000000000000000000000000000000000000000000600052602160045260246000fd5b600d600083815260200190815260200160002060050160149054906101000a900460ff166003811115610e13577f4e487b7100000000000000000000000000000000000000000000000000000000600052602160045260246000fd5b14610e53576040517f08c379a0000000000000000000000000000000000000000000000000000000008152600401610e4a906154cc565b60405180910390fd5b82610e5d816128a4565b610e9c576040517f08c379a0000000000000000000000000000000000000000000000000000000008152600401610e93906152ac565b60405180910390fd5b6000600d600086815260200190815260200160002060050160146101000a81548160ff02191690836003811115610efc577f4e487b7100000000000000000000000000000000000000000000000000000000600052602160045260246000fd5b02179055507f093aa5641a6cd9311446f9c310c8be7ddd06c576fdbe8ec65122183c61d2582684604051610f30919061550c565b60405180910390a150505050565b610f4f610f49612910565b826129d1565b610f8e576040517f08c379a0000000000000000000000000000000000000000000000000000000008152600401610f859061548c565b60405180910390fd5b610f99838383612aaf565b505050565b6000610fa9836118ad565b8210610fea576040517f08c379a0000000000000000000000000000000000000000000000000000000008152600401610fe19061518c565b60405180910390fd5b600660008473ffffffffffffffffffffffffffffffffffffffff1673ffffffffffffffffffffffffffffffffffffffff168152602001908152602001600020600083815260200190815260200160002054905092915050565b600080611050600c612d0b565b9050604051806101000160405280828152602001878152602001868152602001858152602001600073ffffffffffffffffffffffffffffffffffffffff1681526020013373ffffffffffffffffffffffffffffffffffffffff168152602001600060038111156110e9577f4e487b7100000000000000000000000000000000000000000000000000000000600052602160045260246000fd5b815260200184815250600d600083815260200190815260200160002060008201518160000155602082015181600101908051906020019061112b929190613f94565b50604082015181600201556060820151816003015560808201518160040160006101000a81548173ffffffffffffffffffffffffffffffffffffffff021916908373ffffffffffffffffffffffffffffffffffffffff16021790555060a08201518160050160006101000a81548173ffffffffffffffffffffffffffffffffffffffff021916908373ffffffffffffffffffffffffffffffffffffffff16021790555060c08201518160050160146101000a81548160ff0219169083600381111561121f577f4e487b7100000000000000000000000000000000000000000000000000000000600052602160045260246000fd5b021790555060e0820151816006019080519060200190611240929190613f94565b5090505061124e338461266d565b7f093aa5641a6cd9311446f9c310c8be7ddd06c576fdbe8ec65122183c61d258268160405161127d919061550c565b60405180910390a16001915050949350505050565b6112ad838383604051806020016040528060008152506121dd565b505050565b600d600082815260200190815260200160002060050160009054906101000a900473ffffffffffffffffffffffffffffffffffffffff168073ffffffffffffffffffffffffffffffffffffffff163373ffffffffffffffffffffffffffffffffffffffff1614611357576040517f08c379a000000000000000000000000000000000000000000000000000000000815260040161134e9061516c565b60405180910390fd5b8160006003811115611392577f4e487b7100000000000000000000000000000000000000000000000000000000600052602160045260246000fd5b600d600083815260200190815260200160002060050160149054906101000a900460ff1660038111156113ee577f4e487b7100000000000000000000000000000000000000000000000000000000600052602160045260246000fd5b1461142e576040517f08c379a00000000000000000000000000000000000000000000000000000000081526004016114259061520c565b60405180910390fd5b82611438816128a4565b611477576040517f08c379a000000000000000000000000000000000000000000000000000000000815260040161146e906152ac565b60405180910390fd5b61148084612d19565b7f5b26169f8a09a82388a380e50ae25febdebf7a25930bed9d2d4c40997aa2bff5846040516114af919061550c565b60405180910390a150505050565b60006114c7610ccb565b8210611508576040517f08c379a00000000000000000000000000000000000000000000000000000000081526004016114ff906154ac565b60405180910390fd5b60088281548110611542577f4e487b7100000000000000000000000000000000000000000000000000000000600052603260045260246000fd5b90600052602060002001549050919050565b806001600381111561158f577f4e487b7100000000000000000000000000000000000000000000000000000000600052602160045260246000fd5b600d600083815260200190815260200160002060050160149054906101000a900460ff1660038111156115eb577f4e487b7100000000000000000000000000000000000000000000000000000000600052602160045260246000fd5b1461162b576040517f08c379a0000000000000000000000000000000000000000000000000000000008152600401611622906153cc565b60405180910390fd5b600d600083815260200190815260200160002060050160009054906101000a900473ffffffffffffffffffffffffffffffffffffffff168073ffffffffffffffffffffffffffffffffffffffff163373ffffffffffffffffffffffffffffffffffffffff16146116d0576040517f08c379a00000000000000000000000000000000000000000000000000000000081526004016116c79061516c565b60405180910390fd5b826116da816128a4565b611719576040517f08c379a0000000000000000000000000000000000000000000000000000000008152600401611710906152ac565b60405180910390fd5b611759600d600086815260200190815260200160002060040160009054906101000a900473ffffffffffffffffffffffffffffffffffffffff1685612918565b6002600d600086815260200190815260200160002060050160146101000a81548160ff021916908360038111156117b9577f4e487b7100000000000000000000000000000000000000000000000000000000600052602160045260246000fd5b02179055507feaf695929fec8154f0eafe7248c0e16855eb9ad09e623be92f669e544d53e856846040516117ed919061550c565b60405180910390a150505050565b6000806002600084815260200190815260200160002060009054906101000a900473ffffffffffffffffffffffffffffffffffffffff169050600073ffffffffffffffffffffffffffffffffffffffff168173ffffffffffffffffffffffffffffffffffffffff1614156118a4576040517f08c379a000000000000000000000000000000000000000000000000000000000815260040161189b9061530c565b60405180910390fd5b80915050919050565b60008073ffffffffffffffffffffffffffffffffffffffff168273ffffffffffffffffffffffffffffffffffffffff16141561191e576040517f08c379a0000000000000000000000000000000000000000000000000000000008152600401611915906152ec565b60405180910390fd5b600360008373ffffffffffffffffffffffffffffffffffffffff1673ffffffffffffffffffffffffffffffffffffffff168152602001908152602001600020549050919050565b61196d612910565b73ffffffffffffffffffffffffffffffffffffffff1661198b611c75565b73ffffffffffffffffffffffffffffffffffffffff16146119e1576040517f08c379a00000000000000000000000000000000000000000000000000000000081526004016119d8906153ec565b60405180910390fd5b6119eb6000612d25565b565b600060606000806000806000606088611a05816128a4565b611a44576040517f08c379a0000000000000000000000000000000000000000000000000000000008152600401611a3b906152ac565b60405180910390fd5b600d60008b8152602001908152602001600020600001549850600d60008b81526020019081526020016000206001018054611a7e90615846565b80601f0160208091040260200160405190810160405280929190818152602001828054611aaa90615846565b8015611af75780601f10611acc57610100808354040283529160200191611af7565b820191906000526020600020905b815481529060010190602001808311611ada57829003601f168201915b50505050509750600d60008b8152602001908152602001600020600201549650600d60008b8152602001908152602001600020600301549550600d60008b815260200190815260200160002060040160009054906101000a900473ffffffffffffffffffffffffffffffffffffffff169450600d60008b815260200190815260200160002060050160009054906101000a900473ffffffffffffffffffffffffffffffffffffffff169350600d60008b815260200190815260200160002060050160149054906101000a900460ff169250600d60008b81526020019081526020016000206006018054611be990615846565b80601f0160208091040260200160405190810160405280929190818152602001828054611c1590615846565b8015611c625780601f10611c3757610100808354040283529160200191611c62565b820191906000526020600020905b815481529060010190602001808311611c4557829003601f168201915b5050505050915050919395975091939597565b6000600b60009054906101000a900473ffffffffffffffffffffffffffffffffffffffff16905090565b600d600083815260200190815260200160002060050160009054906101000a900473ffffffffffffffffffffffffffffffffffffffff168073ffffffffffffffffffffffffffffffffffffffff163373ffffffffffffffffffffffffffffffffffffffff1614611d44576040517f08c379a0000000000000000000000000000000000000000000000000000000008152600401611d3b9061516c565b60405180910390fd5b8260006003811115611d7f577f4e487b7100000000000000000000000000000000000000000000000000000000600052602160045260246000fd5b600d600083815260200190815260200160002060050160149054906101000a900460ff166003811115611ddb577f4e487b7100000000000000000000000000000000000000000000000000000000600052602160045260246000fd5b14611e1b576040517f08c379a0000000000000000000000000000000000000000000000000000000008152600401611e129061520c565b60405180910390fd5b83611e25816128a4565b611e64576040517f08c379a0000000000000000000000000000000000000000000000000000000008152600401611e5b906152ac565b60405180910390fd5b83600d6000878152602001908152602001600020600301819055507f4976485b2f48f09df07ae290110ea4f5337927c6e906f45113aa7103dbb7b8168585604051611eb09291906155b3565b60405180910390a15050505050565b606060018054611ece90615846565b80601f0160208091040260200160405190810160405280929190818152602001828054611efa90615846565b8015611f475780601f10611f1c57610100808354040283529160200191611f47565b820191906000526020600020905b815481529060010190602001808311611f2a57829003601f168201915b5050505050905090565b600d600082815260200190815260200160002060050160009054906101000a900473ffffffffffffffffffffffffffffffffffffffff168073ffffffffffffffffffffffffffffffffffffffff163373ffffffffffffffffffffffffffffffffffffffff1614611ff6576040517f08c379a0000000000000000000000000000000000000000000000000000000008152600401611fed9061516c565b60405180910390fd5b8160006003811115612031577f4e487b7100000000000000000000000000000000000000000000000000000000600052602160045260246000fd5b600d600083815260200190815260200160002060050160149054906101000a900460ff16600381111561208d577f4e487b7100000000000000000000000000000000000000000000000000000000600052602160045260246000fd5b146120cd576040517f08c379a00000000000000000000000000000000000000000000000000000000081526004016120c49061520c565b60405180910390fd5b826120d7816128a4565b612116576040517f08c379a000000000000000000000000000000000000000000000000000000000815260040161210d906152ac565b60405180910390fd5b6003600d600086815260200190815260200160002060050160146101000a81548160ff02191690836003811115612176577f4e487b7100000000000000000000000000000000000000000000000000000000600052602160045260246000fd5b02179055507f17f25fb4ca769af8193da43a90b66526915e8d63e8ea591300c9257e30826073846040516121aa919061550c565b60405180910390a150505050565b6121ca6121c3612910565b8383612deb565b5050565b60006121d8610ccb565b905090565b6121ee6121e8612910565b836129d1565b61222d576040517f08c379a00000000000000000000000000000000000000000000000000000000081526004016122249061548c565b60405180910390fd5b61223984848484612f58565b50505050565b606061224a82612fb4565b9050919050565b600d600082815260200190815260200160002060040160009054906101000a900473ffffffffffffffffffffffffffffffffffffffff168073ffffffffffffffffffffffffffffffffffffffff163373ffffffffffffffffffffffffffffffffffffffff16146122f6576040517f08c379a00000000000000000000000000000000000000000000000000000000081526004016122ed906154ec565b60405180910390fd5b8160026003811115612331577f4e487b7100000000000000000000000000000000000000000000000000000000600052602160045260246000fd5b600d600083815260200190815260200160002060050160149054906101000a900460ff16600381111561238d577f4e487b7100000000000000000000000000000000000000000000000000000000600052602160045260246000fd5b146123cd576040517f08c379a00000000000000000000000000000000000000000000000000000000081526004016123c4906153ac565b60405180910390fd5b826123d7816128a4565b612416576040517f08c379a000000000000000000000000000000000000000000000000000000000815260040161240d906152ac565b60405180910390fd5b61248d600d600086815260200190815260200160002060050160009054906101000a900473ffffffffffffffffffffffffffffffffffffffff16600d600087815260200190815260200160002060040160009054906101000a900473ffffffffffffffffffffffffffffffffffffffff1686611292565b600d600085815260200190815260200160002060050160009054906101000a900473ffffffffffffffffffffffffffffffffffffffff1673ffffffffffffffffffffffffffffffffffffffff166108fc600d6000878152602001908152602001600020600301549081150290604051600060405180830381858888f1935050505015801561251f573d6000803e3d6000fd5b5033600d600086815260200190815260200160002060050160006101000a81548173ffffffffffffffffffffffffffffffffffffffff021916908373ffffffffffffffffffffffffffffffffffffffff1602179055506000600d600086815260200190815260200160002060040160006101000a81548173ffffffffffffffffffffffffffffffffffffffff021916908373ffffffffffffffffffffffffffffffffffffffff1602179055506000600d600086815260200190815260200160002060050160146101000a81548160ff0219169083600381111561262b577f4e487b7100000000000000000000000000000000000000000000000000000000600052602160045260246000fd5b02179055507f093aa5641a6cd9311446f9c310c8be7ddd06c576fdbe8ec65122183c61d258268460405161265f919061550c565b60405180910390a150505050565b6000612679600c612d0b565b9050612685600c613106565b61268f838261311c565b612699818361313a565b505050565b6000600560008473ffffffffffffffffffffffffffffffffffffffff1673ffffffffffffffffffffffffffffffffffffffff16815260200190815260200160002060008373ffffffffffffffffffffffffffffffffffffffff1673ffffffffffffffffffffffffffffffffffffffff16815260200190815260200160002060009054906101000a900460ff16905092915050565b61273a612910565b73ffffffffffffffffffffffffffffffffffffffff16612758611c75565b73ffffffffffffffffffffffffffffffffffffffff16146127ae576040517f08c379a00000000000000000000000000000000000000000000000000000000081526004016127a5906153ec565b60405180910390fd5b600073ffffffffffffffffffffffffffffffffffffffff168173ffffffffffffffffffffffffffffffffffffffff16141561281e576040517f08c379a0000000000000000000000000000000000000000000000000000000008152600401612815906151cc565b60405180910390fd5b61282781612d25565b50565b60007f780e9d63000000000000000000000000000000000000000000000000000000007bffffffffffffffffffffffffffffffffffffffffffffffffffffffff1916827bffffffffffffffffffffffffffffffffffffffffffffffffffffffff1916148061289d575061289c826131ae565b5b9050919050565b60008073ffffffffffffffffffffffffffffffffffffffff166002600084815260200190815260200160002060009054906101000a900473ffffffffffffffffffffffffffffffffffffffff1673ffffffffffffffffffffffffffffffffffffffff1614159050919050565b600033905090565b816004600083815260200190815260200160002060006101000a81548173ffffffffffffffffffffffffffffffffffffffff021916908373ffffffffffffffffffffffffffffffffffffffff160217905550808273ffffffffffffffffffffffffffffffffffffffff1661298b836117fb565b73ffffffffffffffffffffffffffffffffffffffff167f8c5be1e5ebec7d5bd14f71427d1e84f3dd0314c0f7b2291e5b200ac8c7c3b92560405160405180910390a45050565b60006129dc826128a4565b612a1b576040517f08c379a0000000000000000000000000000000000000000000000000000000008152600401612a129061528c565b60405180910390fd5b6000612a26836117fb565b90508073ffffffffffffffffffffffffffffffffffffffff168473ffffffffffffffffffffffffffffffffffffffff161480612a9557508373ffffffffffffffffffffffffffffffffffffffff16612a7d84610816565b73ffffffffffffffffffffffffffffffffffffffff16145b80612aa65750612aa5818561269e565b5b91505092915050565b8273ffffffffffffffffffffffffffffffffffffffff16612acf826117fb565b73ffffffffffffffffffffffffffffffffffffffff1614612b25576040517f08c379a0000000000000000000000000000000000000000000000000000000008152600401612b1c9061540c565b60405180910390fd5b600073ffffffffffffffffffffffffffffffffffffffff168273ffffffffffffffffffffffffffffffffffffffff161415612b95576040517f08c379a0000000000000000000000000000000000000000000000000000000008152600401612b8c9061524c565b60405180910390fd5b612ba0838383613290565b612bab600082612918565b6001600360008573ffffffffffffffffffffffffffffffffffffffff1673ffffffffffffffffffffffffffffffffffffffff1681526020019081526020016000206000828254612bfb9190615737565b925050819055506001600360008473ffffffffffffffffffffffffffffffffffffffff1673ffffffffffffffffffffffffffffffffffffffff1681526020019081526020016000206000828254612c5291906156b0565b92505081905550816002600083815260200190815260200160002060006101000a81548173ffffffffffffffffffffffffffffffffffffffff021916908373ffffffffffffffffffffffffffffffffffffffff160217905550808273ffffffffffffffffffffffffffffffffffffffff168473ffffffffffffffffffffffffffffffffffffffff167fddf252ad1be2c89b69c2b068fc378daa952ba7f163c4a11628f55a4df523b3ef60405160405180910390a4505050565b600081600001549050919050565b612d22816132a0565b50565b6000600b60009054906101000a900473ffffffffffffffffffffffffffffffffffffffff16905081600b60006101000a81548173ffffffffffffffffffffffffffffffffffffffff021916908373ffffffffffffffffffffffffffffffffffffffff1602179055508173ffffffffffffffffffffffffffffffffffffffff168173ffffffffffffffffffffffffffffffffffffffff167f8be0079c531659141344cd1fd0a4f28419497f9722a3daafe3b4186f6b6457e060405160405180910390a35050565b8173ffffffffffffffffffffffffffffffffffffffff168373ffffffffffffffffffffffffffffffffffffffff161415612e5a576040517f08c379a0000000000000000000000000000000000000000000000000000000008152600401612e519061526c565b60405180910390fd5b80600560008573ffffffffffffffffffffffffffffffffffffffff1673ffffffffffffffffffffffffffffffffffffffff16815260200190815260200160002060008473ffffffffffffffffffffffffffffffffffffffff1673ffffffffffffffffffffffffffffffffffffffff16815260200190815260200160002060006101000a81548160ff0219169083151502179055508173ffffffffffffffffffffffffffffffffffffffff168373ffffffffffffffffffffffffffffffffffffffff167f17307eab39ab6107e8899845ad3d59bd9653f200f220920489ca2b5937696c3183604051612f4b919061512f565b60405180910390a3505050565b612f63848484612aaf565b612f6f848484846132f3565b612fae576040517f08c379a0000000000000000000000000000000000000000000000000000000008152600401612fa5906151ac565b60405180910390fd5b50505050565b6060612fbf826128a4565b612ffe576040517f08c379a0000000000000000000000000000000000000000000000000000000008152600401612ff59061536c565b60405180910390fd5b6000600a6000848152602001908152602001600020805461301e90615846565b80601f016020809104026020016040519081016040528092919081815260200182805461304a90615846565b80156130975780601f1061306c57610100808354040283529160200191613097565b820191906000526020600020905b81548152906001019060200180831161307a57829003601f168201915b5050505050905060006130a86134c2565b90506000815114156130be578192505050613101565b6000825111156130f35780826040516020016130db9291906150a4565b60405160208183030381529060405292505050613101565b6130fc846134d9565b925050505b919050565b6001816000016000828254019250508190555050565b613136828260405180602001604052806000815250613580565b5050565b613143826128a4565b613182576040517f08c379a00000000000000000000000000000000000000000000000000000000081526004016131799061532c565b60405180910390fd5b80600a600084815260200190815260200160002090805190602001906131a9929190613f94565b505050565b60007f80ac58cd000000000000000000000000000000000000000000000000000000007bffffffffffffffffffffffffffffffffffffffffffffffffffffffff1916827bffffffffffffffffffffffffffffffffffffffffffffffffffffffff1916148061327957507f5b5e139f000000000000000000000000000000000000000000000000000000007bffffffffffffffffffffffffffffffffffffffffffffffffffffffff1916827bffffffffffffffffffffffffffffffffffffffffffffffffffffffff1916145b806132895750613288826135db565b5b9050919050565b61329b838383613645565b505050565b6132a981613759565b6000600a600083815260200190815260200160002080546132c990615846565b9050146132f057600a600082815260200190815260200160002060006132ef919061401a565b5b50565b60006133148473ffffffffffffffffffffffffffffffffffffffff1661386a565b156134b5578373ffffffffffffffffffffffffffffffffffffffff1663150b7a0261333d612910565b8786866040518563ffffffff167c010000000000000000000000000000000000000000000000000000000002815260040161337b94939291906150e3565b602060405180830381600087803b15801561339557600080fd5b505af19250505080156133c657506040513d601f19601f820116820180604052508101906133c391906143d4565b60015b613449573d80600081146133f6576040519150601f19603f3d011682016040523d82523d6000602084013e6133fb565b606091505b50600081511415613441576040517f08c379a0000000000000000000000000000000000000000000000000000000008152600401613438906151ac565b60405180910390fd5b805181602001fd5b63150b7a027c0100000000000000000000000000000000000000000000000000000000027bffffffffffffffffffffffffffffffffffffffffffffffffffffffff1916817bffffffffffffffffffffffffffffffffffffffffffffffffffffffff1916149150506134ba565b600190505b949350505050565b606060405180602001604052806000815250905090565b60606134e4826128a4565b613523576040517f08c379a000000000000000000000000000000000000000000000000000000000815260040161351a9061542c565b60405180910390fd5b600061352d6134c2565b9050600081511161354d5760405180602001604052806000815250613578565b806135578461387d565b6040516020016135689291906150a4565b6040516020818303038152906040525b915050919050565b61358a8383613a49565b61359760008484846132f3565b6135d6576040517f08c379a00000000000000000000000000000000000000000000000000000000081526004016135cd906151ac565b60405180910390fd5b505050565b60007f01ffc9a7000000000000000000000000000000000000000000000000000000007bffffffffffffffffffffffffffffffffffffffffffffffffffffffff1916827bffffffffffffffffffffffffffffffffffffffffffffffffffffffff1916149050919050565b613650838383613c17565b600073ffffffffffffffffffffffffffffffffffffffff168373ffffffffffffffffffffffffffffffffffffffff1614156136935761368e81613c1c565b6136d2565b8173ffffffffffffffffffffffffffffffffffffffff168373ffffffffffffffffffffffffffffffffffffffff16146136d1576136d08382613c65565b5b5b600073ffffffffffffffffffffffffffffffffffffffff168273ffffffffffffffffffffffffffffffffffffffff1614156137155761371081613dd2565b613754565b8273ffffffffffffffffffffffffffffffffffffffff168273ffffffffffffffffffffffffffffffffffffffff1614613753576137528282613f15565b5b5b505050565b6000613764826117fb565b905061377281600084613290565b61377d600083612918565b6001600360008373ffffffffffffffffffffffffffffffffffffffff1673ffffffffffffffffffffffffffffffffffffffff16815260200190815260200160002060008282546137cd9190615737565b925050819055506002600083815260200190815260200160002060006101000a81549073ffffffffffffffffffffffffffffffffffffffff021916905581600073ffffffffffffffffffffffffffffffffffffffff168273ffffffffffffffffffffffffffffffffffffffff167fddf252ad1be2c89b69c2b068fc378daa952ba7f163c4a11628f55a4df523b3ef60405160405180910390a45050565b600080823b905060008111915050919050565b606060008214156138c5576040518060400160405280600181526020017f30000000000000000000000000000000000000000000000000000000000000008152509050613a44565b600082905060005b600082146138f75780806138e090615878565b915050600a826138f09190615706565b91506138cd565b60008167ffffffffffffffff811115613939577f4e487b7100000000000000000000000000000000000000000000000000000000600052604160045260246000fd5b6040519080825280601f01601f19166020018201604052801561396b5781602001600182028036833780820191505090505b5090505b60008514613a3d576001826139849190615737565b9150600a8561399391906158c1565b603061399f91906156b0565b7f0100000000000000000000000000000000000000000000000000000000000000028183815181106139fa577f4e487b7100000000000000000000000000000000000000000000000000000000600052603260045260246000fd5b60200101907effffffffffffffffffffffffffffffffffffffffffffffffffffffffffffff1916908160001a905350600a85613a369190615706565b945061396f565b8093505050505b919050565b600073ffffffffffffffffffffffffffffffffffffffff168273ffffffffffffffffffffffffffffffffffffffff161415613ab9576040517f08c379a0000000000000000000000000000000000000000000000000000000008152600401613ab09061534c565b60405180910390fd5b613ac2816128a4565b15613b02576040517f08c379a0000000000000000000000000000000000000000000000000000000008152600401613af9906151ec565b60405180910390fd5b613b0e60008383613290565b6001600360008473ffffffffffffffffffffffffffffffffffffffff1673ffffffffffffffffffffffffffffffffffffffff1681526020019081526020016000206000828254613b5e91906156b0565b92505081905550816002600083815260200190815260200160002060006101000a81548173ffffffffffffffffffffffffffffffffffffffff021916908373ffffffffffffffffffffffffffffffffffffffff160217905550808273ffffffffffffffffffffffffffffffffffffffff16600073ffffffffffffffffffffffffffffffffffffffff167fddf252ad1be2c89b69c2b068fc378daa952ba7f163c4a11628f55a4df523b3ef60405160405180910390a45050565b505050565b6008805490506009600083815260200190815260200160002081905550600881908060018154018082558091505060019003906000526020600020016000909190919091505550565b60006001613c72846118ad565b613c7c9190615737565b9050600060076000848152602001908152602001600020549050818114613d61576000600660008673ffffffffffffffffffffffffffffffffffffffff1673ffffffffffffffffffffffffffffffffffffffff168152602001908152602001600020600084815260200190815260200160002054905080600660008773ffffffffffffffffffffffffffffffffffffffff1673ffffffffffffffffffffffffffffffffffffffff168152602001908152602001600020600084815260200190815260200160002081905550816007600083815260200190815260200160002081905550505b6007600084815260200190815260200160002060009055600660008573ffffffffffffffffffffffffffffffffffffffff1673ffffffffffffffffffffffffffffffffffffffff16815260200190815260200160002060008381526020019081526020016000206000905550505050565b60006001600880549050613de69190615737565b9050600060096000848152602001908152602001600020549050600060088381548110613e3c577f4e487b7100000000000000000000000000000000000000000000000000000000600052603260045260246000fd5b906000526020600020015490508060088381548110613e84577f4e487b7100000000000000000000000000000000000000000000000000000000600052603260045260246000fd5b906000526020600020018190555081600960008381526020019081526020016000208190555060096000858152602001908152602001600020600090556008805480613ef9577f4e487b7100000000000000000000000000000000000000000000000000000000600052603160045260246000fd5b6001900381819060005260206000200160009055905550505050565b6000613f20836118ad565b905081600660008573ffffffffffffffffffffffffffffffffffffffff1673ffffffffffffffffffffffffffffffffffffffff168152602001908152602001600020600083815260200190815260200160002081905550806007600084815260200190815260200160002081905550505050565b828054613fa090615846565b90600052602060002090601f016020900481019282613fc25760008555614009565b82601f10613fdb57805160ff1916838001178555614009565b82800160010185558215614009579182015b82811115614008578251825591602001919060010190613fed565b5b509050614016919061405a565b5090565b50805461402690615846565b6000825580601f106140385750614057565b601f016020900490600052602060002090810190614056919061405a565b5b50565b5b8082111561407357600081600090555060010161405b565b5090565b600061408a6140858461560d565b6155dc565b9050828152602081018484840111156140a257600080fd5b6140ad848285615804565b509392505050565b60006140c86140c38461563d565b6155dc565b9050828152602081018484840111156140e057600080fd5b6140eb848285615804565b509392505050565b60008135905061410281615a02565b92915050565b60008135905061411781615a19565b92915050565b60008135905061412c81615a30565b92915050565b60008151905061414181615a30565b92915050565b600082601f83011261415857600080fd5b8135614168848260208601614077565b91505092915050565b600082601f83011261418257600080fd5b81356141928482602086016140b5565b91505092915050565b6000813590506141aa81615a47565b92915050565b6000602082840312156141c257600080fd5b60006141d0848285016140f3565b91505092915050565b600080604083850312156141ec57600080fd5b60006141fa858286016140f3565b925050602061420b858286016140f3565b9150509250929050565b60008060006060848603121561422a57600080fd5b6000614238868287016140f3565b9350506020614249868287016140f3565b925050604061425a8682870161419b565b9150509250925092565b6000806000806080858703121561427a57600080fd5b6000614288878288016140f3565b9450506020614299878288016140f3565b93505060406142aa8782880161419b565b925050606085013567ffffffffffffffff8111156142c757600080fd5b6142d387828801614147565b91505092959194509250565b600080604083850312156142f257600080fd5b6000614300858286016140f3565b925050602061431185828601614108565b9150509250929050565b6000806040838503121561432e57600080fd5b600061433c858286016140f3565b925050602083013567ffffffffffffffff81111561435957600080fd5b61436585828601614171565b9150509250929050565b6000806040838503121561438257600080fd5b6000614390858286016140f3565b92505060206143a18582860161419b565b9150509250929050565b6000602082840312156143bd57600080fd5b60006143cb8482850161411d565b91505092915050565b6000602082840312156143e657600080fd5b60006143f484828501614132565b91505092915050565b6000806000806080858703121561441357600080fd5b600085013567ffffffffffffffff81111561442d57600080fd5b61443987828801614171565b945050602061444a8782880161419b565b935050604061445b8782880161419b565b925050606085013567ffffffffffffffff81111561447857600080fd5b61448487828801614171565b91505092959194509250565b6000602082840312156144a257600080fd5b60006144b08482850161419b565b91505092915050565b600080604083850312156144cc57600080fd5b60006144da8582860161419b565b92505060206144eb8582860161419b565b9150509250929050565b6144fe8161576b565b82525050565b61450d8161577d565b82525050565b600061451e8261566d565b6145288185615683565b9350614538818560208601615813565b614541816159dd565b840191505092915050565b614555816157f2565b82525050565b600061456682615678565b6145708185615694565b9350614580818560208601615813565b614589816159dd565b840191505092915050565b600061459f82615678565b6145a981856156a5565b93506145b9818560208601615813565b80840191505092915050565b60006145d2602383615694565b91507f596f7520617265206e6f7420746865206f776e6572206f66207468697320617360008301527f73657400000000000000000000000000000000000000000000000000000000006020830152604082019050919050565b6000614638602b83615694565b91507f455243373231456e756d657261626c653a206f776e657220696e646578206f7560008301527f74206f6620626f756e64730000000000000000000000000000000000000000006020830152604082019050919050565b600061469e603283615694565b91507f4552433732313a207472616e7366657220746f206e6f6e20455243373231526560008301527f63656976657220696d706c656d656e74657200000000000000000000000000006020830152604082019050919050565b6000614704602683615694565b91507f4f776e61626c653a206e6577206f776e657220697320746865207a65726f206160008301527f64647265737300000000000000000000000000000000000000000000000000006020830152604082019050919050565b600061476a601c83615694565b91507f4552433732313a20746f6b656e20616c7265616479206d696e746564000000006000830152602082019050919050565b60006147aa602583615694565b91507f546865206173736574206973206e6f742063757272656e746c79206265696e6760008301527f20736f6c640000000000000000000000000000000000000000000000000000006020830152604082019050919050565b6000614810601b83615694565b91507f596f75206861766520696e73756666696369656e742066756e647300000000006000830152602082019050919050565b6000614850602483615694565b91507f4552433732313a207472616e7366657220746f20746865207a65726f2061646460008301527f72657373000000000000000000000000000000000000000000000000000000006020830152604082019050919050565b60006148b6601983615694565b91507f4552433732313a20617070726f766520746f2063616c6c6572000000000000006000830152602082019050919050565b60006148f6602c83615694565b91507f4552433732313a206f70657261746f7220717565727920666f72206e6f6e657860008301527f697374656e7420746f6b656e00000000000000000000000000000000000000006020830152604082019050919050565b600061495c601983615694565b91507f5468697320746f6b656e20646f6573206e6f74206578697374000000000000006000830152602082019050919050565b600061499c603883615694565b91507f4552433732313a20617070726f76652063616c6c6572206973206e6f74206f7760008301527f6e6572206e6f7220617070726f76656420666f7220616c6c00000000000000006020830152604082019050919050565b6000614a02602a83615694565b91507f4552433732313a2062616c616e636520717565727920666f7220746865207a6560008301527f726f2061646472657373000000000000000000000000000000000000000000006020830152604082019050919050565b6000614a68602983615694565b91507f4552433732313a206f776e657220717565727920666f72206e6f6e657869737460008301527f656e7420746f6b656e00000000000000000000000000000000000000000000006020830152604082019050919050565b6000614ace602e83615694565b91507f45524337323155524953746f726167653a2055524920736574206f66206e6f6e60008301527f6578697374656e7420746f6b656e0000000000000000000000000000000000006020830152604082019050919050565b6000614b34602083615694565b91507f4552433732313a206d696e7420746f20746865207a65726f20616464726573736000830152602082019050919050565b6000614b74603183615694565b91507f45524337323155524953746f726167653a2055524920717565727920666f722060008301527f6e6f6e6578697374656e7420746f6b656e0000000000000000000000000000006020830152604082019050919050565b6000614bda602c83615694565b91507f4552433732313a20617070726f76656420717565727920666f72206e6f6e657860008301527f697374656e7420746f6b656e00000000000000000000000000000000000000006020830152604082019050919050565b6000614c40604383615694565b91507f5468697320617373657420686173206e6f74206265656e20736869707065642060008301527f6f7220617070726f76656420666f72206f776e657273686970207472616e736660208301527f65722e00000000000000000000000000000000000000000000000000000000006040830152606082019050919050565b6000614ccc602383615694565b91507f4f776e65727368697020686173206e6f74206265656e207472616e736665727260008301527f65642e00000000000000000000000000000000000000000000000000000000006020830152604082019050919050565b6000614d32602083615694565b91507f4f776e61626c653a2063616c6c6572206973206e6f7420746865206f776e65726000830152602082019050919050565b6000614d72602983615694565b91507f4552433732313a207472616e73666572206f6620746f6b656e2074686174206960008301527f73206e6f74206f776e00000000000000000000000000000000000000000000006020830152604082019050919050565b6000614dd8602f83615694565b91507f4552433732314d657461646174613a2055524920717565727920666f72206e6f60008301527f6e6578697374656e7420746f6b656e00000000000000000000000000000000006020830152604082019050919050565b6000614e3e602183615694565b91507f4552433732313a20617070726f76616c20746f2063757272656e74206f776e6560008301527f72000000000000000000000000000000000000000000000000000000000000006020830152604082019050919050565b6000614ea4602783615694565b91507f596f752061726520616c726561647920746865206f776e6572206f662074686960008301527f73206173736574000000000000000000000000000000000000000000000000006020830152604082019050919050565b6000614f0a603183615694565b91507f4552433732313a207472616e736665722063616c6c6572206973206e6f74206f60008301527f776e6572206e6f7220617070726f7665640000000000000000000000000000006020830152604082019050919050565b6000614f70602c83615694565b91507f455243373231456e756d657261626c653a20676c6f62616c20696e646578206f60008301527f7574206f6620626f756e647300000000000000000000000000000000000000006020830152604082019050919050565b6000614fd6602f83615694565b91507f5468697320617373657420686173206e6f74206265656e207265706f7274656460008301527f206c6f7374206f722073746f6c656e00000000000000000000000000000000006020830152604082019050919050565b600061503c602383615694565b91507f596f7520617265206e6f7420746865206275796572206f66207468697320617360008301527f73657400000000000000000000000000000000000000000000000000000000006020830152604082019050919050565b61509e816157e8565b82525050565b60006150b08285614594565b91506150bc8284614594565b91508190509392505050565b60006020820190506150dd60008301846144f5565b92915050565b60006080820190506150f860008301876144f5565b61510560208301866144f5565b6151126040830185615095565b81810360608301526151248184614513565b905095945050505050565b60006020820190506151446000830184614504565b92915050565b60006020820190508181036000830152615164818461455b565b905092915050565b60006020820190508181036000830152615185816145c5565b9050919050565b600060208201905081810360008301526151a58161462b565b9050919050565b600060208201905081810360008301526151c581614691565b9050919050565b600060208201905081810360008301526151e5816146f7565b9050919050565b600060208201905081810360008301526152058161475d565b9050919050565b600060208201905081810360008301526152258161479d565b9050919050565b6000602082019050818103600083015261524581614803565b9050919050565b6000602082019050818103600083015261526581614843565b9050919050565b60006020820190508181036000830152615285816148a9565b9050919050565b600060208201905081810360008301526152a5816148e9565b9050919050565b600060208201905081810360008301526152c58161494f565b9050919050565b600060208201905081810360008301526152e58161498f565b9050919050565b60006020820190508181036000830152615305816149f5565b9050919050565b6000602082019050818103600083015261532581614a5b565b9050919050565b6000602082019050818103600083015261534581614ac1565b9050919050565b6000602082019050818103600083015261536581614b27565b9050919050565b6000602082019050818103600083015261538581614b67565b9050919050565b600060208201905081810360008301526153a581614bcd565b9050919050565b600060208201905081810360008301526153c581614c33565b9050919050565b600060208201905081810360008301526153e581614cbf565b9050919050565b6000602082019050818103600083015261540581614d25565b9050919050565b6000602082019050818103600083015261542581614d65565b9050919050565b6000602082019050818103600083015261544581614dcb565b9050919050565b6000602082019050818103600083015261546581614e31565b9050919050565b6000602082019050818103600083015261548581614e97565b9050919050565b600060208201905081810360008301526154a581614efd565b9050919050565b600060208201905081810360008301526154c581614f63565b9050919050565b600060208201905081810360008301526154e581614fc9565b9050919050565b600060208201905081810360008301526155058161502f565b9050919050565b60006020820190506155216000830184615095565b92915050565b60006101008201905061553d600083018b615095565b818103602083015261554f818a61455b565b905061555e6040830189615095565b61556b6060830188615095565b61557860808301876144f5565b61558560a08301866144f5565b61559260c083018561454c565b81810360e08301526155a4818461455b565b90509998505050505050505050565b60006040820190506155c86000830185615095565b6155d56020830184615095565b9392505050565b6000604051905081810181811067ffffffffffffffff82111715615603576156026159ae565b5b8060405250919050565b600067ffffffffffffffff821115615628576156276159ae565b5b601f19601f8301169050602081019050919050565b600067ffffffffffffffff821115615658576156576159ae565b5b601f19601f8301169050602081019050919050565b600081519050919050565b600081519050919050565b600082825260208201905092915050565b600082825260208201905092915050565b600081905092915050565b60006156bb826157e8565b91506156c6836157e8565b9250827fffffffffffffffffffffffffffffffffffffffffffffffffffffffffffffffff038211156156fb576156fa6158f2565b5b828201905092915050565b6000615711826157e8565b915061571c836157e8565b92508261572c5761572b615921565b5b828204905092915050565b6000615742826157e8565b915061574d836157e8565b9250828210156157605761575f6158f2565b5b828203905092915050565b6000615776826157c8565b9050919050565b60008115159050919050565b60007fffffffff0000000000000000000000000000000000000000000000000000000082169050919050565b60008190506157c3826159ee565b919050565b600073ffffffffffffffffffffffffffffffffffffffff82169050919050565b6000819050919050565b60006157fd826157b5565b9050919050565b82818337600083830152505050565b60005b83811015615831578082015181840152602081019050615816565b83811115615840576000848401525b50505050565b6000600282049050600182168061585e57607f821691505b602082108114156158725761587161597f565b5b50919050565b6000615883826157e8565b91507fffffffffffffffffffffffffffffffffffffffffffffffffffffffffffffffff8214156158b6576158b56158f2565b5b600182019050919050565b60006158cc826157e8565b91506158d7836157e8565b9250826158e7576158e6615921565b5b828206905092915050565b7f4e487b7100000000000000000000000000000000000000000000000000000000600052601160045260246000fd5b7f4e487b7100000000000000000000000000000000000000000000000000000000600052601260045260246000fd5b7f4e487b7100000000000000000000000000000000000000000000000000000000600052602160045260246000fd5b7f4e487b7100000000000000000000000000000000000000000000000000000000600052602260045260246000fd5b7f4e487b7100000000000000000000000000000000000000000000000000000000600052604160045260246000fd5b6000601f19601f8301169050919050565b600481106159ff576159fe615950565b5b50565b615a0b8161576b565b8114615a1657600080fd5b50565b615a228161577d565b8114615a2d57600080fd5b50565b615a3981615789565b8114615a4457600080fd5b50565b615a50816157e8565b8114615a5b57600080fd5b5056fea2646970667358221220daf67003dcc10e19b0b84af419b5dceb16655aefe8198c247b0c53914e5d29b364736f6c63430008000033",
  "immutableReferences": {},
  "source": "// SPDX-License-Identifier: MIT\npragma solidity ^0.8.0;\n\n/// @title A contract to track and sell assets\n/// @author Leonardo Rodriguez\n/// @notice You can use this contract for basic asset and NFT creation/transfers\n\n/// @dev importing openzeppelin for ERC721 token\nimport \"@openzeppelin/contracts/token/ERC721/ERC721.sol\";\nimport \"@openzeppelin/contracts/token/ERC721/extensions/ERC721Enumerable.sol\";\nimport \"@openzeppelin/contracts/token/ERC721/extensions/ERC721URIStorage.sol\";\nimport \"@openzeppelin/contracts/access/Ownable.sol\";\nimport \"@openzeppelin/contracts/utils/Counters.sol\";\n\n\ncontract AssetOwnership is ERC721, ERC721Enumerable, ERC721URIStorage, Ownable {\n    using Counters for Counters.Counter;\n\n    Counters.Counter private _tokenIdCounter;\n\n    constructor() ERC721(\"Asset Ownership\", \"ASSET\") {}\n\n    function safeMint(address to, string memory uri) public {\n        uint256 tokenId = _tokenIdCounter.current();\n        _tokenIdCounter.increment();\n        _safeMint(to, tokenId);\n        _setTokenURI(tokenId, uri);\n    }\n\n    /// @dev The following functions are overrides required by Solidity.\n\n    function _beforeTokenTransfer(address from, address to, uint256 tokenId)\n        internal\n        override(ERC721, ERC721Enumerable)\n    {\n        super._beforeTokenTransfer(from, to, tokenId);\n    }\n\n    function _burn(uint256 tokenId) internal override(ERC721, ERC721URIStorage) {\n        super._burn(tokenId);\n    }\n\n    function tokenURI(uint256 tokenId)\n        public\n        view\n        override(ERC721, ERC721URIStorage)\n        returns (string memory)\n    {\n        return super.tokenURI(tokenId);\n    }\n\n    function supportsInterface(bytes4 interfaceId)\n        public\n        view\n        override(ERC721, ERC721Enumerable)\n        returns (bool)\n    {\n        return super.supportsInterface(interfaceId);\n    }\n\n\n    /// @dev This is the data being tracked on the contract \n\n\n    /// @dev Function to receive Ether. msg.data must be empty\n    receive() external payable {}\n\n    /// @dev Fallback function is called when msg.data is not empty\n    fallback() external payable {}\n\n    // assets\n    mapping (uint => Asset) assets;\n\n    // asset state\n    enum State{InPossession, PendingTransfer, TransferringOwnership, LostOrStolen}\n\n    // asset struct\n    struct Asset {\n        uint tokenId;\n        string name;\n        uint serial;\n        uint value;\n        address payable buyer;\n        address payable owner;\n        State state;\n        string uri;\n    }\n\n    /// @dev All of the events that get emitted\n\n    event LogInPossession(uint tokenId);\n\n    event LogBought(uint tokenId);\n\n    event LogShipped(uint tokenId);\n\n    event LogTransferringOwnership(uint tokenId);\n    \n    event LogLostOrStolen(uint tokenId);\n\n    event LogDestroyed(uint tokenId);\n\n    event LogChangedValue(uint tokenId, uint value);\n\n    /// @dev These are the modifiers used before transactions\n\n    modifier verifyOwner (address _address) {\n        require(msg.sender == _address, \"You are not the owner of this asset\");\n        _;\n    }\n\n    modifier verifyTokenExists (uint _tokenId) {\n        require(_exists(_tokenId), \"This token does not exist\");\n        _;\n    }\n\n\n    modifier verifyBuyer (address _address) {\n        require(msg.sender == _address, \"You are not the buyer of this asset\");\n        _;\n    }\n\n    modifier verifyNotOwner (address _address) {\n        require(msg.sender != _address, \"You are already the owner of this asset\");\n        _;\n    }\n\n    modifier inPossession (uint _tokenId) {\n        require(assets[_tokenId].state == State.InPossession, \"The asset is not currently being sold\"); \n        _;\n    }\n\n    modifier isLostorStolen (uint _tokenId) {\n        require(assets[_tokenId].state == State.LostOrStolen, \"This asset has not been reported lost or stolen\");\n        _;\n    }\n\n    modifier pendingTransfer (uint _tokenId) {\n        require(assets[_tokenId].state == State.PendingTransfer, \"Ownership has not been transferred.\");\n        _;\n    }\n\n    modifier transferringOwnership (uint _tokenId) {\n        require(assets[_tokenId].state == State.TransferringOwnership, \"This asset has not been shipped or approved for ownership transfer.\");\n        _;\n    }\n\n    modifier paidEnough (uint _value) {\n        require(msg.value >= _value, \"You have insufficient funds\");\n        _;\n    }\n\n    /// @dev All of the contract functions for the contract are found below\n\n    // ADD\n    function addAsset(string memory _name, uint _serial, uint _value, string memory _uri) public returns (bool) {\n        uint tokenId = _tokenIdCounter.current();\n\n        assets[tokenId] = Asset({\n            tokenId: tokenId,\n            name: _name,\n            serial: _serial,\n            value: _value,\n            buyer: payable (address(0)),\n            owner: payable (msg.sender),\n            state: State.InPossession,\n            uri: _uri\n        });\n\n        safeMint(msg.sender, _uri);\n\n        emit LogInPossession(tokenId);\n\n        return true;\n    }\n\n    // BUY\n    function buyAsset(uint _tokenId) \n    inPossession(_tokenId) \n    verifyNotOwner(assets[_tokenId].owner) \n    verifyTokenExists(_tokenId)\n    paidEnough(assets[_tokenId].value) \n    payable public {        \n        // TODO: Change and add modifiers and make sure money is sent\n        \n        assets[_tokenId].buyer = payable(msg.sender);\n\n        assets[_tokenId].state = State.PendingTransfer;\n\n        emit LogBought(_tokenId);\n    }\n\n    // APPROVE FOR OWNERSHIP TRANSFER\n    function shipAssetAndApproveOwnershipTransfer(uint _tokenId) pendingTransfer(_tokenId) verifyOwner(assets[_tokenId].owner) verifyTokenExists(_tokenId) public {\n        _approve(assets[_tokenId].buyer, _tokenId);\n        \n        assets[_tokenId].state = State.TransferringOwnership;\n\n        emit LogShipped(_tokenId);\n    }\n\n    // RECEIVE AND TRANSFER OWNERSHIP\n    function receiveAsset(uint _tokenId) verifyBuyer(assets[_tokenId].buyer) transferringOwnership(_tokenId) verifyTokenExists(_tokenId) payable public {\n        safeTransferFrom(assets[_tokenId].owner, assets[_tokenId].buyer, _tokenId);\n\n        assets[_tokenId].owner.transfer(assets[_tokenId].value);\n\n        assets[_tokenId].owner = payable(msg.sender);\n\n        assets[_tokenId].buyer = payable(address(0));\n        \n        assets[_tokenId].state = State.InPossession;\n\n        emit LogInPossession(_tokenId);\n    }\n\n    // CHANGE VALUE\n    function changeValueOfAsset(uint _tokenId, uint _value) verifyOwner(assets[_tokenId].owner) inPossession(_tokenId) verifyTokenExists(_tokenId) public {\n        assets[_tokenId].value = _value;\n\n        emit LogChangedValue(_tokenId, _value);\n    }\n\n    // LOST OR STOLEN\n    function reportLostOrStolen(uint _tokenId) verifyOwner(assets[_tokenId].owner) inPossession(_tokenId) verifyTokenExists(_tokenId) public {\n        assets[_tokenId].state = State.LostOrStolen;\n\n        emit LogLostOrStolen(_tokenId);\n    }\n\n    // IN POSSESSION\n    function reportFoundAndInPossession(uint _tokenId) verifyOwner(assets[_tokenId].owner) isLostorStolen(_tokenId) verifyTokenExists(_tokenId) public {\n        assets[_tokenId].state = State.InPossession;\n\n        emit LogInPossession(_tokenId);\n    }\n\n    // DESTROY\n    function destroyAsset(uint _tokenId) verifyOwner(assets[_tokenId].owner) inPossession(_tokenId) verifyTokenExists(_tokenId) public {\n        _burn(_tokenId);\n        emit LogDestroyed(_tokenId);\n    }\n\n\n    // @return The values of an asset\n    function fetchAsset(uint _tokenId) verifyTokenExists(_tokenId) public view \n    returns (uint tokenId, string memory name, uint serial, uint value, address buyer, address _owner, State state, string memory uri) {\n        tokenId = assets[_tokenId].tokenId;\n        name = assets[_tokenId].name;\n        serial = assets[_tokenId].serial;\n        value = assets[_tokenId].value;\n        buyer = assets[_tokenId].buyer;\n        _owner = assets[_tokenId].owner;\n        state = assets[_tokenId].state;\n        uri = assets[_tokenId].uri;\n\n        return (tokenId, name, serial, value, buyer, _owner, state, uri);\n    }\n\n    function totalSupplyOfTokens() public view returns (uint supply){\n        supply = totalSupply();\n        return supply;\n    }\n}",
  "sourcePath": "/Users/leo/sandbox/blockchain/blockchain-developer-bootcamp-final-project/contracts/AssetOwnership.sol",
  "compiler": {
    "name": "solc",
    "version": "0.8.0+commit.c7dfd78e.Emscripten.clang"
  },
  "schemaVersion": "3.4.3",
  "updatedAt": "2022-01-15T21:08:05.207Z",
  "networkType": "ethereum",
  "devdoc": {
    "events": {
      "LogInPossession(uint256)": {
        "details": "All of the events that get emitted"
      }
    },
    "kind": "dev",
    "methods": {
      "addAsset(string,uint256,uint256,string)": {
        "details": "All of the contract functions for the contract are found below"
      },
      "approve(address,uint256)": {
        "details": "See {IERC721-approve}."
      },
      "balanceOf(address)": {
        "details": "See {IERC721-balanceOf}."
      },
      "getApproved(uint256)": {
        "details": "See {IERC721-getApproved}."
      },
      "isApprovedForAll(address,address)": {
        "details": "See {IERC721-isApprovedForAll}."
      },
      "name()": {
        "details": "See {IERC721Metadata-name}."
      },
      "owner()": {
        "details": "Returns the address of the current owner."
      },
      "ownerOf(uint256)": {
        "details": "See {IERC721-ownerOf}."
      },
      "renounceOwnership()": {
        "details": "Leaves the contract without owner. It will not be possible to call `onlyOwner` functions anymore. Can only be called by the current owner. NOTE: Renouncing ownership will leave the contract without an owner, thereby removing any functionality that is only available to the owner."
      },
      "safeTransferFrom(address,address,uint256)": {
        "details": "See {IERC721-safeTransferFrom}."
      },
      "safeTransferFrom(address,address,uint256,bytes)": {
        "details": "See {IERC721-safeTransferFrom}."
      },
      "setApprovalForAll(address,bool)": {
        "details": "See {IERC721-setApprovalForAll}."
      },
      "symbol()": {
        "details": "See {IERC721Metadata-symbol}."
      },
      "tokenByIndex(uint256)": {
        "details": "See {IERC721Enumerable-tokenByIndex}."
      },
      "tokenOfOwnerByIndex(address,uint256)": {
        "details": "See {IERC721Enumerable-tokenOfOwnerByIndex}."
      },
      "totalSupply()": {
        "details": "See {IERC721Enumerable-totalSupply}."
      },
      "transferFrom(address,address,uint256)": {
        "details": "See {IERC721-transferFrom}."
      },
      "transferOwnership(address)": {
        "details": "Transfers ownership of the contract to a new account (`newOwner`). Can only be called by the current owner."
      }
    },
    "version": 1
  },
  "userdoc": {
    "kind": "user",
    "methods": {},
    "version": 1
  }
}