{
  "contractName": "AssetOwnership",
  "abi": [
    {
      "inputs": [],
      "stateMutability": "nonpayable",
      "type": "constructor"
    },
    {
      "anonymous": false,
      "inputs": [
        {
          "indexed": true,
          "internalType": "address",
          "name": "owner",
          "type": "address"
        },
        {
          "indexed": true,
          "internalType": "address",
          "name": "approved",
          "type": "address"
        },
        {
          "indexed": true,
          "internalType": "uint256",
          "name": "tokenId",
          "type": "uint256"
        }
      ],
      "name": "Approval",
      "type": "event"
    },
    {
      "anonymous": false,
      "inputs": [
        {
          "indexed": true,
          "internalType": "address",
          "name": "owner",
          "type": "address"
        },
        {
          "indexed": true,
          "internalType": "address",
          "name": "operator",
          "type": "address"
        },
        {
          "indexed": false,
          "internalType": "bool",
          "name": "approved",
          "type": "bool"
        }
      ],
      "name": "ApprovalForAll",
      "type": "event"
    },
    {
      "anonymous": false,
      "inputs": [
        {
          "indexed": false,
          "internalType": "uint256",
          "name": "tokenId",
          "type": "uint256"
        },
        {
          "indexed": false,
          "internalType": "uint256",
          "name": "value",
          "type": "uint256"
        }
      ],
      "name": "LogChangedValue",
      "type": "event"
    },
    {
      "anonymous": false,
      "inputs": [
        {
          "indexed": false,
          "internalType": "uint256",
          "name": "tokenId",
          "type": "uint256"
        }
      ],
      "name": "LogDestroyed",
      "type": "event"
    },
    {
      "anonymous": false,
      "inputs": [
        {
          "indexed": false,
          "internalType": "uint256",
          "name": "tokenId",
          "type": "uint256"
        }
      ],
      "name": "LogInPossession",
      "type": "event"
    },
    {
      "anonymous": false,
      "inputs": [
        {
          "indexed": false,
          "internalType": "uint256",
          "name": "tokenId",
          "type": "uint256"
        }
      ],
      "name": "LogLostOrStolen",
      "type": "event"
    },
    {
      "anonymous": false,
      "inputs": [
        {
          "indexed": false,
          "internalType": "uint256",
          "name": "tokenId",
          "type": "uint256"
        }
      ],
      "name": "LogSold",
      "type": "event"
    },
    {
      "anonymous": false,
      "inputs": [
        {
          "indexed": false,
          "internalType": "uint256",
          "name": "tokenId",
          "type": "uint256"
        }
      ],
      "name": "LogTransferringOwnership",
      "type": "event"
    },
    {
      "anonymous": false,
      "inputs": [
        {
          "indexed": true,
          "internalType": "address",
          "name": "previousOwner",
          "type": "address"
        },
        {
          "indexed": true,
          "internalType": "address",
          "name": "newOwner",
          "type": "address"
        }
      ],
      "name": "OwnershipTransferred",
      "type": "event"
    },
    {
      "anonymous": false,
      "inputs": [
        {
          "indexed": true,
          "internalType": "address",
          "name": "from",
          "type": "address"
        },
        {
          "indexed": true,
          "internalType": "address",
          "name": "to",
          "type": "address"
        },
        {
          "indexed": true,
          "internalType": "uint256",
          "name": "tokenId",
          "type": "uint256"
        }
      ],
      "name": "Transfer",
      "type": "event"
    },
    {
      "stateMutability": "payable",
      "type": "fallback",
      "payable": true
    },
    {
      "inputs": [
        {
          "internalType": "address",
          "name": "to",
          "type": "address"
        },
        {
          "internalType": "uint256",
          "name": "tokenId",
          "type": "uint256"
        }
      ],
      "name": "approve",
      "outputs": [],
      "stateMutability": "nonpayable",
      "type": "function"
    },
    {
      "inputs": [
        {
          "internalType": "address",
          "name": "owner",
          "type": "address"
        }
      ],
      "name": "balanceOf",
      "outputs": [
        {
          "internalType": "uint256",
          "name": "",
          "type": "uint256"
        }
      ],
      "stateMutability": "view",
      "type": "function",
      "constant": true
    },
    {
      "inputs": [
        {
          "internalType": "uint256",
          "name": "tokenId",
          "type": "uint256"
        }
      ],
      "name": "getApproved",
      "outputs": [
        {
          "internalType": "address",
          "name": "",
          "type": "address"
        }
      ],
      "stateMutability": "view",
      "type": "function",
      "constant": true
    },
    {
      "inputs": [
        {
          "internalType": "address",
          "name": "owner",
          "type": "address"
        },
        {
          "internalType": "address",
          "name": "operator",
          "type": "address"
        }
      ],
      "name": "isApprovedForAll",
      "outputs": [
        {
          "internalType": "bool",
          "name": "",
          "type": "bool"
        }
      ],
      "stateMutability": "view",
      "type": "function",
      "constant": true
    },
    {
      "inputs": [],
      "name": "name",
      "outputs": [
        {
          "internalType": "string",
          "name": "",
          "type": "string"
        }
      ],
      "stateMutability": "view",
      "type": "function",
      "constant": true
    },
    {
      "inputs": [],
      "name": "owner",
      "outputs": [
        {
          "internalType": "address",
          "name": "",
          "type": "address"
        }
      ],
      "stateMutability": "view",
      "type": "function",
      "constant": true
    },
    {
      "inputs": [
        {
          "internalType": "uint256",
          "name": "tokenId",
          "type": "uint256"
        }
      ],
      "name": "ownerOf",
      "outputs": [
        {
          "internalType": "address",
          "name": "",
          "type": "address"
        }
      ],
      "stateMutability": "view",
      "type": "function",
      "constant": true
    },
    {
      "inputs": [],
      "name": "renounceOwnership",
      "outputs": [],
      "stateMutability": "nonpayable",
      "type": "function"
    },
    {
      "inputs": [
        {
          "internalType": "address",
          "name": "from",
          "type": "address"
        },
        {
          "internalType": "address",
          "name": "to",
          "type": "address"
        },
        {
          "internalType": "uint256",
          "name": "tokenId",
          "type": "uint256"
        }
      ],
      "name": "safeTransferFrom",
      "outputs": [],
      "stateMutability": "nonpayable",
      "type": "function"
    },
    {
      "inputs": [
        {
          "internalType": "address",
          "name": "from",
          "type": "address"
        },
        {
          "internalType": "address",
          "name": "to",
          "type": "address"
        },
        {
          "internalType": "uint256",
          "name": "tokenId",
          "type": "uint256"
        },
        {
          "internalType": "bytes",
          "name": "_data",
          "type": "bytes"
        }
      ],
      "name": "safeTransferFrom",
      "outputs": [],
      "stateMutability": "nonpayable",
      "type": "function"
    },
    {
      "inputs": [
        {
          "internalType": "address",
          "name": "operator",
          "type": "address"
        },
        {
          "internalType": "bool",
          "name": "approved",
          "type": "bool"
        }
      ],
      "name": "setApprovalForAll",
      "outputs": [],
      "stateMutability": "nonpayable",
      "type": "function"
    },
    {
      "inputs": [],
      "name": "symbol",
      "outputs": [
        {
          "internalType": "string",
          "name": "",
          "type": "string"
        }
      ],
      "stateMutability": "view",
      "type": "function",
      "constant": true
    },
    {
      "inputs": [
        {
          "internalType": "uint256",
          "name": "index",
          "type": "uint256"
        }
      ],
      "name": "tokenByIndex",
      "outputs": [
        {
          "internalType": "uint256",
          "name": "",
          "type": "uint256"
        }
      ],
      "stateMutability": "view",
      "type": "function",
      "constant": true
    },
    {
      "inputs": [
        {
          "internalType": "address",
          "name": "owner",
          "type": "address"
        },
        {
          "internalType": "uint256",
          "name": "index",
          "type": "uint256"
        }
      ],
      "name": "tokenOfOwnerByIndex",
      "outputs": [
        {
          "internalType": "uint256",
          "name": "",
          "type": "uint256"
        }
      ],
      "stateMutability": "view",
      "type": "function",
      "constant": true
    },
    {
      "inputs": [],
      "name": "totalSupply",
      "outputs": [
        {
          "internalType": "uint256",
          "name": "",
          "type": "uint256"
        }
      ],
      "stateMutability": "view",
      "type": "function",
      "constant": true
    },
    {
      "inputs": [
        {
          "internalType": "address",
          "name": "from",
          "type": "address"
        },
        {
          "internalType": "address",
          "name": "to",
          "type": "address"
        },
        {
          "internalType": "uint256",
          "name": "tokenId",
          "type": "uint256"
        }
      ],
      "name": "transferFrom",
      "outputs": [],
      "stateMutability": "nonpayable",
      "type": "function"
    },
    {
      "inputs": [
        {
          "internalType": "address",
          "name": "newOwner",
          "type": "address"
        }
      ],
      "name": "transferOwnership",
      "outputs": [],
      "stateMutability": "nonpayable",
      "type": "function"
    },
    {
      "stateMutability": "payable",
      "type": "receive",
      "payable": true
    },
    {
      "inputs": [
        {
          "internalType": "address",
          "name": "to",
          "type": "address"
        },
        {
          "internalType": "string",
          "name": "uri",
          "type": "string"
        }
      ],
      "name": "safeMint",
      "outputs": [],
      "stateMutability": "nonpayable",
      "type": "function"
    },
    {
      "inputs": [
        {
          "internalType": "uint256",
          "name": "tokenId",
          "type": "uint256"
        }
      ],
      "name": "tokenURI",
      "outputs": [
        {
          "internalType": "string",
          "name": "",
          "type": "string"
        }
      ],
      "stateMutability": "view",
      "type": "function",
      "constant": true
    },
    {
      "inputs": [
        {
          "internalType": "bytes4",
          "name": "interfaceId",
          "type": "bytes4"
        }
      ],
      "name": "supportsInterface",
      "outputs": [
        {
          "internalType": "bool",
          "name": "",
          "type": "bool"
        }
      ],
      "stateMutability": "view",
      "type": "function",
      "constant": true
    },
    {
      "inputs": [
        {
          "internalType": "string",
          "name": "_name",
          "type": "string"
        },
        {
          "internalType": "uint256",
          "name": "_serial",
          "type": "uint256"
        },
        {
          "internalType": "uint256",
          "name": "_value",
          "type": "uint256"
        },
        {
          "internalType": "string",
          "name": "_uri",
          "type": "string"
        }
      ],
      "name": "addAsset",
      "outputs": [
        {
          "internalType": "bool",
          "name": "",
          "type": "bool"
        }
      ],
      "stateMutability": "nonpayable",
      "type": "function"
    },
    {
      "inputs": [
        {
          "internalType": "uint256",
          "name": "_tokenId",
          "type": "uint256"
        }
      ],
      "name": "buyAsset",
      "outputs": [],
      "stateMutability": "payable",
      "type": "function",
      "payable": true
    },
    {
      "inputs": [
        {
          "internalType": "uint256",
          "name": "_tokenId",
          "type": "uint256"
        }
      ],
      "name": "shipAssetAndApproveOwnershipTransfer",
      "outputs": [],
      "stateMutability": "nonpayable",
      "type": "function"
    },
    {
      "inputs": [
        {
          "internalType": "uint256",
          "name": "_tokenId",
          "type": "uint256"
        }
      ],
      "name": "receiveAsset",
      "outputs": [],
      "stateMutability": "payable",
      "type": "function",
      "payable": true
    },
    {
      "inputs": [
        {
          "internalType": "uint256",
          "name": "_tokenId",
          "type": "uint256"
        },
        {
          "internalType": "uint256",
          "name": "_value",
          "type": "uint256"
        }
      ],
      "name": "changeValueOfAsset",
      "outputs": [],
      "stateMutability": "nonpayable",
      "type": "function"
    },
    {
      "inputs": [
        {
          "internalType": "uint256",
          "name": "_tokenId",
          "type": "uint256"
        }
      ],
      "name": "reportLostOrStolen",
      "outputs": [],
      "stateMutability": "nonpayable",
      "type": "function"
    },
    {
      "inputs": [
        {
          "internalType": "uint256",
          "name": "_tokenId",
          "type": "uint256"
        }
      ],
      "name": "reportFoundAndInPossession",
      "outputs": [],
      "stateMutability": "nonpayable",
      "type": "function"
    },
    {
      "inputs": [
        {
          "internalType": "uint256",
          "name": "_tokenId",
          "type": "uint256"
        }
      ],
      "name": "destroyAsset",
      "outputs": [],
      "stateMutability": "nonpayable",
      "type": "function"
    },
    {
      "inputs": [
        {
          "internalType": "uint256",
          "name": "_tokenId",
          "type": "uint256"
        }
      ],
      "name": "fetchAsset",
      "outputs": [
        {
          "internalType": "uint256",
          "name": "tokenId",
          "type": "uint256"
        },
        {
          "internalType": "string",
          "name": "name",
          "type": "string"
        },
        {
          "internalType": "uint256",
          "name": "serial",
          "type": "uint256"
        },
        {
          "internalType": "uint256",
          "name": "value",
          "type": "uint256"
        },
        {
          "internalType": "address",
          "name": "buyer",
          "type": "address"
        },
        {
          "internalType": "address",
          "name": "_owner",
          "type": "address"
        },
        {
          "internalType": "enum AssetOwnership.State",
          "name": "state",
          "type": "uint8"
        },
        {
          "internalType": "string",
          "name": "uri",
          "type": "string"
        }
      ],
      "stateMutability": "view",
      "type": "function",
      "constant": true
    }
  ],
  "bytecode": "0x60806040523480156200001157600080fd5b506040518060400160405280600f81526020017f4173736574204f776e65727368697000000000000000000000000000000000008152506040518060400160405280600581526020017f4153534554000000000000000000000000000000000000000000000000000000815250816000908051906020019062000096929190620001b8565b508060019080519060200190620000af929190620001b8565b505050620000e4620000cf620000ea640100000000026401000000009004565b620000f2640100000000026401000000009004565b620002cd565b600033905090565b6000600b60009054906101000a900473ffffffffffffffffffffffffffffffffffffffff16905081600b60006101000a81548173ffffffffffffffffffffffffffffffffffffffff021916908373ffffffffffffffffffffffffffffffffffffffff1602179055508173ffffffffffffffffffffffffffffffffffffffff168173ffffffffffffffffffffffffffffffffffffffff167f8be0079c531659141344cd1fd0a4f28419497f9722a3daafe3b4186f6b6457e060405160405180910390a35050565b828054620001c69062000297565b90600052602060002090601f016020900481019282620001ea576000855562000236565b82601f106200020557805160ff191683800117855562000236565b8280016001018555821562000236579182015b828111156200023557825182559160200191906001019062000218565b5b50905062000245919062000249565b5090565b5b80821115620002645760008160009055506001016200024a565b5090565b7f4e487b7100000000000000000000000000000000000000000000000000000000600052602260045260246000fd5b60006002820490506001821680620002b057607f821691505b60208210811415620002c757620002c662000268565b5b50919050565b61584c80620002dd6000396000f3fe6080604052600436106101e3576000357c0100000000000000000000000000000000000000000000000000000000900480636352211e11610114578063999d0698116100b2578063ccc8ad1211610081578063ccc8ad1214610691578063d204c45e146106ad578063e985e9c5146106d6578063f2fde38b14610713576101ea565b8063999d0698146105d9578063a22cb46514610602578063b88d4fde1461062b578063c87b56dd14610654576101ea565b80637956073b116100ee5780637956073b146105165780638da5cb5b1461055a5780638da6074a1461058557806395d89b41146105ae576101ea565b80636352211e1461048557806370a08231146104c2578063715018a6146104ff576101ea565b806323b872dd1161018157806342842e0e1161015b57806342842e0e146103cd578063474c1520146103f65780634f6ccce71461041f578063624fb4c91461045c576101ea565b806323b872dd1461032a5780632f745c591461035357806337f8c17914610390576101ea565b8063095ea7b3116101bd578063095ea7b314610291578063110d35b8146102ba57806318160ddd146102d65780632021158714610301576101ea565b806301ffc9a7146101ec57806306fdde0314610229578063081812fc14610254576101ea565b366101ea57005b005b3480156101f857600080fd5b50610213600480360381019061020e9190613c56565b61073c565b6040516102209190613c9e565b60405180910390f35b34801561023557600080fd5b5061023e61074e565b60405161024b9190613d52565b60405180910390f35b34801561026057600080fd5b5061027b60048036038101906102769190613daa565b6107e0565b6040516102889190613e18565b60405180910390f35b34801561029d57600080fd5b506102b860048036038101906102b39190613e5f565b610865565b005b6102d460048036038101906102cf9190613daa565b61097d565b005b3480156102e257600080fd5b506102eb610c23565b6040516102f89190613eae565b60405180910390f35b34801561030d57600080fd5b5061032860048036038101906103239190613daa565b610c30565b005b34801561033657600080fd5b50610351600480360381019061034c9190613ec9565b610e24565b005b34801561035f57600080fd5b5061037a60048036038101906103759190613e5f565b610e84565b6040516103879190613eae565b60405180910390f35b34801561039c57600080fd5b506103b760048036038101906103b29190614051565b610f29565b6040516103c49190613c9e565b60405180910390f35b3480156103d957600080fd5b506103f460048036038101906103ef9190613ec9565b61112c565b005b34801561040257600080fd5b5061041d60048036038101906104189190613daa565b61114c565b005b34801561042b57600080fd5b5061044660048036038101906104419190613daa565b61130b565b6040516104539190613eae565b60405180910390f35b34801561046857600080fd5b50610483600480360381019061047e9190613daa565b61137c565b005b34801561049157600080fd5b506104ac60048036038101906104a79190613daa565b61157a565b6040516104b99190613e18565b60405180910390f35b3480156104ce57600080fd5b506104e960048036038101906104e491906140f0565b61162c565b6040516104f69190613eae565b60405180910390f35b34801561050b57600080fd5b506105146116e4565b005b34801561052257600080fd5b5061053d60048036038101906105389190613daa565b61176c565b604051610551989796959493929190614194565b60405180910390f35b34801561056657600080fd5b5061056f6119f4565b60405161057c9190613e18565b60405180910390f35b34801561059157600080fd5b506105ac60048036038101906105a79190614220565b611a1e565b005b3480156105ba57600080fd5b506105c3611bf2565b6040516105d09190613d52565b60405180910390f35b3480156105e557600080fd5b5061060060048036038101906105fb9190613daa565b611c84565b005b34801561060e57600080fd5b506106296004803603810190610624919061428c565b611e79565b005b34801561063757600080fd5b50610652600480360381019061064d919061436d565b611e8f565b005b34801561066057600080fd5b5061067b60048036038101906106769190613daa565b611ef1565b6040516106889190613d52565b60405180910390f35b6106ab60048036038101906106a69190613daa565b611f03565b005b3480156106b957600080fd5b506106d460048036038101906106cf91906143f0565b6122ad565b005b3480156106e257600080fd5b506106fd60048036038101906106f8919061444c565b6122de565b60405161070a9190613c9e565b60405180910390f35b34801561071f57600080fd5b5061073a600480360381019061073591906140f0565b612372565b005b60006107478261246a565b9050919050565b60606000805461075d906144bb565b80601f0160208091040260200160405190810160405280929190818152602001828054610789906144bb565b80156107d65780601f106107ab576101008083540402835291602001916107d6565b820191906000526020600020905b8154815290600101906020018083116107b957829003601f168201915b5050505050905090565b60006107eb826124e4565b61082a576040517f08c379a00000000000000000000000000000000000000000000000000000000081526004016108219061455f565b60405180910390fd5b6004600083815260200190815260200160002060009054906101000a900473ffffffffffffffffffffffffffffffffffffffff169050919050565b60006108708261157a565b90508073ffffffffffffffffffffffffffffffffffffffff168373ffffffffffffffffffffffffffffffffffffffff1614156108e1576040517f08c379a00000000000000000000000000000000000000000000000000000000081526004016108d8906145f1565b60405180910390fd5b8073ffffffffffffffffffffffffffffffffffffffff16610900612550565b73ffffffffffffffffffffffffffffffffffffffff16148061092f575061092e81610929612550565b6122de565b5b61096e576040517f08c379a000000000000000000000000000000000000000000000000000000000815260040161096590614683565b60405180910390fd5b6109788383612558565b505050565b80600060038111156109925761099161411d565b5b600d600083815260200190815260200160002060050160149054906101000a900460ff1660038111156109c8576109c761411d565b5b14610a08576040517f08c379a00000000000000000000000000000000000000000000000000000000081526004016109ff90614715565b60405180910390fd5b600d600083815260200190815260200160002060050160009054906101000a900473ffffffffffffffffffffffffffffffffffffffff168073ffffffffffffffffffffffffffffffffffffffff163373ffffffffffffffffffffffffffffffffffffffff161415610aae576040517f08c379a0000000000000000000000000000000000000000000000000000000008152600401610aa5906147a7565b60405180910390fd5b82610ab8816124e4565b610af7576040517f08c379a0000000000000000000000000000000000000000000000000000000008152600401610aee90614813565b60405180910390fd5b600d60008581526020019081526020016000206003015480341015610b51576040517f08c379a0000000000000000000000000000000000000000000000000000000008152600401610b489061487f565b60405180910390fd5b33600d600087815260200190815260200160002060040160006101000a81548173ffffffffffffffffffffffffffffffffffffffff021916908373ffffffffffffffffffffffffffffffffffffffff1602179055506001600d600087815260200190815260200160002060050160146101000a81548160ff02191690836003811115610be057610bdf61411d565b5b02179055507fe64ca8c671e48636f85f3008c1dd538e36bfa74fb6f2790b56b72fcc33b879ef85604051610c149190613eae565b60405180910390a15050505050565b6000600880549050905090565b600d600082815260200190815260200160002060050160009054906101000a900473ffffffffffffffffffffffffffffffffffffffff168073ffffffffffffffffffffffffffffffffffffffff163373ffffffffffffffffffffffffffffffffffffffff1614610cd5576040517f08c379a0000000000000000000000000000000000000000000000000000000008152600401610ccc90614911565b60405180910390fd5b81600380811115610ce957610ce861411d565b5b600d600083815260200190815260200160002060050160149054906101000a900460ff166003811115610d1f57610d1e61411d565b5b14610d5f576040517f08c379a0000000000000000000000000000000000000000000000000000000008152600401610d56906149a3565b60405180910390fd5b82610d69816124e4565b610da8576040517f08c379a0000000000000000000000000000000000000000000000000000000008152600401610d9f90614813565b60405180910390fd5b6000600d600086815260200190815260200160002060050160146101000a81548160ff02191690836003811115610de257610de161411d565b5b02179055507f093aa5641a6cd9311446f9c310c8be7ddd06c576fdbe8ec65122183c61d2582684604051610e169190613eae565b60405180910390a150505050565b610e35610e2f612550565b82612611565b610e74576040517f08c379a0000000000000000000000000000000000000000000000000000000008152600401610e6b90614a35565b60405180910390fd5b610e7f8383836126ef565b505050565b6000610e8f8361162c565b8210610ed0576040517f08c379a0000000000000000000000000000000000000000000000000000000008152600401610ec790614ac7565b60405180910390fd5b600660008473ffffffffffffffffffffffffffffffffffffffff1673ffffffffffffffffffffffffffffffffffffffff168152602001908152602001600020600083815260200190815260200160002054905092915050565b600080610f36600c61294b565b9050604051806101000160405280828152602001878152602001868152602001858152602001600073ffffffffffffffffffffffffffffffffffffffff1681526020013373ffffffffffffffffffffffffffffffffffffffff16815260200160006003811115610fa957610fa861411d565b5b815260200184815250600d6000838152602001908152602001600020600082015181600001556020820151816001019080519060200190610feb929190613b07565b50604082015181600201556060820151816003015560808201518160040160006101000a81548173ffffffffffffffffffffffffffffffffffffffff021916908373ffffffffffffffffffffffffffffffffffffffff16021790555060a08201518160050160006101000a81548173ffffffffffffffffffffffffffffffffffffffff021916908373ffffffffffffffffffffffffffffffffffffffff16021790555060c08201518160050160146101000a81548160ff021916908360038111156110b9576110b861411d565b5b021790555060e08201518160060190805190602001906110da929190613b07565b509050506110e833846122ad565b7f093aa5641a6cd9311446f9c310c8be7ddd06c576fdbe8ec65122183c61d25826816040516111179190613eae565b60405180910390a16001915050949350505050565b61114783838360405180602001604052806000815250611e8f565b505050565b600d600082815260200190815260200160002060050160009054906101000a900473ffffffffffffffffffffffffffffffffffffffff168073ffffffffffffffffffffffffffffffffffffffff163373ffffffffffffffffffffffffffffffffffffffff16146111f1576040517f08c379a00000000000000000000000000000000000000000000000000000000081526004016111e890614911565b60405180910390fd5b81600060038111156112065761120561411d565b5b600d600083815260200190815260200160002060050160149054906101000a900460ff16600381111561123c5761123b61411d565b5b1461127c576040517f08c379a000000000000000000000000000000000000000000000000000000000815260040161127390614715565b60405180910390fd5b82611286816124e4565b6112c5576040517f08c379a00000000000000000000000000000000000000000000000000000000081526004016112bc90614813565b60405180910390fd5b6112ce84612959565b7f5b26169f8a09a82388a380e50ae25febdebf7a25930bed9d2d4c40997aa2bff5846040516112fd9190613eae565b60405180910390a150505050565b6000611315610c23565b8210611356576040517f08c379a000000000000000000000000000000000000000000000000000000000815260040161134d90614b59565b60405180910390fd5b6008828154811061136a57611369614b79565b5b90600052602060002001549050919050565b80600160038111156113915761139061411d565b5b600d600083815260200190815260200160002060050160149054906101000a900460ff1660038111156113c7576113c661411d565b5b14611407576040517f08c379a00000000000000000000000000000000000000000000000000000000081526004016113fe90614c1a565b60405180910390fd5b600d600083815260200190815260200160002060050160009054906101000a900473ffffffffffffffffffffffffffffffffffffffff168073ffffffffffffffffffffffffffffffffffffffff163373ffffffffffffffffffffffffffffffffffffffff16146114ac576040517f08c379a00000000000000000000000000000000000000000000000000000000081526004016114a390614911565b60405180910390fd5b826114b6816124e4565b6114f5576040517f08c379a00000000000000000000000000000000000000000000000000000000081526004016114ec90614813565b60405180910390fd5b611535600d600086815260200190815260200160002060040160009054906101000a900473ffffffffffffffffffffffffffffffffffffffff1685612558565b6002600d600086815260200190815260200160002060050160146101000a81548160ff0219169083600381111561156f5761156e61411d565b5b021790555050505050565b6000806002600084815260200190815260200160002060009054906101000a900473ffffffffffffffffffffffffffffffffffffffff169050600073ffffffffffffffffffffffffffffffffffffffff168173ffffffffffffffffffffffffffffffffffffffff161415611623576040517f08c379a000000000000000000000000000000000000000000000000000000000815260040161161a90614cac565b60405180910390fd5b80915050919050565b60008073ffffffffffffffffffffffffffffffffffffffff168273ffffffffffffffffffffffffffffffffffffffff16141561169d576040517f08c379a000000000000000000000000000000000000000000000000000000000815260040161169490614d3e565b60405180910390fd5b600360008373ffffffffffffffffffffffffffffffffffffffff1673ffffffffffffffffffffffffffffffffffffffff168152602001908152602001600020549050919050565b6116ec612550565b73ffffffffffffffffffffffffffffffffffffffff1661170a6119f4565b73ffffffffffffffffffffffffffffffffffffffff1614611760576040517f08c379a000000000000000000000000000000000000000000000000000000000815260040161175790614daa565b60405180910390fd5b61176a6000612965565b565b600060606000806000806000606088611784816124e4565b6117c3576040517f08c379a00000000000000000000000000000000000000000000000000000000081526004016117ba90614813565b60405180910390fd5b600d60008b8152602001908152602001600020600001549850600d60008b815260200190815260200160002060010180546117fd906144bb565b80601f0160208091040260200160405190810160405280929190818152602001828054611829906144bb565b80156118765780601f1061184b57610100808354040283529160200191611876565b820191906000526020600020905b81548152906001019060200180831161185957829003601f168201915b50505050509750600d60008b8152602001908152602001600020600201549650600d60008b8152602001908152602001600020600301549550600d60008b815260200190815260200160002060040160009054906101000a900473ffffffffffffffffffffffffffffffffffffffff169450600d60008b815260200190815260200160002060050160009054906101000a900473ffffffffffffffffffffffffffffffffffffffff169350600d60008b815260200190815260200160002060050160149054906101000a900460ff169250600d60008b81526020019081526020016000206006018054611968906144bb565b80601f0160208091040260200160405190810160405280929190818152602001828054611994906144bb565b80156119e15780601f106119b6576101008083540402835291602001916119e1565b820191906000526020600020905b8154815290600101906020018083116119c457829003601f168201915b5050505050915050919395975091939597565b6000600b60009054906101000a900473ffffffffffffffffffffffffffffffffffffffff16905090565b600d600083815260200190815260200160002060050160009054906101000a900473ffffffffffffffffffffffffffffffffffffffff168073ffffffffffffffffffffffffffffffffffffffff163373ffffffffffffffffffffffffffffffffffffffff1614611ac3576040517f08c379a0000000000000000000000000000000000000000000000000000000008152600401611aba90614911565b60405180910390fd5b8260006003811115611ad857611ad761411d565b5b600d600083815260200190815260200160002060050160149054906101000a900460ff166003811115611b0e57611b0d61411d565b5b14611b4e576040517f08c379a0000000000000000000000000000000000000000000000000000000008152600401611b4590614715565b60405180910390fd5b83611b58816124e4565b611b97576040517f08c379a0000000000000000000000000000000000000000000000000000000008152600401611b8e90614813565b60405180910390fd5b83600d6000878152602001908152602001600020600301819055507f4976485b2f48f09df07ae290110ea4f5337927c6e906f45113aa7103dbb7b8168585604051611be3929190614dca565b60405180910390a15050505050565b606060018054611c01906144bb565b80601f0160208091040260200160405190810160405280929190818152602001828054611c2d906144bb565b8015611c7a5780601f10611c4f57610100808354040283529160200191611c7a565b820191906000526020600020905b815481529060010190602001808311611c5d57829003601f168201915b5050505050905090565b600d600082815260200190815260200160002060050160009054906101000a900473ffffffffffffffffffffffffffffffffffffffff168073ffffffffffffffffffffffffffffffffffffffff163373ffffffffffffffffffffffffffffffffffffffff1614611d29576040517f08c379a0000000000000000000000000000000000000000000000000000000008152600401611d2090614911565b60405180910390fd5b8160006003811115611d3e57611d3d61411d565b5b600d600083815260200190815260200160002060050160149054906101000a900460ff166003811115611d7457611d7361411d565b5b14611db4576040517f08c379a0000000000000000000000000000000000000000000000000000000008152600401611dab90614715565b60405180910390fd5b82611dbe816124e4565b611dfd576040517f08c379a0000000000000000000000000000000000000000000000000000000008152600401611df490614813565b60405180910390fd5b6003600d600086815260200190815260200160002060050160146101000a81548160ff02191690836003811115611e3757611e3661411d565b5b02179055507f17f25fb4ca769af8193da43a90b66526915e8d63e8ea591300c9257e3082607384604051611e6b9190613eae565b60405180910390a150505050565b611e8b611e84612550565b8383612a2b565b5050565b611ea0611e9a612550565b83612611565b611edf576040517f08c379a0000000000000000000000000000000000000000000000000000000008152600401611ed690614a35565b60405180910390fd5b611eeb84848484612b98565b50505050565b6060611efc82612bf4565b9050919050565b600d600082815260200190815260200160002060040160009054906101000a900473ffffffffffffffffffffffffffffffffffffffff168073ffffffffffffffffffffffffffffffffffffffff163373ffffffffffffffffffffffffffffffffffffffff1614611fa8576040517f08c379a0000000000000000000000000000000000000000000000000000000008152600401611f9f90614e65565b60405180910390fd5b8160026003811115611fbd57611fbc61411d565b5b600d600083815260200190815260200160002060050160149054906101000a900460ff166003811115611ff357611ff261411d565b5b14612033576040517f08c379a000000000000000000000000000000000000000000000000000000000815260040161202a90614f1d565b60405180910390fd5b8261203d816124e4565b61207c576040517f08c379a000000000000000000000000000000000000000000000000000000000815260040161207390614813565b60405180910390fd5b6120f3600d600086815260200190815260200160002060050160009054906101000a900473ffffffffffffffffffffffffffffffffffffffff16600d600087815260200190815260200160002060040160009054906101000a900473ffffffffffffffffffffffffffffffffffffffff168661112c565b600d600085815260200190815260200160002060050160009054906101000a900473ffffffffffffffffffffffffffffffffffffffff1673ffffffffffffffffffffffffffffffffffffffff166108fc600d6000878152602001908152602001600020600301549081150290604051600060405180830381858888f19350505050158015612185573d6000803e3d6000fd5b5033600d600086815260200190815260200160002060050160006101000a81548173ffffffffffffffffffffffffffffffffffffffff021916908373ffffffffffffffffffffffffffffffffffffffff1602179055506000600d600086815260200190815260200160002060040160006101000a81548173ffffffffffffffffffffffffffffffffffffffff021916908373ffffffffffffffffffffffffffffffffffffffff1602179055506000600d600086815260200190815260200160002060050160146101000a81548160ff0219169083600381111561226b5761226a61411d565b5b02179055507f093aa5641a6cd9311446f9c310c8be7ddd06c576fdbe8ec65122183c61d258268460405161229f9190613eae565b60405180910390a150505050565b60006122b9600c61294b565b90506122c5600c612d46565b6122cf8382612d5c565b6122d98183612d7a565b505050565b6000600560008473ffffffffffffffffffffffffffffffffffffffff1673ffffffffffffffffffffffffffffffffffffffff16815260200190815260200160002060008373ffffffffffffffffffffffffffffffffffffffff1673ffffffffffffffffffffffffffffffffffffffff16815260200190815260200160002060009054906101000a900460ff16905092915050565b61237a612550565b73ffffffffffffffffffffffffffffffffffffffff166123986119f4565b73ffffffffffffffffffffffffffffffffffffffff16146123ee576040517f08c379a00000000000000000000000000000000000000000000000000000000081526004016123e590614daa565b60405180910390fd5b600073ffffffffffffffffffffffffffffffffffffffff168173ffffffffffffffffffffffffffffffffffffffff16141561245e576040517f08c379a000000000000000000000000000000000000000000000000000000000815260040161245590614faf565b60405180910390fd5b61246781612965565b50565b60007f780e9d63000000000000000000000000000000000000000000000000000000007bffffffffffffffffffffffffffffffffffffffffffffffffffffffff1916827bffffffffffffffffffffffffffffffffffffffffffffffffffffffff191614806124dd57506124dc82612dee565b5b9050919050565b60008073ffffffffffffffffffffffffffffffffffffffff166002600084815260200190815260200160002060009054906101000a900473ffffffffffffffffffffffffffffffffffffffff1673ffffffffffffffffffffffffffffffffffffffff1614159050919050565b600033905090565b816004600083815260200190815260200160002060006101000a81548173ffffffffffffffffffffffffffffffffffffffff021916908373ffffffffffffffffffffffffffffffffffffffff160217905550808273ffffffffffffffffffffffffffffffffffffffff166125cb8361157a565b73ffffffffffffffffffffffffffffffffffffffff167f8c5be1e5ebec7d5bd14f71427d1e84f3dd0314c0f7b2291e5b200ac8c7c3b92560405160405180910390a45050565b600061261c826124e4565b61265b576040517f08c379a000000000000000000000000000000000000000000000000000000000815260040161265290615041565b60405180910390fd5b60006126668361157a565b90508073ffffffffffffffffffffffffffffffffffffffff168473ffffffffffffffffffffffffffffffffffffffff1614806126d557508373ffffffffffffffffffffffffffffffffffffffff166126bd846107e0565b73ffffffffffffffffffffffffffffffffffffffff16145b806126e657506126e581856122de565b5b91505092915050565b8273ffffffffffffffffffffffffffffffffffffffff1661270f8261157a565b73ffffffffffffffffffffffffffffffffffffffff1614612765576040517f08c379a000000000000000000000000000000000000000000000000000000000815260040161275c906150d3565b60405180910390fd5b600073ffffffffffffffffffffffffffffffffffffffff168273ffffffffffffffffffffffffffffffffffffffff1614156127d5576040517f08c379a00000000000000000000000000000000000000000000000000000000081526004016127cc90615165565b60405180910390fd5b6127e0838383612ed0565b6127eb600082612558565b6001600360008573ffffffffffffffffffffffffffffffffffffffff1673ffffffffffffffffffffffffffffffffffffffff168152602001908152602001600020600082825461283b91906151b4565b925050819055506001600360008473ffffffffffffffffffffffffffffffffffffffff1673ffffffffffffffffffffffffffffffffffffffff168152602001908152602001600020600082825461289291906151e8565b92505081905550816002600083815260200190815260200160002060006101000a81548173ffffffffffffffffffffffffffffffffffffffff021916908373ffffffffffffffffffffffffffffffffffffffff160217905550808273ffffffffffffffffffffffffffffffffffffffff168473ffffffffffffffffffffffffffffffffffffffff167fddf252ad1be2c89b69c2b068fc378daa952ba7f163c4a11628f55a4df523b3ef60405160405180910390a4505050565b600081600001549050919050565b61296281612ee0565b50565b6000600b60009054906101000a900473ffffffffffffffffffffffffffffffffffffffff16905081600b60006101000a81548173ffffffffffffffffffffffffffffffffffffffff021916908373ffffffffffffffffffffffffffffffffffffffff1602179055508173ffffffffffffffffffffffffffffffffffffffff168173ffffffffffffffffffffffffffffffffffffffff167f8be0079c531659141344cd1fd0a4f28419497f9722a3daafe3b4186f6b6457e060405160405180910390a35050565b8173ffffffffffffffffffffffffffffffffffffffff168373ffffffffffffffffffffffffffffffffffffffff161415612a9a576040517f08c379a0000000000000000000000000000000000000000000000000000000008152600401612a919061528a565b60405180910390fd5b80600560008573ffffffffffffffffffffffffffffffffffffffff1673ffffffffffffffffffffffffffffffffffffffff16815260200190815260200160002060008473ffffffffffffffffffffffffffffffffffffffff1673ffffffffffffffffffffffffffffffffffffffff16815260200190815260200160002060006101000a81548160ff0219169083151502179055508173ffffffffffffffffffffffffffffffffffffffff168373ffffffffffffffffffffffffffffffffffffffff167f17307eab39ab6107e8899845ad3d59bd9653f200f220920489ca2b5937696c3183604051612b8b9190613c9e565b60405180910390a3505050565b612ba38484846126ef565b612baf84848484612f33565b612bee576040517f08c379a0000000000000000000000000000000000000000000000000000000008152600401612be59061531c565b60405180910390fd5b50505050565b6060612bff826124e4565b612c3e576040517f08c379a0000000000000000000000000000000000000000000000000000000008152600401612c35906153ae565b60405180910390fd5b6000600a60008481526020019081526020016000208054612c5e906144bb565b80601f0160208091040260200160405190810160405280929190818152602001828054612c8a906144bb565b8015612cd75780601f10612cac57610100808354040283529160200191612cd7565b820191906000526020600020905b815481529060010190602001808311612cba57829003601f168201915b505050505090506000612ce86130f3565b9050600081511415612cfe578192505050612d41565b600082511115612d33578082604051602001612d1b92919061540a565b60405160208183030381529060405292505050612d41565b612d3c8461310a565b925050505b919050565b6001816000016000828254019250508190555050565b612d768282604051806020016040528060008152506131b1565b5050565b612d83826124e4565b612dc2576040517f08c379a0000000000000000000000000000000000000000000000000000000008152600401612db9906154a0565b60405180910390fd5b80600a60008481526020019081526020016000209080519060200190612de9929190613b07565b505050565b60007f80ac58cd000000000000000000000000000000000000000000000000000000007bffffffffffffffffffffffffffffffffffffffffffffffffffffffff1916827bffffffffffffffffffffffffffffffffffffffffffffffffffffffff19161480612eb957507f5b5e139f000000000000000000000000000000000000000000000000000000007bffffffffffffffffffffffffffffffffffffffffffffffffffffffff1916827bffffffffffffffffffffffffffffffffffffffffffffffffffffffff1916145b80612ec95750612ec88261320c565b5b9050919050565b612edb838383613276565b505050565b612ee98161338a565b6000600a60008381526020019081526020016000208054612f09906144bb565b905014612f3057600a60008281526020019081526020016000206000612f2f9190613b8d565b5b50565b6000612f548473ffffffffffffffffffffffffffffffffffffffff1661349b565b156130e6578373ffffffffffffffffffffffffffffffffffffffff1663150b7a02612f7d612550565b8786866040518563ffffffff167c0100000000000000000000000000000000000000000000000000000000028152600401612fbb9493929190615515565b6020604051808303816000875af1925050508015612ff757506040513d601f19601f82011682018060405250810190612ff49190615576565b60015b61307a573d8060008114613027576040519150601f19603f3d011682016040523d82523d6000602084013e61302c565b606091505b50600081511415613072576040517f08c379a00000000000000000000000000000000000000000000000000000000081526004016130699061531c565b60405180910390fd5b805181602001fd5b63150b7a027c0100000000000000000000000000000000000000000000000000000000027bffffffffffffffffffffffffffffffffffffffffffffffffffffffff1916817bffffffffffffffffffffffffffffffffffffffffffffffffffffffff1916149150506130eb565b600190505b949350505050565b606060405180602001604052806000815250905090565b6060613115826124e4565b613154576040517f08c379a000000000000000000000000000000000000000000000000000000000815260040161314b90615615565b60405180910390fd5b600061315e6130f3565b9050600081511161317e57604051806020016040528060008152506131a9565b80613188846134ae565b60405160200161319992919061540a565b6040516020818303038152906040525b915050919050565b6131bb838361362e565b6131c86000848484612f33565b613207576040517f08c379a00000000000000000000000000000000000000000000000000000000081526004016131fe9061531c565b60405180910390fd5b505050565b60007f01ffc9a7000000000000000000000000000000000000000000000000000000007bffffffffffffffffffffffffffffffffffffffffffffffffffffffff1916827bffffffffffffffffffffffffffffffffffffffffffffffffffffffff1916149050919050565b6132818383836137fc565b600073ffffffffffffffffffffffffffffffffffffffff168373ffffffffffffffffffffffffffffffffffffffff1614156132c4576132bf81613801565b613303565b8173ffffffffffffffffffffffffffffffffffffffff168373ffffffffffffffffffffffffffffffffffffffff161461330257613301838261384a565b5b5b600073ffffffffffffffffffffffffffffffffffffffff168273ffffffffffffffffffffffffffffffffffffffff16141561334657613341816139b7565b613385565b8273ffffffffffffffffffffffffffffffffffffffff168273ffffffffffffffffffffffffffffffffffffffff1614613384576133838282613a88565b5b5b505050565b60006133958261157a565b90506133a381600084612ed0565b6133ae600083612558565b6001600360008373ffffffffffffffffffffffffffffffffffffffff1673ffffffffffffffffffffffffffffffffffffffff16815260200190815260200160002060008282546133fe91906151b4565b925050819055506002600083815260200190815260200160002060006101000a81549073ffffffffffffffffffffffffffffffffffffffff021916905581600073ffffffffffffffffffffffffffffffffffffffff168273ffffffffffffffffffffffffffffffffffffffff167fddf252ad1be2c89b69c2b068fc378daa952ba7f163c4a11628f55a4df523b3ef60405160405180910390a45050565b600080823b905060008111915050919050565b606060008214156134f6576040518060400160405280600181526020017f30000000000000000000000000000000000000000000000000000000000000008152509050613629565b600082905060005b6000821461352857808061351190615635565b915050600a8261352191906156ad565b91506134fe565b60008167ffffffffffffffff81111561354457613543613f26565b5b6040519080825280601f01601f1916602001820160405280156135765781602001600182028036833780820191505090505b5090505b600085146136225760018261358f91906151b4565b9150600a8561359e91906156de565b60306135aa91906151e8565b7f0100000000000000000000000000000000000000000000000000000000000000028183815181106135df576135de614b79565b5b60200101907effffffffffffffffffffffffffffffffffffffffffffffffffffffffffffff1916908160001a905350600a8561361b91906156ad565b945061357a565b8093505050505b919050565b600073ffffffffffffffffffffffffffffffffffffffff168273ffffffffffffffffffffffffffffffffffffffff16141561369e576040517f08c379a00000000000000000000000000000000000000000000000000000000081526004016136959061575b565b60405180910390fd5b6136a7816124e4565b156136e7576040517f08c379a00000000000000000000000000000000000000000000000000000000081526004016136de906157c7565b60405180910390fd5b6136f360008383612ed0565b6001600360008473ffffffffffffffffffffffffffffffffffffffff1673ffffffffffffffffffffffffffffffffffffffff168152602001908152602001600020600082825461374391906151e8565b92505081905550816002600083815260200190815260200160002060006101000a81548173ffffffffffffffffffffffffffffffffffffffff021916908373ffffffffffffffffffffffffffffffffffffffff160217905550808273ffffffffffffffffffffffffffffffffffffffff16600073ffffffffffffffffffffffffffffffffffffffff167fddf252ad1be2c89b69c2b068fc378daa952ba7f163c4a11628f55a4df523b3ef60405160405180910390a45050565b505050565b6008805490506009600083815260200190815260200160002081905550600881908060018154018082558091505060019003906000526020600020016000909190919091505550565b600060016138578461162c565b61386191906151b4565b9050600060076000848152602001908152602001600020549050818114613946576000600660008673ffffffffffffffffffffffffffffffffffffffff1673ffffffffffffffffffffffffffffffffffffffff168152602001908152602001600020600084815260200190815260200160002054905080600660008773ffffffffffffffffffffffffffffffffffffffff1673ffffffffffffffffffffffffffffffffffffffff168152602001908152602001600020600084815260200190815260200160002081905550816007600083815260200190815260200160002081905550505b6007600084815260200190815260200160002060009055600660008573ffffffffffffffffffffffffffffffffffffffff1673ffffffffffffffffffffffffffffffffffffffff16815260200190815260200160002060008381526020019081526020016000206000905550505050565b600060016008805490506139cb91906151b4565b90506000600960008481526020019081526020016000205490506000600883815481106139fb576139fa614b79565b5b906000526020600020015490508060088381548110613a1d57613a1c614b79565b5b906000526020600020018190555081600960008381526020019081526020016000208190555060096000858152602001908152602001600020600090556008805480613a6c57613a6b6157e7565b5b6001900381819060005260206000200160009055905550505050565b6000613a938361162c565b905081600660008573ffffffffffffffffffffffffffffffffffffffff1673ffffffffffffffffffffffffffffffffffffffff168152602001908152602001600020600083815260200190815260200160002081905550806007600084815260200190815260200160002081905550505050565b828054613b13906144bb565b90600052602060002090601f016020900481019282613b355760008555613b7c565b82601f10613b4e57805160ff1916838001178555613b7c565b82800160010185558215613b7c579182015b82811115613b7b578251825591602001919060010190613b60565b5b509050613b899190613bcd565b5090565b508054613b99906144bb565b6000825580601f10613bab5750613bca565b601f016020900490600052602060002090810190613bc99190613bcd565b5b50565b5b80821115613be6576000816000905550600101613bce565b5090565b6000604051905090565b600080fd5b600080fd5b60007fffffffff0000000000000000000000000000000000000000000000000000000082169050919050565b613c3381613bfe565b8114613c3e57600080fd5b50565b600081359050613c5081613c2a565b92915050565b600060208284031215613c6c57613c6b613bf4565b5b6000613c7a84828501613c41565b91505092915050565b60008115159050919050565b613c9881613c83565b82525050565b6000602082019050613cb36000830184613c8f565b92915050565b600081519050919050565b600082825260208201905092915050565b60005b83811015613cf3578082015181840152602081019050613cd8565b83811115613d02576000848401525b50505050565b6000601f19601f8301169050919050565b6000613d2482613cb9565b613d2e8185613cc4565b9350613d3e818560208601613cd5565b613d4781613d08565b840191505092915050565b60006020820190508181036000830152613d6c8184613d19565b905092915050565b6000819050919050565b613d8781613d74565b8114613d9257600080fd5b50565b600081359050613da481613d7e565b92915050565b600060208284031215613dc057613dbf613bf4565b5b6000613dce84828501613d95565b91505092915050565b600073ffffffffffffffffffffffffffffffffffffffff82169050919050565b6000613e0282613dd7565b9050919050565b613e1281613df7565b82525050565b6000602082019050613e2d6000830184613e09565b92915050565b613e3c81613df7565b8114613e4757600080fd5b50565b600081359050613e5981613e33565b92915050565b60008060408385031215613e7657613e75613bf4565b5b6000613e8485828601613e4a565b9250506020613e9585828601613d95565b9150509250929050565b613ea881613d74565b82525050565b6000602082019050613ec36000830184613e9f565b92915050565b600080600060608486031215613ee257613ee1613bf4565b5b6000613ef086828701613e4a565b9350506020613f0186828701613e4a565b9250506040613f1286828701613d95565b9150509250925092565b600080fd5b600080fd5b7f4e487b7100000000000000000000000000000000000000000000000000000000600052604160045260246000fd5b613f5e82613d08565b810181811067ffffffffffffffff82111715613f7d57613f7c613f26565b5b80604052505050565b6000613f90613bea565b9050613f9c8282613f55565b919050565b600067ffffffffffffffff821115613fbc57613fbb613f26565b5b613fc582613d08565b9050602081019050919050565b82818337600083830152505050565b6000613ff4613fef84613fa1565b613f86565b9050828152602081018484840111156140105761400f613f21565b5b61401b848285613fd2565b509392505050565b600082601f83011261403857614037613f1c565b5b8135614048848260208601613fe1565b91505092915050565b6000806000806080858703121561406b5761406a613bf4565b5b600085013567ffffffffffffffff81111561408957614088613bf9565b5b61409587828801614023565b94505060206140a687828801613d95565b93505060406140b787828801613d95565b925050606085013567ffffffffffffffff8111156140d8576140d7613bf9565b5b6140e487828801614023565b91505092959194509250565b60006020828403121561410657614105613bf4565b5b600061411484828501613e4a565b91505092915050565b7f4e487b7100000000000000000000000000000000000000000000000000000000600052602160045260246000fd5b6004811061415d5761415c61411d565b5b50565b600081905061416e8261414c565b919050565b600061417e82614160565b9050919050565b61418e81614173565b82525050565b6000610100820190506141aa600083018b613e9f565b81810360208301526141bc818a613d19565b90506141cb6040830189613e9f565b6141d86060830188613e9f565b6141e56080830187613e09565b6141f260a0830186613e09565b6141ff60c0830185614185565b81810360e08301526142118184613d19565b90509998505050505050505050565b6000806040838503121561423757614236613bf4565b5b600061424585828601613d95565b925050602061425685828601613d95565b9150509250929050565b61426981613c83565b811461427457600080fd5b50565b60008135905061428681614260565b92915050565b600080604083850312156142a3576142a2613bf4565b5b60006142b185828601613e4a565b92505060206142c285828601614277565b9150509250929050565b600067ffffffffffffffff8211156142e7576142e6613f26565b5b6142f082613d08565b9050602081019050919050565b600061431061430b846142cc565b613f86565b90508281526020810184848401111561432c5761432b613f21565b5b614337848285613fd2565b509392505050565b600082601f83011261435457614353613f1c565b5b81356143648482602086016142fd565b91505092915050565b6000806000806080858703121561438757614386613bf4565b5b600061439587828801613e4a565b94505060206143a687828801613e4a565b93505060406143b787828801613d95565b925050606085013567ffffffffffffffff8111156143d8576143d7613bf9565b5b6143e48782880161433f565b91505092959194509250565b6000806040838503121561440757614406613bf4565b5b600061441585828601613e4a565b925050602083013567ffffffffffffffff81111561443657614435613bf9565b5b61444285828601614023565b9150509250929050565b6000806040838503121561446357614462613bf4565b5b600061447185828601613e4a565b925050602061448285828601613e4a565b9150509250929050565b7f4e487b7100000000000000000000000000000000000000000000000000000000600052602260045260246000fd5b600060028204905060018216806144d357607f821691505b602082108114156144e7576144e661448c565b5b50919050565b7f4552433732313a20617070726f76656420717565727920666f72206e6f6e657860008201527f697374656e7420746f6b656e0000000000000000000000000000000000000000602082015250565b6000614549602c83613cc4565b9150614554826144ed565b604082019050919050565b600060208201905081810360008301526145788161453c565b9050919050565b7f4552433732313a20617070726f76616c20746f2063757272656e74206f776e6560008201527f7200000000000000000000000000000000000000000000000000000000000000602082015250565b60006145db602183613cc4565b91506145e68261457f565b604082019050919050565b6000602082019050818103600083015261460a816145ce565b9050919050565b7f4552433732313a20617070726f76652063616c6c6572206973206e6f74206f7760008201527f6e6572206e6f7220617070726f76656420666f7220616c6c0000000000000000602082015250565b600061466d603883613cc4565b915061467882614611565b604082019050919050565b6000602082019050818103600083015261469c81614660565b9050919050565b7f546865206173736574206973206e6f742063757272656e746c79206265696e6760008201527f20736f6c64000000000000000000000000000000000000000000000000000000602082015250565b60006146ff602583613cc4565b915061470a826146a3565b604082019050919050565b6000602082019050818103600083015261472e816146f2565b9050919050565b7f596f752061726520616c726561647920746865206f776e6572206f662074686960008201527f7320617373657400000000000000000000000000000000000000000000000000602082015250565b6000614791602783613cc4565b915061479c82614735565b604082019050919050565b600060208201905081810360008301526147c081614784565b9050919050565b7f5468697320746f6b656e20646f6573206e6f7420657869737400000000000000600082015250565b60006147fd601983613cc4565b9150614808826147c7565b602082019050919050565b6000602082019050818103600083015261482c816147f0565b9050919050565b7f596f75206861766520696e73756666696369656e742066756e64730000000000600082015250565b6000614869601b83613cc4565b915061487482614833565b602082019050919050565b600060208201905081810360008301526148988161485c565b9050919050565b7f596f7520617265206e6f7420746865206f776e6572206f66207468697320617360008201527f7365740000000000000000000000000000000000000000000000000000000000602082015250565b60006148fb602383613cc4565b91506149068261489f565b604082019050919050565b6000602082019050818103600083015261492a816148ee565b9050919050565b7f5468697320617373657420686173206e6f74206265656e207265706f7274656460008201527f206c6f7374206f722073746f6c656e0000000000000000000000000000000000602082015250565b600061498d602f83613cc4565b915061499882614931565b604082019050919050565b600060208201905081810360008301526149bc81614980565b9050919050565b7f4552433732313a207472616e736665722063616c6c6572206973206e6f74206f60008201527f776e6572206e6f7220617070726f766564000000000000000000000000000000602082015250565b6000614a1f603183613cc4565b9150614a2a826149c3565b604082019050919050565b60006020820190508181036000830152614a4e81614a12565b9050919050565b7f455243373231456e756d657261626c653a206f776e657220696e646578206f7560008201527f74206f6620626f756e6473000000000000000000000000000000000000000000602082015250565b6000614ab1602b83613cc4565b9150614abc82614a55565b604082019050919050565b60006020820190508181036000830152614ae081614aa4565b9050919050565b7f455243373231456e756d657261626c653a20676c6f62616c20696e646578206f60008201527f7574206f6620626f756e64730000000000000000000000000000000000000000602082015250565b6000614b43602c83613cc4565b9150614b4e82614ae7565b604082019050919050565b60006020820190508181036000830152614b7281614b36565b9050919050565b7f4e487b7100000000000000000000000000000000000000000000000000000000600052603260045260246000fd5b7f4f776e65727368697020686173206e6f74206265656e207472616e736665727260008201527f65642e0000000000000000000000000000000000000000000000000000000000602082015250565b6000614c04602383613cc4565b9150614c0f82614ba8565b604082019050919050565b60006020820190508181036000830152614c3381614bf7565b9050919050565b7f4552433732313a206f776e657220717565727920666f72206e6f6e657869737460008201527f656e7420746f6b656e0000000000000000000000000000000000000000000000602082015250565b6000614c96602983613cc4565b9150614ca182614c3a565b604082019050919050565b60006020820190508181036000830152614cc581614c89565b9050919050565b7f4552433732313a2062616c616e636520717565727920666f7220746865207a6560008201527f726f206164647265737300000000000000000000000000000000000000000000602082015250565b6000614d28602a83613cc4565b9150614d3382614ccc565b604082019050919050565b60006020820190508181036000830152614d5781614d1b565b9050919050565b7f4f776e61626c653a2063616c6c6572206973206e6f7420746865206f776e6572600082015250565b6000614d94602083613cc4565b9150614d9f82614d5e565b602082019050919050565b60006020820190508181036000830152614dc381614d87565b9050919050565b6000604082019050614ddf6000830185613e9f565b614dec6020830184613e9f565b9392505050565b7f596f7520617265206e6f7420746865206275796572206f66207468697320617360008201527f7365740000000000000000000000000000000000000000000000000000000000602082015250565b6000614e4f602383613cc4565b9150614e5a82614df3565b604082019050919050565b60006020820190508181036000830152614e7e81614e42565b9050919050565b7f5468697320617373657420686173206e6f74206265656e20736869707065642060008201527f6f7220617070726f76656420666f72206f776e657273686970207472616e736660208201527f65722e0000000000000000000000000000000000000000000000000000000000604082015250565b6000614f07604383613cc4565b9150614f1282614e85565b606082019050919050565b60006020820190508181036000830152614f3681614efa565b9050919050565b7f4f776e61626c653a206e6577206f776e657220697320746865207a65726f206160008201527f6464726573730000000000000000000000000000000000000000000000000000602082015250565b6000614f99602683613cc4565b9150614fa482614f3d565b604082019050919050565b60006020820190508181036000830152614fc881614f8c565b9050919050565b7f4552433732313a206f70657261746f7220717565727920666f72206e6f6e657860008201527f697374656e7420746f6b656e0000000000000000000000000000000000000000602082015250565b600061502b602c83613cc4565b915061503682614fcf565b604082019050919050565b6000602082019050818103600083015261505a8161501e565b9050919050565b7f4552433732313a207472616e73666572206f6620746f6b656e2074686174206960008201527f73206e6f74206f776e0000000000000000000000000000000000000000000000602082015250565b60006150bd602983613cc4565b91506150c882615061565b604082019050919050565b600060208201905081810360008301526150ec816150b0565b9050919050565b7f4552433732313a207472616e7366657220746f20746865207a65726f2061646460008201527f7265737300000000000000000000000000000000000000000000000000000000602082015250565b600061514f602483613cc4565b915061515a826150f3565b604082019050919050565b6000602082019050818103600083015261517e81615142565b9050919050565b7f4e487b7100000000000000000000000000000000000000000000000000000000600052601160045260246000fd5b60006151bf82613d74565b91506151ca83613d74565b9250828210156151dd576151dc615185565b5b828203905092915050565b60006151f382613d74565b91506151fe83613d74565b9250827fffffffffffffffffffffffffffffffffffffffffffffffffffffffffffffffff0382111561523357615232615185565b5b828201905092915050565b7f4552433732313a20617070726f766520746f2063616c6c657200000000000000600082015250565b6000615274601983613cc4565b915061527f8261523e565b602082019050919050565b600060208201905081810360008301526152a381615267565b9050919050565b7f4552433732313a207472616e7366657220746f206e6f6e20455243373231526560008201527f63656976657220696d706c656d656e7465720000000000000000000000000000602082015250565b6000615306603283613cc4565b9150615311826152aa565b604082019050919050565b60006020820190508181036000830152615335816152f9565b9050919050565b7f45524337323155524953746f726167653a2055524920717565727920666f722060008201527f6e6f6e6578697374656e7420746f6b656e000000000000000000000000000000602082015250565b6000615398603183613cc4565b91506153a38261533c565b604082019050919050565b600060208201905081810360008301526153c78161538b565b9050919050565b600081905092915050565b60006153e482613cb9565b6153ee81856153ce565b93506153fe818560208601613cd5565b80840191505092915050565b600061541682856153d9565b915061542282846153d9565b91508190509392505050565b7f45524337323155524953746f726167653a2055524920736574206f66206e6f6e60008201527f6578697374656e7420746f6b656e000000000000000000000000000000000000602082015250565b600061548a602e83613cc4565b91506154958261542e565b604082019050919050565b600060208201905081810360008301526154b98161547d565b9050919050565b600081519050919050565b600082825260208201905092915050565b60006154e7826154c0565b6154f181856154cb565b9350615501818560208601613cd5565b61550a81613d08565b840191505092915050565b600060808201905061552a6000830187613e09565b6155376020830186613e09565b6155446040830185613e9f565b818103606083015261555681846154dc565b905095945050505050565b60008151905061557081613c2a565b92915050565b60006020828403121561558c5761558b613bf4565b5b600061559a84828501615561565b91505092915050565b7f4552433732314d657461646174613a2055524920717565727920666f72206e6f60008201527f6e6578697374656e7420746f6b656e0000000000000000000000000000000000602082015250565b60006155ff602f83613cc4565b915061560a826155a3565b604082019050919050565b6000602082019050818103600083015261562e816155f2565b9050919050565b600061564082613d74565b91507fffffffffffffffffffffffffffffffffffffffffffffffffffffffffffffffff82141561567357615672615185565b5b600182019050919050565b7f4e487b7100000000000000000000000000000000000000000000000000000000600052601260045260246000fd5b60006156b882613d74565b91506156c383613d74565b9250826156d3576156d261567e565b5b828204905092915050565b60006156e982613d74565b91506156f483613d74565b9250826157045761570361567e565b5b828206905092915050565b7f4552433732313a206d696e7420746f20746865207a65726f2061646472657373600082015250565b6000615745602083613cc4565b91506157508261570f565b602082019050919050565b6000602082019050818103600083015261577481615738565b9050919050565b7f4552433732313a20746f6b656e20616c7265616479206d696e74656400000000600082015250565b60006157b1601c83613cc4565b91506157bc8261577b565b602082019050919050565b600060208201905081810360008301526157e0816157a4565b9050919050565b7f4e487b7100000000000000000000000000000000000000000000000000000000600052603160045260246000fdfea2646970667358221220d21aa8d25974bf81be3420b4f608ad47a7ac95c18c17c112a24f292becedee7f64736f6c634300080b0033",
  "immutableReferences": {},
  "source": "// SPDX-License-Identifier: MIT\npragma solidity ^0.8.0;\n\nimport \"@openzeppelin/contracts/token/ERC721/ERC721.sol\";\nimport \"@openzeppelin/contracts/token/ERC721/extensions/ERC721Enumerable.sol\";\nimport \"@openzeppelin/contracts/token/ERC721/extensions/ERC721URIStorage.sol\";\nimport \"@openzeppelin/contracts/access/Ownable.sol\";\nimport \"@openzeppelin/contracts/utils/Counters.sol\";\n\ncontract AssetOwnership is ERC721, ERC721Enumerable, ERC721URIStorage, Ownable {\n    using Counters for Counters.Counter;\n\n    Counters.Counter private _tokenIdCounter;\n\n    constructor() ERC721(\"Asset Ownership\", \"ASSET\") {}\n\n    function safeMint(address to, string memory uri) public {\n        uint256 tokenId = _tokenIdCounter.current();\n        _tokenIdCounter.increment();\n        _safeMint(to, tokenId);\n        _setTokenURI(tokenId, uri);\n    }\n\n    // The following functions are overrides required by Solidity.\n\n    function _beforeTokenTransfer(address from, address to, uint256 tokenId)\n        internal\n        override(ERC721, ERC721Enumerable)\n    {\n        super._beforeTokenTransfer(from, to, tokenId);\n    }\n\n    function _burn(uint256 tokenId) internal override(ERC721, ERC721URIStorage) {\n        super._burn(tokenId);\n    }\n\n    function tokenURI(uint256 tokenId)\n        public\n        view\n        override(ERC721, ERC721URIStorage)\n        returns (string memory)\n    {\n        return super.tokenURI(tokenId);\n    }\n\n    function supportsInterface(bytes4 interfaceId)\n        public\n        view\n        override(ERC721, ERC721Enumerable)\n        returns (bool)\n    {\n        return super.supportsInterface(interfaceId);\n    }\n\n\n    /*****************************************************************\n     ****************************** Data ****************************\n     ****************************************************************/\n\n\n    // Function to receive Ether. msg.data must be empty\n    receive() external payable {}\n\n    // Fallback function is called when msg.data is not empty\n    fallback() external payable {}\n\n    // assets\n    mapping (uint => Asset) assets;\n\n    // asset state\n    enum State{InPossession, PendingTransfer, TransferringOwnership, LostOrStolen}\n\n    // asset struct\n    struct Asset {\n        uint tokenId;\n        string name;\n        uint serial;\n        uint value;\n        address payable buyer;\n        address payable owner;\n        State state;\n        string uri;\n    }\n\n    /*****************************************************************\n     ****************************** Events ***************************\n     ****************************************************************/\n\n    event LogInPossession(uint tokenId);\n\n    event LogSold(uint tokenId);\n\n    event LogTransferringOwnership(uint tokenId);\n    \n    event LogLostOrStolen(uint tokenId);\n\n    event LogDestroyed(uint tokenId);\n\n    event LogChangedValue(uint tokenId, uint value);\n\n    /*****************************************************************\n     **************************** Modifiers **************************\n     ****************************************************************/\n\n    modifier verifyOwner (address _address) {\n        require(msg.sender == _address, \"You are not the owner of this asset\");\n        _;\n    }\n\n    modifier verifyTokenExists (uint _tokenId) {\n        require(_exists(_tokenId), \"This token does not exist\");\n        _;\n    }\n\n\n    modifier verifyBuyer (address _address) {\n        require(msg.sender == _address, \"You are not the buyer of this asset\");\n        _;\n    }\n\n    modifier verifyNotOwner (address _address) {\n        require(msg.sender != _address, \"You are already the owner of this asset\");\n        _;\n    }\n\n    modifier inPossession (uint _tokenId) {\n        require(assets[_tokenId].state == State.InPossession, \"The asset is not currently being sold\"); \n        _;\n    }\n\n    modifier isLostorStolen (uint _tokenId) {\n        require(assets[_tokenId].state == State.LostOrStolen, \"This asset has not been reported lost or stolen\");\n        _;\n    }\n\n    modifier pendingTransfer (uint _tokenId) {\n        require(assets[_tokenId].state == State.PendingTransfer, \"Ownership has not been transferred.\");\n        _;\n    }\n\n    modifier transferringOwnership (uint _tokenId) {\n        require(assets[_tokenId].state == State.TransferringOwnership, \"This asset has not been shipped or approved for ownership transfer.\");\n        _;\n    }\n\n    modifier paidEnough (uint _value) {\n        require(msg.value >= _value, \"You have insufficient funds\");\n        _;\n    }\n\n    /*****************************************************************\n     ****************************** Logic ****************************\n     ****************************************************************/\n\n    // ADD\n    function addAsset(string memory _name, uint _serial, uint _value, string memory _uri) public returns (bool) {\n        uint tokenId = _tokenIdCounter.current();\n\n        assets[tokenId] = Asset({\n            tokenId: tokenId,\n            name: _name,\n            serial: _serial,\n            value: _value,\n            buyer: payable (address(0)),\n            owner: payable (msg.sender),\n            state: State.InPossession,\n            uri: _uri\n        });\n\n        safeMint(msg.sender, _uri);\n\n        emit LogInPossession(tokenId);\n\n        return true;\n    }\n\n    // BUY\n    function buyAsset(uint _tokenId) \n    inPossession(_tokenId) \n    verifyNotOwner(assets[_tokenId].owner) \n    verifyTokenExists(_tokenId)\n    paidEnough(assets[_tokenId].value) \n    payable public {        \n        // TODO: Change and add modifiers and make sure money is sent\n        \n        assets[_tokenId].buyer = payable(msg.sender);\n\n        assets[_tokenId].state = State.PendingTransfer;\n\n        emit LogSold(_tokenId);\n    }\n\n    // APPROVE FOR OWNERSHIP TRANSFER\n    function shipAssetAndApproveOwnershipTransfer(uint _tokenId) pendingTransfer(_tokenId) verifyOwner(assets[_tokenId].owner) verifyTokenExists(_tokenId) public {\n        _approve(assets[_tokenId].buyer, _tokenId);\n        \n        assets[_tokenId].state = State.TransferringOwnership;\n    }\n\n    // RECEIVE AND TRANSFER OWNERSHIP\n    function receiveAsset(uint _tokenId) verifyBuyer(assets[_tokenId].buyer) transferringOwnership(_tokenId) verifyTokenExists(_tokenId) payable public {\n        safeTransferFrom(assets[_tokenId].owner, assets[_tokenId].buyer, _tokenId);\n\n        assets[_tokenId].owner.transfer(assets[_tokenId].value);\n\n        assets[_tokenId].owner = payable(msg.sender);\n\n        assets[_tokenId].buyer = payable(address(0));\n        \n        assets[_tokenId].state = State.InPossession;\n\n        emit LogInPossession(_tokenId);\n    }\n\n    // CHANGE VALUE\n    function changeValueOfAsset(uint _tokenId, uint _value) verifyOwner(assets[_tokenId].owner) inPossession(_tokenId) verifyTokenExists(_tokenId) public {\n        assets[_tokenId].value = _value;\n\n        emit LogChangedValue(_tokenId, _value);\n    }\n\n    // LOST OR STOLEN\n    function reportLostOrStolen(uint _tokenId) verifyOwner(assets[_tokenId].owner) inPossession(_tokenId) verifyTokenExists(_tokenId) public {\n        assets[_tokenId].state = State.LostOrStolen;\n\n        emit LogLostOrStolen(_tokenId);\n    }\n\n    // IN POSSESSION\n    function reportFoundAndInPossession(uint _tokenId) verifyOwner(assets[_tokenId].owner) isLostorStolen(_tokenId) verifyTokenExists(_tokenId) public {\n        assets[_tokenId].state = State.InPossession;\n\n        emit LogInPossession(_tokenId);\n    }\n\n    // DESTROY\n    function destroyAsset(uint _tokenId) verifyOwner(assets[_tokenId].owner) inPossession(_tokenId) verifyTokenExists(_tokenId) public {\n        _burn(_tokenId);\n        emit LogDestroyed(_tokenId);\n    }\n\n\n    // FETCH\n    function fetchAsset(uint _tokenId) verifyTokenExists(_tokenId) public view \n    returns (uint tokenId, string memory name, uint serial, uint value, address buyer, address _owner, State state, string memory uri) {\n        tokenId = assets[_tokenId].tokenId;\n        name = assets[_tokenId].name;\n        serial = assets[_tokenId].serial;\n        value = assets[_tokenId].value;\n        buyer = assets[_tokenId].buyer;\n        _owner = assets[_tokenId].owner;\n        state = assets[_tokenId].state;\n        uri = assets[_tokenId].uri;\n\n        return (tokenId, name, serial, value, buyer, _owner, state, uri);\n    }\n}",
  "sourcePath": "/Users/leo/sandbox/blockchain/blockchain-developer-bootcamp-final-project/contracts/AssetOwnership.sol",
  "compiler": {
    "name": "solc",
    "version": "0.8.11+commit.d7f03943.Emscripten.clang"
  },
  "schemaVersion": "3.4.3",
  "updatedAt": "2022-01-15T05:14:03.522Z",
  "networkType": "ethereum",
  "devdoc": {
    "kind": "dev",
    "methods": {
      "approve(address,uint256)": {
        "details": "See {IERC721-approve}."
      },
      "balanceOf(address)": {
        "details": "See {IERC721-balanceOf}."
      },
      "getApproved(uint256)": {
        "details": "See {IERC721-getApproved}."
      },
      "isApprovedForAll(address,address)": {
        "details": "See {IERC721-isApprovedForAll}."
      },
      "name()": {
        "details": "See {IERC721Metadata-name}."
      },
      "owner()": {
        "details": "Returns the address of the current owner."
      },
      "ownerOf(uint256)": {
        "details": "See {IERC721-ownerOf}."
      },
      "renounceOwnership()": {
        "details": "Leaves the contract without owner. It will not be possible to call `onlyOwner` functions anymore. Can only be called by the current owner. NOTE: Renouncing ownership will leave the contract without an owner, thereby removing any functionality that is only available to the owner."
      },
      "safeTransferFrom(address,address,uint256)": {
        "details": "See {IERC721-safeTransferFrom}."
      },
      "safeTransferFrom(address,address,uint256,bytes)": {
        "details": "See {IERC721-safeTransferFrom}."
      },
      "setApprovalForAll(address,bool)": {
        "details": "See {IERC721-setApprovalForAll}."
      },
      "symbol()": {
        "details": "See {IERC721Metadata-symbol}."
      },
      "tokenByIndex(uint256)": {
        "details": "See {IERC721Enumerable-tokenByIndex}."
      },
      "tokenOfOwnerByIndex(address,uint256)": {
        "details": "See {IERC721Enumerable-tokenOfOwnerByIndex}."
      },
      "totalSupply()": {
        "details": "See {IERC721Enumerable-totalSupply}."
      },
      "transferFrom(address,address,uint256)": {
        "details": "See {IERC721-transferFrom}."
      },
      "transferOwnership(address)": {
        "details": "Transfers ownership of the contract to a new account (`newOwner`). Can only be called by the current owner."
      }
    },
    "version": 1
  },
  "userdoc": {
    "kind": "user",
    "methods": {},
    "version": 1
  }
}