{
  "contractName": "AssetOwnership",
  "abi": [
    {
      "inputs": [],
      "stateMutability": "nonpayable",
      "type": "constructor"
    },
    {
      "anonymous": false,
      "inputs": [
        {
          "indexed": true,
          "internalType": "address",
          "name": "owner",
          "type": "address"
        },
        {
          "indexed": true,
          "internalType": "address",
          "name": "approved",
          "type": "address"
        },
        {
          "indexed": true,
          "internalType": "uint256",
          "name": "tokenId",
          "type": "uint256"
        }
      ],
      "name": "Approval",
      "type": "event"
    },
    {
      "anonymous": false,
      "inputs": [
        {
          "indexed": true,
          "internalType": "address",
          "name": "owner",
          "type": "address"
        },
        {
          "indexed": true,
          "internalType": "address",
          "name": "operator",
          "type": "address"
        },
        {
          "indexed": false,
          "internalType": "bool",
          "name": "approved",
          "type": "bool"
        }
      ],
      "name": "ApprovalForAll",
      "type": "event"
    },
    {
      "anonymous": false,
      "inputs": [
        {
          "indexed": false,
          "internalType": "uint256",
          "name": "tokenId",
          "type": "uint256"
        },
        {
          "indexed": false,
          "internalType": "uint256",
          "name": "value",
          "type": "uint256"
        }
      ],
      "name": "LogChangedValue",
      "type": "event"
    },
    {
      "anonymous": false,
      "inputs": [
        {
          "indexed": false,
          "internalType": "uint256",
          "name": "tokenId",
          "type": "uint256"
        }
      ],
      "name": "LogDestroyed",
      "type": "event"
    },
    {
      "anonymous": false,
      "inputs": [
        {
          "indexed": false,
          "internalType": "uint256",
          "name": "tokenId",
          "type": "uint256"
        }
      ],
      "name": "LogInPossession",
      "type": "event"
    },
    {
      "anonymous": false,
      "inputs": [
        {
          "indexed": false,
          "internalType": "uint256",
          "name": "tokenId",
          "type": "uint256"
        }
      ],
      "name": "LogLostOrStolen",
      "type": "event"
    },
    {
      "anonymous": false,
      "inputs": [
        {
          "indexed": false,
          "internalType": "uint256",
          "name": "tokenId",
          "type": "uint256"
        }
      ],
      "name": "LogSold",
      "type": "event"
    },
    {
      "anonymous": false,
      "inputs": [
        {
          "indexed": false,
          "internalType": "uint256",
          "name": "tokenId",
          "type": "uint256"
        }
      ],
      "name": "LogTransferringOwnership",
      "type": "event"
    },
    {
      "anonymous": false,
      "inputs": [
        {
          "indexed": true,
          "internalType": "address",
          "name": "previousOwner",
          "type": "address"
        },
        {
          "indexed": true,
          "internalType": "address",
          "name": "newOwner",
          "type": "address"
        }
      ],
      "name": "OwnershipTransferred",
      "type": "event"
    },
    {
      "anonymous": false,
      "inputs": [
        {
          "indexed": true,
          "internalType": "address",
          "name": "from",
          "type": "address"
        },
        {
          "indexed": true,
          "internalType": "address",
          "name": "to",
          "type": "address"
        },
        {
          "indexed": true,
          "internalType": "uint256",
          "name": "tokenId",
          "type": "uint256"
        }
      ],
      "name": "Transfer",
      "type": "event"
    },
    {
      "stateMutability": "payable",
      "type": "fallback"
    },
    {
      "inputs": [
        {
          "internalType": "address",
          "name": "to",
          "type": "address"
        },
        {
          "internalType": "uint256",
          "name": "tokenId",
          "type": "uint256"
        }
      ],
      "name": "approve",
      "outputs": [],
      "stateMutability": "nonpayable",
      "type": "function"
    },
    {
      "inputs": [
        {
          "internalType": "address",
          "name": "owner",
          "type": "address"
        }
      ],
      "name": "balanceOf",
      "outputs": [
        {
          "internalType": "uint256",
          "name": "",
          "type": "uint256"
        }
      ],
      "stateMutability": "view",
      "type": "function"
    },
    {
      "inputs": [
        {
          "internalType": "uint256",
          "name": "tokenId",
          "type": "uint256"
        }
      ],
      "name": "getApproved",
      "outputs": [
        {
          "internalType": "address",
          "name": "",
          "type": "address"
        }
      ],
      "stateMutability": "view",
      "type": "function"
    },
    {
      "inputs": [
        {
          "internalType": "address",
          "name": "owner",
          "type": "address"
        },
        {
          "internalType": "address",
          "name": "operator",
          "type": "address"
        }
      ],
      "name": "isApprovedForAll",
      "outputs": [
        {
          "internalType": "bool",
          "name": "",
          "type": "bool"
        }
      ],
      "stateMutability": "view",
      "type": "function"
    },
    {
      "inputs": [],
      "name": "name",
      "outputs": [
        {
          "internalType": "string",
          "name": "",
          "type": "string"
        }
      ],
      "stateMutability": "view",
      "type": "function"
    },
    {
      "inputs": [],
      "name": "owner",
      "outputs": [
        {
          "internalType": "address",
          "name": "",
          "type": "address"
        }
      ],
      "stateMutability": "view",
      "type": "function"
    },
    {
      "inputs": [
        {
          "internalType": "uint256",
          "name": "tokenId",
          "type": "uint256"
        }
      ],
      "name": "ownerOf",
      "outputs": [
        {
          "internalType": "address",
          "name": "",
          "type": "address"
        }
      ],
      "stateMutability": "view",
      "type": "function"
    },
    {
      "inputs": [],
      "name": "renounceOwnership",
      "outputs": [],
      "stateMutability": "nonpayable",
      "type": "function"
    },
    {
      "inputs": [
        {
          "internalType": "address",
          "name": "from",
          "type": "address"
        },
        {
          "internalType": "address",
          "name": "to",
          "type": "address"
        },
        {
          "internalType": "uint256",
          "name": "tokenId",
          "type": "uint256"
        }
      ],
      "name": "safeTransferFrom",
      "outputs": [],
      "stateMutability": "nonpayable",
      "type": "function"
    },
    {
      "inputs": [
        {
          "internalType": "address",
          "name": "from",
          "type": "address"
        },
        {
          "internalType": "address",
          "name": "to",
          "type": "address"
        },
        {
          "internalType": "uint256",
          "name": "tokenId",
          "type": "uint256"
        },
        {
          "internalType": "bytes",
          "name": "_data",
          "type": "bytes"
        }
      ],
      "name": "safeTransferFrom",
      "outputs": [],
      "stateMutability": "nonpayable",
      "type": "function"
    },
    {
      "inputs": [
        {
          "internalType": "address",
          "name": "operator",
          "type": "address"
        },
        {
          "internalType": "bool",
          "name": "approved",
          "type": "bool"
        }
      ],
      "name": "setApprovalForAll",
      "outputs": [],
      "stateMutability": "nonpayable",
      "type": "function"
    },
    {
      "inputs": [],
      "name": "symbol",
      "outputs": [
        {
          "internalType": "string",
          "name": "",
          "type": "string"
        }
      ],
      "stateMutability": "view",
      "type": "function"
    },
    {
      "inputs": [
        {
          "internalType": "uint256",
          "name": "index",
          "type": "uint256"
        }
      ],
      "name": "tokenByIndex",
      "outputs": [
        {
          "internalType": "uint256",
          "name": "",
          "type": "uint256"
        }
      ],
      "stateMutability": "view",
      "type": "function"
    },
    {
      "inputs": [
        {
          "internalType": "address",
          "name": "owner",
          "type": "address"
        },
        {
          "internalType": "uint256",
          "name": "index",
          "type": "uint256"
        }
      ],
      "name": "tokenOfOwnerByIndex",
      "outputs": [
        {
          "internalType": "uint256",
          "name": "",
          "type": "uint256"
        }
      ],
      "stateMutability": "view",
      "type": "function"
    },
    {
      "inputs": [],
      "name": "totalSupply",
      "outputs": [
        {
          "internalType": "uint256",
          "name": "",
          "type": "uint256"
        }
      ],
      "stateMutability": "view",
      "type": "function"
    },
    {
      "inputs": [
        {
          "internalType": "address",
          "name": "from",
          "type": "address"
        },
        {
          "internalType": "address",
          "name": "to",
          "type": "address"
        },
        {
          "internalType": "uint256",
          "name": "tokenId",
          "type": "uint256"
        }
      ],
      "name": "transferFrom",
      "outputs": [],
      "stateMutability": "nonpayable",
      "type": "function"
    },
    {
      "inputs": [
        {
          "internalType": "address",
          "name": "newOwner",
          "type": "address"
        }
      ],
      "name": "transferOwnership",
      "outputs": [],
      "stateMutability": "nonpayable",
      "type": "function"
    },
    {
      "stateMutability": "payable",
      "type": "receive"
    },
    {
      "inputs": [
        {
          "internalType": "address",
          "name": "to",
          "type": "address"
        },
        {
          "internalType": "string",
          "name": "uri",
          "type": "string"
        }
      ],
      "name": "safeMint",
      "outputs": [],
      "stateMutability": "nonpayable",
      "type": "function"
    },
    {
      "inputs": [
        {
          "internalType": "uint256",
          "name": "tokenId",
          "type": "uint256"
        }
      ],
      "name": "tokenURI",
      "outputs": [
        {
          "internalType": "string",
          "name": "",
          "type": "string"
        }
      ],
      "stateMutability": "view",
      "type": "function"
    },
    {
      "inputs": [
        {
          "internalType": "bytes4",
          "name": "interfaceId",
          "type": "bytes4"
        }
      ],
      "name": "supportsInterface",
      "outputs": [
        {
          "internalType": "bool",
          "name": "",
          "type": "bool"
        }
      ],
      "stateMutability": "view",
      "type": "function"
    },
    {
      "inputs": [
        {
          "internalType": "string",
          "name": "_name",
          "type": "string"
        },
        {
          "internalType": "uint256",
          "name": "_serial",
          "type": "uint256"
        },
        {
          "internalType": "uint256",
          "name": "_value",
          "type": "uint256"
        },
        {
          "internalType": "string",
          "name": "_uri",
          "type": "string"
        }
      ],
      "name": "addAsset",
      "outputs": [
        {
          "internalType": "bool",
          "name": "",
          "type": "bool"
        }
      ],
      "stateMutability": "nonpayable",
      "type": "function"
    },
    {
      "inputs": [
        {
          "internalType": "uint256",
          "name": "_tokenId",
          "type": "uint256"
        }
      ],
      "name": "buyAsset",
      "outputs": [],
      "stateMutability": "payable",
      "type": "function"
    },
    {
      "inputs": [
        {
          "internalType": "uint256",
          "name": "_tokenId",
          "type": "uint256"
        }
      ],
      "name": "shipAssetAndApproveOwnershipTransfer",
      "outputs": [],
      "stateMutability": "nonpayable",
      "type": "function"
    },
    {
      "inputs": [
        {
          "internalType": "uint256",
          "name": "_tokenId",
          "type": "uint256"
        }
      ],
      "name": "receiveAsset",
      "outputs": [],
      "stateMutability": "payable",
      "type": "function"
    },
    {
      "inputs": [
        {
          "internalType": "uint256",
          "name": "_tokenId",
          "type": "uint256"
        },
        {
          "internalType": "uint256",
          "name": "_value",
          "type": "uint256"
        }
      ],
      "name": "changeValueOfAsset",
      "outputs": [],
      "stateMutability": "nonpayable",
      "type": "function"
    },
    {
      "inputs": [
        {
          "internalType": "uint256",
          "name": "_tokenId",
          "type": "uint256"
        }
      ],
      "name": "reportLostOrStolen",
      "outputs": [],
      "stateMutability": "nonpayable",
      "type": "function"
    },
    {
      "inputs": [
        {
          "internalType": "uint256",
          "name": "_tokenId",
          "type": "uint256"
        }
      ],
      "name": "reportFoundAndInPossession",
      "outputs": [],
      "stateMutability": "nonpayable",
      "type": "function"
    },
    {
      "inputs": [
        {
          "internalType": "uint256",
          "name": "_tokenId",
          "type": "uint256"
        }
      ],
      "name": "destroyAsset",
      "outputs": [],
      "stateMutability": "nonpayable",
      "type": "function"
    },
    {
      "inputs": [
        {
          "internalType": "uint256",
          "name": "_tokenId",
          "type": "uint256"
        }
      ],
      "name": "fetchAsset",
      "outputs": [
        {
          "internalType": "uint256",
          "name": "tokenId",
          "type": "uint256"
        },
        {
          "internalType": "string",
          "name": "name",
          "type": "string"
        },
        {
          "internalType": "uint256",
          "name": "serial",
          "type": "uint256"
        },
        {
          "internalType": "uint256",
          "name": "value",
          "type": "uint256"
        },
        {
          "internalType": "address",
          "name": "buyer",
          "type": "address"
        },
        {
          "internalType": "address",
          "name": "_owner",
          "type": "address"
        },
        {
          "internalType": "enum AssetOwnership.State",
          "name": "state",
          "type": "uint8"
        },
        {
          "internalType": "string",
          "name": "uri",
          "type": "string"
        }
      ],
      "stateMutability": "view",
      "type": "function"
    },
    {
      "inputs": [],
      "name": "fetchAssetList",
      "outputs": [
        {
          "components": [
            {
              "internalType": "uint256",
              "name": "tokenId",
              "type": "uint256"
            },
            {
              "internalType": "string",
              "name": "name",
              "type": "string"
            },
            {
              "internalType": "uint256",
              "name": "serial",
              "type": "uint256"
            },
            {
              "internalType": "uint256",
              "name": "value",
              "type": "uint256"
            },
            {
              "internalType": "address payable",
              "name": "buyer",
              "type": "address"
            },
            {
              "internalType": "address payable",
              "name": "owner",
              "type": "address"
            },
            {
              "internalType": "enum AssetOwnership.State",
              "name": "state",
              "type": "uint8"
            },
            {
              "internalType": "string",
              "name": "uri",
              "type": "string"
            }
          ],
          "internalType": "struct AssetOwnership.Asset[]",
          "name": "listOfAssets",
          "type": "tuple[]"
        }
      ],
      "stateMutability": "view",
      "type": "function"
    }
  ],
  "bytecode": "0x60806040523480156200001157600080fd5b506040518060400160405280600f81526020017f4173736574204f776e65727368697000000000000000000000000000000000008152506040518060400160405280600581526020017f4153534554000000000000000000000000000000000000000000000000000000815250816000908051906020019062000096929190620001b8565b508060019080519060200190620000af929190620001b8565b505050620000e4620000cf620000ea640100000000026401000000009004565b620000f2640100000000026401000000009004565b620002cd565b600033905090565b6000600b60009054906101000a900473ffffffffffffffffffffffffffffffffffffffff16905081600b60006101000a81548173ffffffffffffffffffffffffffffffffffffffff021916908373ffffffffffffffffffffffffffffffffffffffff1602179055508173ffffffffffffffffffffffffffffffffffffffff168173ffffffffffffffffffffffffffffffffffffffff167f8be0079c531659141344cd1fd0a4f28419497f9722a3daafe3b4186f6b6457e060405160405180910390a35050565b828054620001c69062000297565b90600052602060002090601f016020900481019282620001ea576000855562000236565b82601f106200020557805160ff191683800117855562000236565b8280016001018555821562000236579182015b828111156200023557825182559160200191906001019062000218565b5b50905062000245919062000249565b5090565b5b80821115620002645760008160009055506001016200024a565b5090565b7f4e487b7100000000000000000000000000000000000000000000000000000000600052602260045260246000fd5b60006002820490506001821680620002b057607f821691505b60208210811415620002c757620002c662000268565b5b50919050565b615f6580620002dd6000396000f3fe6080604052600436106101ee576000357c01000000000000000000000000000000000000000000000000000000009004806370a0823111610114578063a22cb465116100b2578063ccc8ad1211610081578063ccc8ad12146106c7578063d204c45e146106e3578063e985e9c51461070c578063f2fde38b14610749576101f5565b8063a22cb4651461060d578063a289ebe714610636578063b88d4fde14610661578063c87b56dd1461068a576101f5565b80638da5cb5b116100ee5780638da5cb5b146105655780638da6074a1461059057806395d89b41146105b9578063999d0698146105e4576101f5565b806370a08231146104cd578063715018a61461050a5780637956073b14610521576101f5565b806323b872dd1161018c578063474c15201161015b578063474c1520146104015780634f6ccce71461042a578063624fb4c9146104675780636352211e14610490576101f5565b806323b872dd146103355780632f745c591461035e57806337f8c1791461039b57806342842e0e146103d8576101f5565b8063095ea7b3116101c8578063095ea7b31461029c578063110d35b8146102c557806318160ddd146102e1578063202115871461030c576101f5565b806301ffc9a7146101f757806306fdde0314610234578063081812fc1461025f576101f5565b366101f557005b005b34801561020357600080fd5b5061021e6004803603810190610219919061414b565b610772565b60405161022b9190614193565b60405180910390f35b34801561024057600080fd5b50610249610784565b6040516102569190614247565b60405180910390f35b34801561026b57600080fd5b506102866004803603810190610281919061429f565b610816565b604051610293919061430d565b60405180910390f35b3480156102a857600080fd5b506102c360048036038101906102be9190614354565b61089b565b005b6102df60048036038101906102da919061429f565b6109b3565b005b3480156102ed57600080fd5b506102f6610c59565b60405161030391906143a3565b60405180910390f35b34801561031857600080fd5b50610333600480360381019061032e919061429f565b610c66565b005b34801561034157600080fd5b5061035c600480360381019061035791906143be565b610e5a565b005b34801561036a57600080fd5b5061038560048036038101906103809190614354565b610eba565b60405161039291906143a3565b60405180910390f35b3480156103a757600080fd5b506103c260048036038101906103bd9190614546565b610f5f565b6040516103cf9190614193565b60405180910390f35b3480156103e457600080fd5b506103ff60048036038101906103fa91906143be565b61130b565b005b34801561040d57600080fd5b506104286004803603810190610423919061429f565b61132b565b005b34801561043657600080fd5b50610451600480360381019061044c919061429f565b6114ea565b60405161045e91906143a3565b60405180910390f35b34801561047357600080fd5b5061048e6004803603810190610489919061429f565b61155b565b005b34801561049c57600080fd5b506104b760048036038101906104b2919061429f565b611759565b6040516104c4919061430d565b60405180910390f35b3480156104d957600080fd5b506104f460048036038101906104ef91906145e5565b61180b565b60405161050191906143a3565b60405180910390f35b34801561051657600080fd5b5061051f6118c3565b005b34801561052d57600080fd5b506105486004803603810190610543919061429f565b61194b565b60405161055c989796959493929190614689565b60405180910390f35b34801561057157600080fd5b5061057a611bd3565b604051610587919061430d565b60405180910390f35b34801561059c57600080fd5b506105b760048036038101906105b29190614715565b611bfd565b005b3480156105c557600080fd5b506105ce611dd1565b6040516105db9190614247565b60405180910390f35b3480156105f057600080fd5b5061060b6004803603810190610606919061429f565b611e63565b005b34801561061957600080fd5b50610634600480360381019061062f9190614781565b612058565b005b34801561064257600080fd5b5061064b61206e565b60405161065891906149c3565b60405180910390f35b34801561066d57600080fd5b5061068860048036038101906106839190614a86565b6122f7565b005b34801561069657600080fd5b506106b160048036038101906106ac919061429f565b612359565b6040516106be9190614247565b60405180910390f35b6106e160048036038101906106dc919061429f565b61236b565b005b3480156106ef57600080fd5b5061070a60048036038101906107059190614b09565b612715565b005b34801561071857600080fd5b50610733600480360381019061072e9190614b65565b612746565b6040516107409190614193565b60405180910390f35b34801561075557600080fd5b50610770600480360381019061076b91906145e5565b6127da565b005b600061077d826128d2565b9050919050565b60606000805461079390614bd4565b80601f01602080910402602001604051908101604052809291908181526020018280546107bf90614bd4565b801561080c5780601f106107e15761010080835404028352916020019161080c565b820191906000526020600020905b8154815290600101906020018083116107ef57829003601f168201915b5050505050905090565b60006108218261294c565b610860576040517f08c379a000000000000000000000000000000000000000000000000000000000815260040161085790614c78565b60405180910390fd5b6004600083815260200190815260200160002060009054906101000a900473ffffffffffffffffffffffffffffffffffffffff169050919050565b60006108a682611759565b90508073ffffffffffffffffffffffffffffffffffffffff168373ffffffffffffffffffffffffffffffffffffffff161415610917576040517f08c379a000000000000000000000000000000000000000000000000000000000815260040161090e90614d0a565b60405180910390fd5b8073ffffffffffffffffffffffffffffffffffffffff166109366129b8565b73ffffffffffffffffffffffffffffffffffffffff16148061096557506109648161095f6129b8565b612746565b5b6109a4576040517f08c379a000000000000000000000000000000000000000000000000000000000815260040161099b90614d9c565b60405180910390fd5b6109ae83836129c0565b505050565b80600060038111156109c8576109c7614612565b5b600d600083815260200190815260200160002060050160149054906101000a900460ff1660038111156109fe576109fd614612565b5b14610a3e576040517f08c379a0000000000000000000000000000000000000000000000000000000008152600401610a3590614e2e565b60405180910390fd5b600d600083815260200190815260200160002060050160009054906101000a900473ffffffffffffffffffffffffffffffffffffffff168073ffffffffffffffffffffffffffffffffffffffff163373ffffffffffffffffffffffffffffffffffffffff161415610ae4576040517f08c379a0000000000000000000000000000000000000000000000000000000008152600401610adb90614ec0565b60405180910390fd5b82610aee8161294c565b610b2d576040517f08c379a0000000000000000000000000000000000000000000000000000000008152600401610b2490614f2c565b60405180910390fd5b600d60008581526020019081526020016000206003015480341015610b87576040517f08c379a0000000000000000000000000000000000000000000000000000000008152600401610b7e90614f98565b60405180910390fd5b33600d600087815260200190815260200160002060040160006101000a81548173ffffffffffffffffffffffffffffffffffffffff021916908373ffffffffffffffffffffffffffffffffffffffff1602179055506001600d600087815260200190815260200160002060050160146101000a81548160ff02191690836003811115610c1657610c15614612565b5b02179055507fe64ca8c671e48636f85f3008c1dd538e36bfa74fb6f2790b56b72fcc33b879ef85604051610c4a91906143a3565b60405180910390a15050505050565b6000600880549050905090565b600d600082815260200190815260200160002060050160009054906101000a900473ffffffffffffffffffffffffffffffffffffffff168073ffffffffffffffffffffffffffffffffffffffff163373ffffffffffffffffffffffffffffffffffffffff1614610d0b576040517f08c379a0000000000000000000000000000000000000000000000000000000008152600401610d029061502a565b60405180910390fd5b81600380811115610d1f57610d1e614612565b5b600d600083815260200190815260200160002060050160149054906101000a900460ff166003811115610d5557610d54614612565b5b14610d95576040517f08c379a0000000000000000000000000000000000000000000000000000000008152600401610d8c906150bc565b60405180910390fd5b82610d9f8161294c565b610dde576040517f08c379a0000000000000000000000000000000000000000000000000000000008152600401610dd590614f2c565b60405180910390fd5b6000600d600086815260200190815260200160002060050160146101000a81548160ff02191690836003811115610e1857610e17614612565b5b02179055507f093aa5641a6cd9311446f9c310c8be7ddd06c576fdbe8ec65122183c61d2582684604051610e4c91906143a3565b60405180910390a150505050565b610e6b610e656129b8565b82612a79565b610eaa576040517f08c379a0000000000000000000000000000000000000000000000000000000008152600401610ea19061514e565b60405180910390fd5b610eb5838383612b57565b505050565b6000610ec58361180b565b8210610f06576040517f08c379a0000000000000000000000000000000000000000000000000000000008152600401610efd906151e0565b60405180910390fd5b600660008473ffffffffffffffffffffffffffffffffffffffff1673ffffffffffffffffffffffffffffffffffffffff168152602001908152602001600020600083815260200190815260200160002054905092915050565b600080610f6c600c612db3565b9050604051806101000160405280828152602001878152602001868152602001858152602001600073ffffffffffffffffffffffffffffffffffffffff1681526020013373ffffffffffffffffffffffffffffffffffffffff16815260200160006003811115610fdf57610fde614612565b5b815260200184815250600d6000838152602001908152602001600020600082015181600001556020820151816001019080519060200190611021929190613f6f565b50604082015181600201556060820151816003015560808201518160040160006101000a81548173ffffffffffffffffffffffffffffffffffffffff021916908373ffffffffffffffffffffffffffffffffffffffff16021790555060a08201518160050160006101000a81548173ffffffffffffffffffffffffffffffffffffffff021916908373ffffffffffffffffffffffffffffffffffffffff16021790555060c08201518160050160146101000a81548160ff021916908360038111156110ef576110ee614612565b5b021790555060e0820151816006019080519060200190611110929190613f6f565b50905050600e600d6000838152602001908152602001600020908060018154018082558091505060019003906000526020600020906007020160009091909190915060008201548160000155600182018160010190805461117090614bd4565b61117b929190613ff5565b5060028201548160020155600382015481600301556004820160009054906101000a900473ffffffffffffffffffffffffffffffffffffffff168160040160006101000a81548173ffffffffffffffffffffffffffffffffffffffff021916908373ffffffffffffffffffffffffffffffffffffffff1602179055506005820160009054906101000a900473ffffffffffffffffffffffffffffffffffffffff168160050160006101000a81548173ffffffffffffffffffffffffffffffffffffffff021916908373ffffffffffffffffffffffffffffffffffffffff1602179055506005820160149054906101000a900460ff168160050160146101000a81548160ff0219169083600381111561129657611295614612565b5b021790555060068201816006019080546112af90614bd4565b6112ba929190613ff5565b5050506112c73384612715565b7f093aa5641a6cd9311446f9c310c8be7ddd06c576fdbe8ec65122183c61d25826816040516112f691906143a3565b60405180910390a16001915050949350505050565b611326838383604051806020016040528060008152506122f7565b505050565b600d600082815260200190815260200160002060050160009054906101000a900473ffffffffffffffffffffffffffffffffffffffff168073ffffffffffffffffffffffffffffffffffffffff163373ffffffffffffffffffffffffffffffffffffffff16146113d0576040517f08c379a00000000000000000000000000000000000000000000000000000000081526004016113c79061502a565b60405180910390fd5b81600060038111156113e5576113e4614612565b5b600d600083815260200190815260200160002060050160149054906101000a900460ff16600381111561141b5761141a614612565b5b1461145b576040517f08c379a000000000000000000000000000000000000000000000000000000000815260040161145290614e2e565b60405180910390fd5b826114658161294c565b6114a4576040517f08c379a000000000000000000000000000000000000000000000000000000000815260040161149b90614f2c565b60405180910390fd5b6114ad84612dc1565b7f5b26169f8a09a82388a380e50ae25febdebf7a25930bed9d2d4c40997aa2bff5846040516114dc91906143a3565b60405180910390a150505050565b60006114f4610c59565b8210611535576040517f08c379a000000000000000000000000000000000000000000000000000000000815260040161152c90615272565b60405180910390fd5b6008828154811061154957611548615292565b5b90600052602060002001549050919050565b80600160038111156115705761156f614612565b5b600d600083815260200190815260200160002060050160149054906101000a900460ff1660038111156115a6576115a5614612565b5b146115e6576040517f08c379a00000000000000000000000000000000000000000000000000000000081526004016115dd90615333565b60405180910390fd5b600d600083815260200190815260200160002060050160009054906101000a900473ffffffffffffffffffffffffffffffffffffffff168073ffffffffffffffffffffffffffffffffffffffff163373ffffffffffffffffffffffffffffffffffffffff161461168b576040517f08c379a00000000000000000000000000000000000000000000000000000000081526004016116829061502a565b60405180910390fd5b826116958161294c565b6116d4576040517f08c379a00000000000000000000000000000000000000000000000000000000081526004016116cb90614f2c565b60405180910390fd5b611714600d600086815260200190815260200160002060040160009054906101000a900473ffffffffffffffffffffffffffffffffffffffff16856129c0565b6002600d600086815260200190815260200160002060050160146101000a81548160ff0219169083600381111561174e5761174d614612565b5b021790555050505050565b6000806002600084815260200190815260200160002060009054906101000a900473ffffffffffffffffffffffffffffffffffffffff169050600073ffffffffffffffffffffffffffffffffffffffff168173ffffffffffffffffffffffffffffffffffffffff161415611802576040517f08c379a00000000000000000000000000000000000000000000000000000000081526004016117f9906153c5565b60405180910390fd5b80915050919050565b60008073ffffffffffffffffffffffffffffffffffffffff168273ffffffffffffffffffffffffffffffffffffffff16141561187c576040517f08c379a000000000000000000000000000000000000000000000000000000000815260040161187390615457565b60405180910390fd5b600360008373ffffffffffffffffffffffffffffffffffffffff1673ffffffffffffffffffffffffffffffffffffffff168152602001908152602001600020549050919050565b6118cb6129b8565b73ffffffffffffffffffffffffffffffffffffffff166118e9611bd3565b73ffffffffffffffffffffffffffffffffffffffff161461193f576040517f08c379a0000000000000000000000000000000000000000000000000000000008152600401611936906154c3565b60405180910390fd5b6119496000612dcd565b565b6000606060008060008060006060886119638161294c565b6119a2576040517f08c379a000000000000000000000000000000000000000000000000000000000815260040161199990614f2c565b60405180910390fd5b600d60008b8152602001908152602001600020600001549850600d60008b815260200190815260200160002060010180546119dc90614bd4565b80601f0160208091040260200160405190810160405280929190818152602001828054611a0890614bd4565b8015611a555780601f10611a2a57610100808354040283529160200191611a55565b820191906000526020600020905b815481529060010190602001808311611a3857829003601f168201915b50505050509750600d60008b8152602001908152602001600020600201549650600d60008b8152602001908152602001600020600301549550600d60008b815260200190815260200160002060040160009054906101000a900473ffffffffffffffffffffffffffffffffffffffff169450600d60008b815260200190815260200160002060050160009054906101000a900473ffffffffffffffffffffffffffffffffffffffff169350600d60008b815260200190815260200160002060050160149054906101000a900460ff169250600d60008b81526020019081526020016000206006018054611b4790614bd4565b80601f0160208091040260200160405190810160405280929190818152602001828054611b7390614bd4565b8015611bc05780601f10611b9557610100808354040283529160200191611bc0565b820191906000526020600020905b815481529060010190602001808311611ba357829003601f168201915b5050505050915050919395975091939597565b6000600b60009054906101000a900473ffffffffffffffffffffffffffffffffffffffff16905090565b600d600083815260200190815260200160002060050160009054906101000a900473ffffffffffffffffffffffffffffffffffffffff168073ffffffffffffffffffffffffffffffffffffffff163373ffffffffffffffffffffffffffffffffffffffff1614611ca2576040517f08c379a0000000000000000000000000000000000000000000000000000000008152600401611c999061502a565b60405180910390fd5b8260006003811115611cb757611cb6614612565b5b600d600083815260200190815260200160002060050160149054906101000a900460ff166003811115611ced57611cec614612565b5b14611d2d576040517f08c379a0000000000000000000000000000000000000000000000000000000008152600401611d2490614e2e565b60405180910390fd5b83611d378161294c565b611d76576040517f08c379a0000000000000000000000000000000000000000000000000000000008152600401611d6d90614f2c565b60405180910390fd5b83600d6000878152602001908152602001600020600301819055507f4976485b2f48f09df07ae290110ea4f5337927c6e906f45113aa7103dbb7b8168585604051611dc29291906154e3565b60405180910390a15050505050565b606060018054611de090614bd4565b80601f0160208091040260200160405190810160405280929190818152602001828054611e0c90614bd4565b8015611e595780601f10611e2e57610100808354040283529160200191611e59565b820191906000526020600020905b815481529060010190602001808311611e3c57829003601f168201915b5050505050905090565b600d600082815260200190815260200160002060050160009054906101000a900473ffffffffffffffffffffffffffffffffffffffff168073ffffffffffffffffffffffffffffffffffffffff163373ffffffffffffffffffffffffffffffffffffffff1614611f08576040517f08c379a0000000000000000000000000000000000000000000000000000000008152600401611eff9061502a565b60405180910390fd5b8160006003811115611f1d57611f1c614612565b5b600d600083815260200190815260200160002060050160149054906101000a900460ff166003811115611f5357611f52614612565b5b14611f93576040517f08c379a0000000000000000000000000000000000000000000000000000000008152600401611f8a90614e2e565b60405180910390fd5b82611f9d8161294c565b611fdc576040517f08c379a0000000000000000000000000000000000000000000000000000000008152600401611fd390614f2c565b60405180910390fd5b6003600d600086815260200190815260200160002060050160146101000a81548160ff0219169083600381111561201657612015614612565b5b02179055507f17f25fb4ca769af8193da43a90b66526915e8d63e8ea591300c9257e308260738460405161204a91906143a3565b60405180910390a150505050565b61206a6120636129b8565b8383612e93565b5050565b6060600e805480602002602001604051908101604052809291908181526020016000905b828210156122ee578382906000526020600020906007020160405180610100016040529081600082015481526020016001820180546120d090614bd4565b80601f01602080910402602001604051908101604052809291908181526020018280546120fc90614bd4565b80156121495780601f1061211e57610100808354040283529160200191612149565b820191906000526020600020905b81548152906001019060200180831161212c57829003601f168201915b5050505050815260200160028201548152602001600382015481526020016004820160009054906101000a900473ffffffffffffffffffffffffffffffffffffffff1673ffffffffffffffffffffffffffffffffffffffff1673ffffffffffffffffffffffffffffffffffffffff1681526020016005820160009054906101000a900473ffffffffffffffffffffffffffffffffffffffff1673ffffffffffffffffffffffffffffffffffffffff1673ffffffffffffffffffffffffffffffffffffffff1681526020016005820160149054906101000a900460ff16600381111561223757612236614612565b5b600381111561224957612248614612565b5b815260200160068201805461225d90614bd4565b80601f016020809104026020016040519081016040528092919081815260200182805461228990614bd4565b80156122d65780601f106122ab576101008083540402835291602001916122d6565b820191906000526020600020905b8154815290600101906020018083116122b957829003601f168201915b50505050508152505081526020019060010190612092565b50505050905090565b6123086123026129b8565b83612a79565b612347576040517f08c379a000000000000000000000000000000000000000000000000000000000815260040161233e9061514e565b60405180910390fd5b61235384848484613000565b50505050565b60606123648261305c565b9050919050565b600d600082815260200190815260200160002060040160009054906101000a900473ffffffffffffffffffffffffffffffffffffffff168073ffffffffffffffffffffffffffffffffffffffff163373ffffffffffffffffffffffffffffffffffffffff1614612410576040517f08c379a00000000000000000000000000000000000000000000000000000000081526004016124079061557e565b60405180910390fd5b816002600381111561242557612424614612565b5b600d600083815260200190815260200160002060050160149054906101000a900460ff16600381111561245b5761245a614612565b5b1461249b576040517f08c379a000000000000000000000000000000000000000000000000000000000815260040161249290615636565b60405180910390fd5b826124a58161294c565b6124e4576040517f08c379a00000000000000000000000000000000000000000000000000000000081526004016124db90614f2c565b60405180910390fd5b61255b600d600086815260200190815260200160002060050160009054906101000a900473ffffffffffffffffffffffffffffffffffffffff16600d600087815260200190815260200160002060040160009054906101000a900473ffffffffffffffffffffffffffffffffffffffff168661130b565b600d600085815260200190815260200160002060050160009054906101000a900473ffffffffffffffffffffffffffffffffffffffff1673ffffffffffffffffffffffffffffffffffffffff166108fc600d6000878152602001908152602001600020600301549081150290604051600060405180830381858888f193505050501580156125ed573d6000803e3d6000fd5b5033600d600086815260200190815260200160002060050160006101000a81548173ffffffffffffffffffffffffffffffffffffffff021916908373ffffffffffffffffffffffffffffffffffffffff1602179055506000600d600086815260200190815260200160002060040160006101000a81548173ffffffffffffffffffffffffffffffffffffffff021916908373ffffffffffffffffffffffffffffffffffffffff1602179055506000600d600086815260200190815260200160002060050160146101000a81548160ff021916908360038111156126d3576126d2614612565b5b02179055507f093aa5641a6cd9311446f9c310c8be7ddd06c576fdbe8ec65122183c61d258268460405161270791906143a3565b60405180910390a150505050565b6000612721600c612db3565b905061272d600c6131ae565b61273783826131c4565b61274181836131e2565b505050565b6000600560008473ffffffffffffffffffffffffffffffffffffffff1673ffffffffffffffffffffffffffffffffffffffff16815260200190815260200160002060008373ffffffffffffffffffffffffffffffffffffffff1673ffffffffffffffffffffffffffffffffffffffff16815260200190815260200160002060009054906101000a900460ff16905092915050565b6127e26129b8565b73ffffffffffffffffffffffffffffffffffffffff16612800611bd3565b73ffffffffffffffffffffffffffffffffffffffff1614612856576040517f08c379a000000000000000000000000000000000000000000000000000000000815260040161284d906154c3565b60405180910390fd5b600073ffffffffffffffffffffffffffffffffffffffff168173ffffffffffffffffffffffffffffffffffffffff1614156128c6576040517f08c379a00000000000000000000000000000000000000000000000000000000081526004016128bd906156c8565b60405180910390fd5b6128cf81612dcd565b50565b60007f780e9d63000000000000000000000000000000000000000000000000000000007bffffffffffffffffffffffffffffffffffffffffffffffffffffffff1916827bffffffffffffffffffffffffffffffffffffffffffffffffffffffff19161480612945575061294482613256565b5b9050919050565b60008073ffffffffffffffffffffffffffffffffffffffff166002600084815260200190815260200160002060009054906101000a900473ffffffffffffffffffffffffffffffffffffffff1673ffffffffffffffffffffffffffffffffffffffff1614159050919050565b600033905090565b816004600083815260200190815260200160002060006101000a81548173ffffffffffffffffffffffffffffffffffffffff021916908373ffffffffffffffffffffffffffffffffffffffff160217905550808273ffffffffffffffffffffffffffffffffffffffff16612a3383611759565b73ffffffffffffffffffffffffffffffffffffffff167f8c5be1e5ebec7d5bd14f71427d1e84f3dd0314c0f7b2291e5b200ac8c7c3b92560405160405180910390a45050565b6000612a848261294c565b612ac3576040517f08c379a0000000000000000000000000000000000000000000000000000000008152600401612aba9061575a565b60405180910390fd5b6000612ace83611759565b90508073ffffffffffffffffffffffffffffffffffffffff168473ffffffffffffffffffffffffffffffffffffffff161480612b3d57508373ffffffffffffffffffffffffffffffffffffffff16612b2584610816565b73ffffffffffffffffffffffffffffffffffffffff16145b80612b4e5750612b4d8185612746565b5b91505092915050565b8273ffffffffffffffffffffffffffffffffffffffff16612b7782611759565b73ffffffffffffffffffffffffffffffffffffffff1614612bcd576040517f08c379a0000000000000000000000000000000000000000000000000000000008152600401612bc4906157ec565b60405180910390fd5b600073ffffffffffffffffffffffffffffffffffffffff168273ffffffffffffffffffffffffffffffffffffffff161415612c3d576040517f08c379a0000000000000000000000000000000000000000000000000000000008152600401612c349061587e565b60405180910390fd5b612c48838383613338565b612c536000826129c0565b6001600360008573ffffffffffffffffffffffffffffffffffffffff1673ffffffffffffffffffffffffffffffffffffffff1681526020019081526020016000206000828254612ca391906158cd565b925050819055506001600360008473ffffffffffffffffffffffffffffffffffffffff1673ffffffffffffffffffffffffffffffffffffffff1681526020019081526020016000206000828254612cfa9190615901565b92505081905550816002600083815260200190815260200160002060006101000a81548173ffffffffffffffffffffffffffffffffffffffff021916908373ffffffffffffffffffffffffffffffffffffffff160217905550808273ffffffffffffffffffffffffffffffffffffffff168473ffffffffffffffffffffffffffffffffffffffff167fddf252ad1be2c89b69c2b068fc378daa952ba7f163c4a11628f55a4df523b3ef60405160405180910390a4505050565b600081600001549050919050565b612dca81613348565b50565b6000600b60009054906101000a900473ffffffffffffffffffffffffffffffffffffffff16905081600b60006101000a81548173ffffffffffffffffffffffffffffffffffffffff021916908373ffffffffffffffffffffffffffffffffffffffff1602179055508173ffffffffffffffffffffffffffffffffffffffff168173ffffffffffffffffffffffffffffffffffffffff167f8be0079c531659141344cd1fd0a4f28419497f9722a3daafe3b4186f6b6457e060405160405180910390a35050565b8173ffffffffffffffffffffffffffffffffffffffff168373ffffffffffffffffffffffffffffffffffffffff161415612f02576040517f08c379a0000000000000000000000000000000000000000000000000000000008152600401612ef9906159a3565b60405180910390fd5b80600560008573ffffffffffffffffffffffffffffffffffffffff1673ffffffffffffffffffffffffffffffffffffffff16815260200190815260200160002060008473ffffffffffffffffffffffffffffffffffffffff1673ffffffffffffffffffffffffffffffffffffffff16815260200190815260200160002060006101000a81548160ff0219169083151502179055508173ffffffffffffffffffffffffffffffffffffffff168373ffffffffffffffffffffffffffffffffffffffff167f17307eab39ab6107e8899845ad3d59bd9653f200f220920489ca2b5937696c3183604051612ff39190614193565b60405180910390a3505050565b61300b848484612b57565b6130178484848461339b565b613056576040517f08c379a000000000000000000000000000000000000000000000000000000000815260040161304d90615a35565b60405180910390fd5b50505050565b60606130678261294c565b6130a6576040517f08c379a000000000000000000000000000000000000000000000000000000000815260040161309d90615ac7565b60405180910390fd5b6000600a600084815260200190815260200160002080546130c690614bd4565b80601f01602080910402602001604051908101604052809291908181526020018280546130f290614bd4565b801561313f5780601f106131145761010080835404028352916020019161313f565b820191906000526020600020905b81548152906001019060200180831161312257829003601f168201915b50505050509050600061315061355b565b90506000815114156131665781925050506131a9565b60008251111561319b578082604051602001613183929190615b23565b604051602081830303815290604052925050506131a9565b6131a484613572565b925050505b919050565b6001816000016000828254019250508190555050565b6131de828260405180602001604052806000815250613619565b5050565b6131eb8261294c565b61322a576040517f08c379a000000000000000000000000000000000000000000000000000000000815260040161322190615bb9565b60405180910390fd5b80600a60008481526020019081526020016000209080519060200190613251929190613f6f565b505050565b60007f80ac58cd000000000000000000000000000000000000000000000000000000007bffffffffffffffffffffffffffffffffffffffffffffffffffffffff1916827bffffffffffffffffffffffffffffffffffffffffffffffffffffffff1916148061332157507f5b5e139f000000000000000000000000000000000000000000000000000000007bffffffffffffffffffffffffffffffffffffffffffffffffffffffff1916827bffffffffffffffffffffffffffffffffffffffffffffffffffffffff1916145b80613331575061333082613674565b5b9050919050565b6133438383836136de565b505050565b613351816137f2565b6000600a6000838152602001908152602001600020805461337190614bd4565b90501461339857600a600082815260200190815260200160002060006133979190614082565b5b50565b60006133bc8473ffffffffffffffffffffffffffffffffffffffff16613903565b1561354e578373ffffffffffffffffffffffffffffffffffffffff1663150b7a026133e56129b8565b8786866040518563ffffffff167c01000000000000000000000000000000000000000000000000000000000281526004016134239493929190615c2e565b6020604051808303816000875af192505050801561345f57506040513d601f19601f8201168201806040525081019061345c9190615c8f565b60015b6134e2573d806000811461348f576040519150601f19603f3d011682016040523d82523d6000602084013e613494565b606091505b506000815114156134da576040517f08c379a00000000000000000000000000000000000000000000000000000000081526004016134d190615a35565b60405180910390fd5b805181602001fd5b63150b7a027c0100000000000000000000000000000000000000000000000000000000027bffffffffffffffffffffffffffffffffffffffffffffffffffffffff1916817bffffffffffffffffffffffffffffffffffffffffffffffffffffffff191614915050613553565b600190505b949350505050565b606060405180602001604052806000815250905090565b606061357d8261294c565b6135bc576040517f08c379a00000000000000000000000000000000000000000000000000000000081526004016135b390615d2e565b60405180910390fd5b60006135c661355b565b905060008151116135e65760405180602001604052806000815250613611565b806135f084613916565b604051602001613601929190615b23565b6040516020818303038152906040525b915050919050565b6136238383613a96565b613630600084848461339b565b61366f576040517f08c379a000000000000000000000000000000000000000000000000000000000815260040161366690615a35565b60405180910390fd5b505050565b60007f01ffc9a7000000000000000000000000000000000000000000000000000000007bffffffffffffffffffffffffffffffffffffffffffffffffffffffff1916827bffffffffffffffffffffffffffffffffffffffffffffffffffffffff1916149050919050565b6136e9838383613c64565b600073ffffffffffffffffffffffffffffffffffffffff168373ffffffffffffffffffffffffffffffffffffffff16141561372c5761372781613c69565b61376b565b8173ffffffffffffffffffffffffffffffffffffffff168373ffffffffffffffffffffffffffffffffffffffff161461376a576137698382613cb2565b5b5b600073ffffffffffffffffffffffffffffffffffffffff168273ffffffffffffffffffffffffffffffffffffffff1614156137ae576137a981613e1f565b6137ed565b8273ffffffffffffffffffffffffffffffffffffffff168273ffffffffffffffffffffffffffffffffffffffff16146137ec576137eb8282613ef0565b5b5b505050565b60006137fd82611759565b905061380b81600084613338565b6138166000836129c0565b6001600360008373ffffffffffffffffffffffffffffffffffffffff1673ffffffffffffffffffffffffffffffffffffffff168152602001908152602001600020600082825461386691906158cd565b925050819055506002600083815260200190815260200160002060006101000a81549073ffffffffffffffffffffffffffffffffffffffff021916905581600073ffffffffffffffffffffffffffffffffffffffff168273ffffffffffffffffffffffffffffffffffffffff167fddf252ad1be2c89b69c2b068fc378daa952ba7f163c4a11628f55a4df523b3ef60405160405180910390a45050565b600080823b905060008111915050919050565b6060600082141561395e576040518060400160405280600181526020017f30000000000000000000000000000000000000000000000000000000000000008152509050613a91565b600082905060005b6000821461399057808061397990615d4e565b915050600a826139899190615dc6565b9150613966565b60008167ffffffffffffffff8111156139ac576139ab61441b565b5b6040519080825280601f01601f1916602001820160405280156139de5781602001600182028036833780820191505090505b5090505b60008514613a8a576001826139f791906158cd565b9150600a85613a069190615df7565b6030613a129190615901565b7f010000000000000000000000000000000000000000000000000000000000000002818381518110613a4757613a46615292565b5b60200101907effffffffffffffffffffffffffffffffffffffffffffffffffffffffffffff1916908160001a905350600a85613a839190615dc6565b94506139e2565b8093505050505b919050565b600073ffffffffffffffffffffffffffffffffffffffff168273ffffffffffffffffffffffffffffffffffffffff161415613b06576040517f08c379a0000000000000000000000000000000000000000000000000000000008152600401613afd90615e74565b60405180910390fd5b613b0f8161294c565b15613b4f576040517f08c379a0000000000000000000000000000000000000000000000000000000008152600401613b4690615ee0565b60405180910390fd5b613b5b60008383613338565b6001600360008473ffffffffffffffffffffffffffffffffffffffff1673ffffffffffffffffffffffffffffffffffffffff1681526020019081526020016000206000828254613bab9190615901565b92505081905550816002600083815260200190815260200160002060006101000a81548173ffffffffffffffffffffffffffffffffffffffff021916908373ffffffffffffffffffffffffffffffffffffffff160217905550808273ffffffffffffffffffffffffffffffffffffffff16600073ffffffffffffffffffffffffffffffffffffffff167fddf252ad1be2c89b69c2b068fc378daa952ba7f163c4a11628f55a4df523b3ef60405160405180910390a45050565b505050565b6008805490506009600083815260200190815260200160002081905550600881908060018154018082558091505060019003906000526020600020016000909190919091505550565b60006001613cbf8461180b565b613cc991906158cd565b9050600060076000848152602001908152602001600020549050818114613dae576000600660008673ffffffffffffffffffffffffffffffffffffffff1673ffffffffffffffffffffffffffffffffffffffff168152602001908152602001600020600084815260200190815260200160002054905080600660008773ffffffffffffffffffffffffffffffffffffffff1673ffffffffffffffffffffffffffffffffffffffff168152602001908152602001600020600084815260200190815260200160002081905550816007600083815260200190815260200160002081905550505b6007600084815260200190815260200160002060009055600660008573ffffffffffffffffffffffffffffffffffffffff1673ffffffffffffffffffffffffffffffffffffffff16815260200190815260200160002060008381526020019081526020016000206000905550505050565b60006001600880549050613e3391906158cd565b9050600060096000848152602001908152602001600020549050600060088381548110613e6357613e62615292565b5b906000526020600020015490508060088381548110613e8557613e84615292565b5b906000526020600020018190555081600960008381526020019081526020016000208190555060096000858152602001908152602001600020600090556008805480613ed457613ed3615f00565b5b6001900381819060005260206000200160009055905550505050565b6000613efb8361180b565b905081600660008573ffffffffffffffffffffffffffffffffffffffff1673ffffffffffffffffffffffffffffffffffffffff168152602001908152602001600020600083815260200190815260200160002081905550806007600084815260200190815260200160002081905550505050565b828054613f7b90614bd4565b90600052602060002090601f016020900481019282613f9d5760008555613fe4565b82601f10613fb657805160ff1916838001178555613fe4565b82800160010185558215613fe4579182015b82811115613fe3578251825591602001919060010190613fc8565b5b509050613ff191906140c2565b5090565b82805461400190614bd4565b90600052602060002090601f0160209004810192826140235760008555614071565b82601f106140345780548555614071565b8280016001018555821561407157600052602060002091601f016020900482015b82811115614070578254825591600101919060010190614055565b5b50905061407e91906140c2565b5090565b50805461408e90614bd4565b6000825580601f106140a057506140bf565b601f0160209004906000526020600020908101906140be91906140c2565b5b50565b5b808211156140db5760008160009055506001016140c3565b5090565b6000604051905090565b600080fd5b600080fd5b60007fffffffff0000000000000000000000000000000000000000000000000000000082169050919050565b614128816140f3565b811461413357600080fd5b50565b6000813590506141458161411f565b92915050565b600060208284031215614161576141606140e9565b5b600061416f84828501614136565b91505092915050565b60008115159050919050565b61418d81614178565b82525050565b60006020820190506141a86000830184614184565b92915050565b600081519050919050565b600082825260208201905092915050565b60005b838110156141e85780820151818401526020810190506141cd565b838111156141f7576000848401525b50505050565b6000601f19601f8301169050919050565b6000614219826141ae565b61422381856141b9565b93506142338185602086016141ca565b61423c816141fd565b840191505092915050565b60006020820190508181036000830152614261818461420e565b905092915050565b6000819050919050565b61427c81614269565b811461428757600080fd5b50565b60008135905061429981614273565b92915050565b6000602082840312156142b5576142b46140e9565b5b60006142c38482850161428a565b91505092915050565b600073ffffffffffffffffffffffffffffffffffffffff82169050919050565b60006142f7826142cc565b9050919050565b614307816142ec565b82525050565b600060208201905061432260008301846142fe565b92915050565b614331816142ec565b811461433c57600080fd5b50565b60008135905061434e81614328565b92915050565b6000806040838503121561436b5761436a6140e9565b5b60006143798582860161433f565b925050602061438a8582860161428a565b9150509250929050565b61439d81614269565b82525050565b60006020820190506143b86000830184614394565b92915050565b6000806000606084860312156143d7576143d66140e9565b5b60006143e58682870161433f565b93505060206143f68682870161433f565b92505060406144078682870161428a565b9150509250925092565b600080fd5b600080fd5b7f4e487b7100000000000000000000000000000000000000000000000000000000600052604160045260246000fd5b614453826141fd565b810181811067ffffffffffffffff821117156144725761447161441b565b5b80604052505050565b60006144856140df565b9050614491828261444a565b919050565b600067ffffffffffffffff8211156144b1576144b061441b565b5b6144ba826141fd565b9050602081019050919050565b82818337600083830152505050565b60006144e96144e484614496565b61447b565b90508281526020810184848401111561450557614504614416565b5b6145108482856144c7565b509392505050565b600082601f83011261452d5761452c614411565b5b813561453d8482602086016144d6565b91505092915050565b600080600080608085870312156145605761455f6140e9565b5b600085013567ffffffffffffffff81111561457e5761457d6140ee565b5b61458a87828801614518565b945050602061459b8782880161428a565b93505060406145ac8782880161428a565b925050606085013567ffffffffffffffff8111156145cd576145cc6140ee565b5b6145d987828801614518565b91505092959194509250565b6000602082840312156145fb576145fa6140e9565b5b60006146098482850161433f565b91505092915050565b7f4e487b7100000000000000000000000000000000000000000000000000000000600052602160045260246000fd5b6004811061465257614651614612565b5b50565b600081905061466382614641565b919050565b600061467382614655565b9050919050565b61468381614668565b82525050565b60006101008201905061469f600083018b614394565b81810360208301526146b1818a61420e565b90506146c06040830189614394565b6146cd6060830188614394565b6146da60808301876142fe565b6146e760a08301866142fe565b6146f460c083018561467a565b81810360e0830152614706818461420e565b90509998505050505050505050565b6000806040838503121561472c5761472b6140e9565b5b600061473a8582860161428a565b925050602061474b8582860161428a565b9150509250929050565b61475e81614178565b811461476957600080fd5b50565b60008135905061477b81614755565b92915050565b60008060408385031215614798576147976140e9565b5b60006147a68582860161433f565b92505060206147b78582860161476c565b9150509250929050565b600081519050919050565b600082825260208201905092915050565b6000819050602082019050919050565b6147f681614269565b82525050565b600082825260208201905092915050565b6000614818826141ae565b61482281856147fc565b93506148328185602086016141ca565b61483b816141fd565b840191505092915050565b6000614851826142cc565b9050919050565b61486181614846565b82525050565b61487081614668565b82525050565b60006101008301600083015161488f60008601826147ed565b50602083015184820360208601526148a7828261480d565b91505060408301516148bc60408601826147ed565b5060608301516148cf60608601826147ed565b5060808301516148e26080860182614858565b5060a08301516148f560a0860182614858565b5060c083015161490860c0860182614867565b5060e083015184820360e0860152614920828261480d565b9150508091505092915050565b60006149398383614876565b905092915050565b6000602082019050919050565b6000614959826147c1565b61496381856147cc565b935083602082028501614975856147dd565b8060005b858110156149b15784840389528151614992858261492d565b945061499d83614941565b925060208a01995050600181019050614979565b50829750879550505050505092915050565b600060208201905081810360008301526149dd818461494e565b905092915050565b600067ffffffffffffffff821115614a00576149ff61441b565b5b614a09826141fd565b9050602081019050919050565b6000614a29614a24846149e5565b61447b565b905082815260208101848484011115614a4557614a44614416565b5b614a508482856144c7565b509392505050565b600082601f830112614a6d57614a6c614411565b5b8135614a7d848260208601614a16565b91505092915050565b60008060008060808587031215614aa057614a9f6140e9565b5b6000614aae8782880161433f565b9450506020614abf8782880161433f565b9350506040614ad08782880161428a565b925050606085013567ffffffffffffffff811115614af157614af06140ee565b5b614afd87828801614a58565b91505092959194509250565b60008060408385031215614b2057614b1f6140e9565b5b6000614b2e8582860161433f565b925050602083013567ffffffffffffffff811115614b4f57614b4e6140ee565b5b614b5b85828601614518565b9150509250929050565b60008060408385031215614b7c57614b7b6140e9565b5b6000614b8a8582860161433f565b9250506020614b9b8582860161433f565b9150509250929050565b7f4e487b7100000000000000000000000000000000000000000000000000000000600052602260045260246000fd5b60006002820490506001821680614bec57607f821691505b60208210811415614c0057614bff614ba5565b5b50919050565b7f4552433732313a20617070726f76656420717565727920666f72206e6f6e657860008201527f697374656e7420746f6b656e0000000000000000000000000000000000000000602082015250565b6000614c62602c836141b9565b9150614c6d82614c06565b604082019050919050565b60006020820190508181036000830152614c9181614c55565b9050919050565b7f4552433732313a20617070726f76616c20746f2063757272656e74206f776e6560008201527f7200000000000000000000000000000000000000000000000000000000000000602082015250565b6000614cf46021836141b9565b9150614cff82614c98565b604082019050919050565b60006020820190508181036000830152614d2381614ce7565b9050919050565b7f4552433732313a20617070726f76652063616c6c6572206973206e6f74206f7760008201527f6e6572206e6f7220617070726f76656420666f7220616c6c0000000000000000602082015250565b6000614d866038836141b9565b9150614d9182614d2a565b604082019050919050565b60006020820190508181036000830152614db581614d79565b9050919050565b7f546865206173736574206973206e6f742063757272656e746c79206265696e6760008201527f20736f6c64000000000000000000000000000000000000000000000000000000602082015250565b6000614e186025836141b9565b9150614e2382614dbc565b604082019050919050565b60006020820190508181036000830152614e4781614e0b565b9050919050565b7f596f752061726520616c726561647920746865206f776e6572206f662074686960008201527f7320617373657400000000000000000000000000000000000000000000000000602082015250565b6000614eaa6027836141b9565b9150614eb582614e4e565b604082019050919050565b60006020820190508181036000830152614ed981614e9d565b9050919050565b7f5468697320746f6b656e20646f6573206e6f7420657869737400000000000000600082015250565b6000614f166019836141b9565b9150614f2182614ee0565b602082019050919050565b60006020820190508181036000830152614f4581614f09565b9050919050565b7f596f75206861766520696e73756666696369656e742066756e64730000000000600082015250565b6000614f82601b836141b9565b9150614f8d82614f4c565b602082019050919050565b60006020820190508181036000830152614fb181614f75565b9050919050565b7f596f7520617265206e6f7420746865206f776e6572206f66207468697320617360008201527f7365740000000000000000000000000000000000000000000000000000000000602082015250565b60006150146023836141b9565b915061501f82614fb8565b604082019050919050565b6000602082019050818103600083015261504381615007565b9050919050565b7f5468697320617373657420686173206e6f74206265656e207265706f7274656460008201527f206c6f7374206f722073746f6c656e0000000000000000000000000000000000602082015250565b60006150a6602f836141b9565b91506150b18261504a565b604082019050919050565b600060208201905081810360008301526150d581615099565b9050919050565b7f4552433732313a207472616e736665722063616c6c6572206973206e6f74206f60008201527f776e6572206e6f7220617070726f766564000000000000000000000000000000602082015250565b60006151386031836141b9565b9150615143826150dc565b604082019050919050565b600060208201905081810360008301526151678161512b565b9050919050565b7f455243373231456e756d657261626c653a206f776e657220696e646578206f7560008201527f74206f6620626f756e6473000000000000000000000000000000000000000000602082015250565b60006151ca602b836141b9565b91506151d58261516e565b604082019050919050565b600060208201905081810360008301526151f9816151bd565b9050919050565b7f455243373231456e756d657261626c653a20676c6f62616c20696e646578206f60008201527f7574206f6620626f756e64730000000000000000000000000000000000000000602082015250565b600061525c602c836141b9565b915061526782615200565b604082019050919050565b6000602082019050818103600083015261528b8161524f565b9050919050565b7f4e487b7100000000000000000000000000000000000000000000000000000000600052603260045260246000fd5b7f4f776e65727368697020686173206e6f74206265656e207472616e736665727260008201527f65642e0000000000000000000000000000000000000000000000000000000000602082015250565b600061531d6023836141b9565b9150615328826152c1565b604082019050919050565b6000602082019050818103600083015261534c81615310565b9050919050565b7f4552433732313a206f776e657220717565727920666f72206e6f6e657869737460008201527f656e7420746f6b656e0000000000000000000000000000000000000000000000602082015250565b60006153af6029836141b9565b91506153ba82615353565b604082019050919050565b600060208201905081810360008301526153de816153a2565b9050919050565b7f4552433732313a2062616c616e636520717565727920666f7220746865207a6560008201527f726f206164647265737300000000000000000000000000000000000000000000602082015250565b6000615441602a836141b9565b915061544c826153e5565b604082019050919050565b6000602082019050818103600083015261547081615434565b9050919050565b7f4f776e61626c653a2063616c6c6572206973206e6f7420746865206f776e6572600082015250565b60006154ad6020836141b9565b91506154b882615477565b602082019050919050565b600060208201905081810360008301526154dc816154a0565b9050919050565b60006040820190506154f86000830185614394565b6155056020830184614394565b9392505050565b7f596f7520617265206e6f7420746865206275796572206f66207468697320617360008201527f7365740000000000000000000000000000000000000000000000000000000000602082015250565b60006155686023836141b9565b91506155738261550c565b604082019050919050565b600060208201905081810360008301526155978161555b565b9050919050565b7f5468697320617373657420686173206e6f74206265656e20736869707065642060008201527f6f7220617070726f76656420666f72206f776e657273686970207472616e736660208201527f65722e0000000000000000000000000000000000000000000000000000000000604082015250565b60006156206043836141b9565b915061562b8261559e565b606082019050919050565b6000602082019050818103600083015261564f81615613565b9050919050565b7f4f776e61626c653a206e6577206f776e657220697320746865207a65726f206160008201527f6464726573730000000000000000000000000000000000000000000000000000602082015250565b60006156b26026836141b9565b91506156bd82615656565b604082019050919050565b600060208201905081810360008301526156e1816156a5565b9050919050565b7f4552433732313a206f70657261746f7220717565727920666f72206e6f6e657860008201527f697374656e7420746f6b656e0000000000000000000000000000000000000000602082015250565b6000615744602c836141b9565b915061574f826156e8565b604082019050919050565b6000602082019050818103600083015261577381615737565b9050919050565b7f4552433732313a207472616e73666572206f6620746f6b656e2074686174206960008201527f73206e6f74206f776e0000000000000000000000000000000000000000000000602082015250565b60006157d66029836141b9565b91506157e18261577a565b604082019050919050565b60006020820190508181036000830152615805816157c9565b9050919050565b7f4552433732313a207472616e7366657220746f20746865207a65726f2061646460008201527f7265737300000000000000000000000000000000000000000000000000000000602082015250565b60006158686024836141b9565b91506158738261580c565b604082019050919050565b600060208201905081810360008301526158978161585b565b9050919050565b7f4e487b7100000000000000000000000000000000000000000000000000000000600052601160045260246000fd5b60006158d882614269565b91506158e383614269565b9250828210156158f6576158f561589e565b5b828203905092915050565b600061590c82614269565b915061591783614269565b9250827fffffffffffffffffffffffffffffffffffffffffffffffffffffffffffffffff0382111561594c5761594b61589e565b5b828201905092915050565b7f4552433732313a20617070726f766520746f2063616c6c657200000000000000600082015250565b600061598d6019836141b9565b915061599882615957565b602082019050919050565b600060208201905081810360008301526159bc81615980565b9050919050565b7f4552433732313a207472616e7366657220746f206e6f6e20455243373231526560008201527f63656976657220696d706c656d656e7465720000000000000000000000000000602082015250565b6000615a1f6032836141b9565b9150615a2a826159c3565b604082019050919050565b60006020820190508181036000830152615a4e81615a12565b9050919050565b7f45524337323155524953746f726167653a2055524920717565727920666f722060008201527f6e6f6e6578697374656e7420746f6b656e000000000000000000000000000000602082015250565b6000615ab16031836141b9565b9150615abc82615a55565b604082019050919050565b60006020820190508181036000830152615ae081615aa4565b9050919050565b600081905092915050565b6000615afd826141ae565b615b078185615ae7565b9350615b178185602086016141ca565b80840191505092915050565b6000615b2f8285615af2565b9150615b3b8284615af2565b91508190509392505050565b7f45524337323155524953746f726167653a2055524920736574206f66206e6f6e60008201527f6578697374656e7420746f6b656e000000000000000000000000000000000000602082015250565b6000615ba3602e836141b9565b9150615bae82615b47565b604082019050919050565b60006020820190508181036000830152615bd281615b96565b9050919050565b600081519050919050565b600082825260208201905092915050565b6000615c0082615bd9565b615c0a8185615be4565b9350615c1a8185602086016141ca565b615c23816141fd565b840191505092915050565b6000608082019050615c4360008301876142fe565b615c5060208301866142fe565b615c5d6040830185614394565b8181036060830152615c6f8184615bf5565b905095945050505050565b600081519050615c898161411f565b92915050565b600060208284031215615ca557615ca46140e9565b5b6000615cb384828501615c7a565b91505092915050565b7f4552433732314d657461646174613a2055524920717565727920666f72206e6f60008201527f6e6578697374656e7420746f6b656e0000000000000000000000000000000000602082015250565b6000615d18602f836141b9565b9150615d2382615cbc565b604082019050919050565b60006020820190508181036000830152615d4781615d0b565b9050919050565b6000615d5982614269565b91507fffffffffffffffffffffffffffffffffffffffffffffffffffffffffffffffff821415615d8c57615d8b61589e565b5b600182019050919050565b7f4e487b7100000000000000000000000000000000000000000000000000000000600052601260045260246000fd5b6000615dd182614269565b9150615ddc83614269565b925082615dec57615deb615d97565b5b828204905092915050565b6000615e0282614269565b9150615e0d83614269565b925082615e1d57615e1c615d97565b5b828206905092915050565b7f4552433732313a206d696e7420746f20746865207a65726f2061646472657373600082015250565b6000615e5e6020836141b9565b9150615e6982615e28565b602082019050919050565b60006020820190508181036000830152615e8d81615e51565b9050919050565b7f4552433732313a20746f6b656e20616c7265616479206d696e74656400000000600082015250565b6000615eca601c836141b9565b9150615ed582615e94565b602082019050919050565b60006020820190508181036000830152615ef981615ebd565b9050919050565b7f4e487b7100000000000000000000000000000000000000000000000000000000600052603160045260246000fdfea264697066735822122058c903a1aa531ff8094e77d960c8dfad8ee425f13616c7abfb076d7c4baeefa964736f6c634300080b0033",
  "immutableReferences": {},
  "source": "// SPDX-License-Identifier: MIT\npragma solidity ^0.8.0;\n\nimport \"@openzeppelin/contracts/token/ERC721/ERC721.sol\";\nimport \"@openzeppelin/contracts/token/ERC721/extensions/ERC721Enumerable.sol\";\nimport \"@openzeppelin/contracts/token/ERC721/extensions/ERC721URIStorage.sol\";\nimport \"@openzeppelin/contracts/access/Ownable.sol\";\nimport \"@openzeppelin/contracts/utils/Counters.sol\";\n\ncontract AssetOwnership is ERC721, ERC721Enumerable, ERC721URIStorage, Ownable {\n    using Counters for Counters.Counter;\n\n    Counters.Counter private _tokenIdCounter;\n\n    constructor() ERC721(\"Asset Ownership\", \"ASSET\") {}\n\n    function safeMint(address to, string memory uri) public {\n        uint256 tokenId = _tokenIdCounter.current();\n        _tokenIdCounter.increment();\n        _safeMint(to, tokenId);\n        _setTokenURI(tokenId, uri);\n    }\n\n    // The following functions are overrides required by Solidity.\n\n    function _beforeTokenTransfer(address from, address to, uint256 tokenId)\n        internal\n        override(ERC721, ERC721Enumerable)\n    {\n        super._beforeTokenTransfer(from, to, tokenId);\n    }\n\n    function _burn(uint256 tokenId) internal override(ERC721, ERC721URIStorage) {\n        super._burn(tokenId);\n    }\n\n    function tokenURI(uint256 tokenId)\n        public\n        view\n        override(ERC721, ERC721URIStorage)\n        returns (string memory)\n    {\n        return super.tokenURI(tokenId);\n    }\n\n    function supportsInterface(bytes4 interfaceId)\n        public\n        view\n        override(ERC721, ERC721Enumerable)\n        returns (bool)\n    {\n        return super.supportsInterface(interfaceId);\n    }\n\n\n    /*****************************************************************\n     ****************************** Data ****************************\n     ****************************************************************/\n\n\n    // Function to receive Ether. msg.data must be empty\n    receive() external payable {}\n\n    // Fallback function is called when msg.data is not empty\n    fallback() external payable {}\n\n    // assets\n    mapping (uint => Asset) assets;\n\n    // to iterate over assets\n    Asset[] assetList;\n    \n\n    // asset state\n    enum State{InPossession, PendingTransfer, TransferringOwnership, LostOrStolen}\n\n    // asset struct\n    struct Asset {\n        uint tokenId;\n        string name;\n        uint serial;\n        uint value;\n        address payable buyer;\n        address payable owner;\n        State state;\n        string uri;\n    }\n\n    /*****************************************************************\n     ****************************** Events ***************************\n     ****************************************************************/\n\n    event LogInPossession(uint tokenId);\n\n    event LogSold(uint tokenId);\n\n    event LogTransferringOwnership(uint tokenId);\n    \n    event LogLostOrStolen(uint tokenId);\n\n    event LogDestroyed(uint tokenId);\n\n    event LogChangedValue(uint tokenId, uint value);\n\n    /*****************************************************************\n     **************************** Modifiers **************************\n     ****************************************************************/\n\n    modifier verifyOwner (address _address) {\n        require(msg.sender == _address, \"You are not the owner of this asset\");\n        _;\n    }\n\n    modifier verifyTokenExists (uint _tokenId) {\n        require(_exists(_tokenId), \"This token does not exist\");\n        _;\n    }\n\n\n    modifier verifyBuyer (address _address) {\n        require(msg.sender == _address, \"You are not the buyer of this asset\");\n        _;\n    }\n\n    modifier verifyNotOwner (address _address) {\n        require(msg.sender != _address, \"You are already the owner of this asset\");\n        _;\n    }\n\n    modifier inPossession (uint _tokenId) {\n        require(assets[_tokenId].state == State.InPossession, \"The asset is not currently being sold\"); \n        _;\n    }\n\n    modifier isLostorStolen (uint _tokenId) {\n        require(assets[_tokenId].state == State.LostOrStolen, \"This asset has not been reported lost or stolen\");\n        _;\n    }\n\n    modifier pendingTransfer (uint _tokenId) {\n        require(assets[_tokenId].state == State.PendingTransfer, \"Ownership has not been transferred.\");\n        _;\n    }\n\n    modifier transferringOwnership (uint _tokenId) {\n        require(assets[_tokenId].state == State.TransferringOwnership, \"This asset has not been shipped or approved for ownership transfer.\");\n        _;\n    }\n\n    modifier paidEnough (uint _value) {\n        require(msg.value >= _value, \"You have insufficient funds\");\n        _;\n    }\n\n    /*****************************************************************\n     ****************************** Logic ****************************\n     ****************************************************************/\n\n    // ADD\n    function addAsset(string memory _name, uint _serial, uint _value, string memory _uri) public returns (bool) {\n        uint tokenId = _tokenIdCounter.current();\n\n        assets[tokenId] = Asset({\n            tokenId: tokenId,\n            name: _name,\n            serial: _serial,\n            value: _value,\n            buyer: payable (address(0)),\n            owner: payable (msg.sender),\n            state: State.InPossession,\n            uri: _uri\n        });\n\n        assetList.push(assets[tokenId]);\n\n        safeMint(msg.sender, _uri);\n\n        emit LogInPossession(tokenId);\n\n        return true;\n    }\n\n    // BUY\n    function buyAsset(uint _tokenId) \n    inPossession(_tokenId) \n    verifyNotOwner(assets[_tokenId].owner) \n    verifyTokenExists(_tokenId)\n    paidEnough(assets[_tokenId].value) \n    payable public {        \n        // TODO: Change and add modifiers and make sure money is sent\n        \n        assets[_tokenId].buyer = payable(msg.sender);\n\n        assets[_tokenId].state = State.PendingTransfer;\n\n        emit LogSold(_tokenId);\n    }\n\n    // APPROVE FOR OWNERSHIP TRANSFER\n    function shipAssetAndApproveOwnershipTransfer(uint _tokenId) pendingTransfer(_tokenId) verifyOwner(assets[_tokenId].owner) verifyTokenExists(_tokenId) public {\n        _approve(assets[_tokenId].buyer, _tokenId);\n        \n        assets[_tokenId].state = State.TransferringOwnership;\n    }\n\n    // RECEIVE AND TRANSFER OWNERSHIP\n    function receiveAsset(uint _tokenId) verifyBuyer(assets[_tokenId].buyer) transferringOwnership(_tokenId) verifyTokenExists(_tokenId) payable public {\n        safeTransferFrom(assets[_tokenId].owner, assets[_tokenId].buyer, _tokenId);\n\n        assets[_tokenId].owner.transfer(assets[_tokenId].value);\n\n        assets[_tokenId].owner = payable(msg.sender);\n\n        assets[_tokenId].buyer = payable(address(0));\n        \n        assets[_tokenId].state = State.InPossession;\n\n        emit LogInPossession(_tokenId);\n    }\n\n    // CHANGE VALUE\n    function changeValueOfAsset(uint _tokenId, uint _value) verifyOwner(assets[_tokenId].owner) inPossession(_tokenId) verifyTokenExists(_tokenId) public {\n        assets[_tokenId].value = _value;\n\n        emit LogChangedValue(_tokenId, _value);\n    }\n\n    // LOST OR STOLEN\n    function reportLostOrStolen(uint _tokenId) verifyOwner(assets[_tokenId].owner) inPossession(_tokenId) verifyTokenExists(_tokenId) public {\n        assets[_tokenId].state = State.LostOrStolen;\n\n        emit LogLostOrStolen(_tokenId);\n    }\n\n    // IN POSSESSION\n    function reportFoundAndInPossession(uint _tokenId) verifyOwner(assets[_tokenId].owner) isLostorStolen(_tokenId) verifyTokenExists(_tokenId) public {\n        assets[_tokenId].state = State.InPossession;\n\n        emit LogInPossession(_tokenId);\n    }\n\n    // DESTROY\n    function destroyAsset(uint _tokenId) verifyOwner(assets[_tokenId].owner) inPossession(_tokenId) verifyTokenExists(_tokenId) public {\n        _burn(_tokenId);\n        emit LogDestroyed(_tokenId);\n    }\n\n\n    // FETCH\n    function fetchAsset(uint _tokenId) verifyTokenExists(_tokenId) public view \n    returns (uint tokenId, string memory name, uint serial, uint value, address buyer, address _owner, State state, string memory uri) {\n        tokenId = assets[_tokenId].tokenId;\n        name = assets[_tokenId].name;\n        serial = assets[_tokenId].serial;\n        value = assets[_tokenId].value;\n        buyer = assets[_tokenId].buyer;\n        _owner = assets[_tokenId].owner;\n        state = assets[_tokenId].state;\n        uri = assets[_tokenId].uri;\n\n        return (tokenId, name, serial, value, buyer, _owner, state, uri);\n    }\n\n    function fetchAssetList() public view returns (Asset[] memory listOfAssets) {\n        listOfAssets = assetList;\n        return listOfAssets;\n    }\n}",
  "sourcePath": "/Users/leo/sandbox/blockchain/blockchain-developer-bootcamp-final-project/contracts/AssetOwnership.sol",
  "compiler": {
    "name": "solc",
    "version": "0.8.11+commit.d7f03943.Emscripten.clang"
  },
  "schemaVersion": "3.4.3",
  "updatedAt": "2022-01-15T06:49:05.668Z",
  "devdoc": {
    "kind": "dev",
    "methods": {
      "approve(address,uint256)": {
        "details": "See {IERC721-approve}."
      },
      "balanceOf(address)": {
        "details": "See {IERC721-balanceOf}."
      },
      "getApproved(uint256)": {
        "details": "See {IERC721-getApproved}."
      },
      "isApprovedForAll(address,address)": {
        "details": "See {IERC721-isApprovedForAll}."
      },
      "name()": {
        "details": "See {IERC721Metadata-name}."
      },
      "owner()": {
        "details": "Returns the address of the current owner."
      },
      "ownerOf(uint256)": {
        "details": "See {IERC721-ownerOf}."
      },
      "renounceOwnership()": {
        "details": "Leaves the contract without owner. It will not be possible to call `onlyOwner` functions anymore. Can only be called by the current owner. NOTE: Renouncing ownership will leave the contract without an owner, thereby removing any functionality that is only available to the owner."
      },
      "safeTransferFrom(address,address,uint256)": {
        "details": "See {IERC721-safeTransferFrom}."
      },
      "safeTransferFrom(address,address,uint256,bytes)": {
        "details": "See {IERC721-safeTransferFrom}."
      },
      "setApprovalForAll(address,bool)": {
        "details": "See {IERC721-setApprovalForAll}."
      },
      "symbol()": {
        "details": "See {IERC721Metadata-symbol}."
      },
      "tokenByIndex(uint256)": {
        "details": "See {IERC721Enumerable-tokenByIndex}."
      },
      "tokenOfOwnerByIndex(address,uint256)": {
        "details": "See {IERC721Enumerable-tokenOfOwnerByIndex}."
      },
      "totalSupply()": {
        "details": "See {IERC721Enumerable-totalSupply}."
      },
      "transferFrom(address,address,uint256)": {
        "details": "See {IERC721-transferFrom}."
      },
      "transferOwnership(address)": {
        "details": "Transfers ownership of the contract to a new account (`newOwner`). Can only be called by the current owner."
      }
    },
    "version": 1
  },
  "userdoc": {
    "kind": "user",
    "methods": {},
    "version": 1
  }
}