{
  "contractName": "AssetOwnership",
  "abi": [
    {
      "inputs": [],
      "stateMutability": "nonpayable",
      "type": "constructor"
    },
    {
      "anonymous": false,
      "inputs": [
        {
          "indexed": false,
          "internalType": "uint256",
          "name": "serial",
          "type": "uint256"
        },
        {
          "indexed": false,
          "internalType": "uint256",
          "name": "value",
          "type": "uint256"
        }
      ],
      "name": "LogChangedValue",
      "type": "event"
    },
    {
      "anonymous": false,
      "inputs": [
        {
          "indexed": false,
          "internalType": "uint256",
          "name": "serial",
          "type": "uint256"
        }
      ],
      "name": "LogDestroyed",
      "type": "event"
    },
    {
      "anonymous": false,
      "inputs": [
        {
          "indexed": false,
          "internalType": "uint256",
          "name": "serial",
          "type": "uint256"
        }
      ],
      "name": "LogInPossession",
      "type": "event"
    },
    {
      "anonymous": false,
      "inputs": [
        {
          "indexed": false,
          "internalType": "uint256",
          "name": "serial",
          "type": "uint256"
        }
      ],
      "name": "LogLostOrStolen",
      "type": "event"
    },
    {
      "anonymous": false,
      "inputs": [
        {
          "indexed": false,
          "internalType": "uint256",
          "name": "serial",
          "type": "uint256"
        }
      ],
      "name": "LogSold",
      "type": "event"
    },
    {
      "anonymous": false,
      "inputs": [
        {
          "indexed": false,
          "internalType": "uint256",
          "name": "serial",
          "type": "uint256"
        }
      ],
      "name": "LogTransferringOwnership",
      "type": "event"
    },
    {
      "stateMutability": "payable",
      "type": "fallback",
      "payable": true
    },
    {
      "inputs": [],
      "name": "assetCount",
      "outputs": [
        {
          "internalType": "uint256",
          "name": "",
          "type": "uint256"
        }
      ],
      "stateMutability": "view",
      "type": "function",
      "constant": true
    },
    {
      "inputs": [],
      "name": "owner",
      "outputs": [
        {
          "internalType": "address",
          "name": "",
          "type": "address"
        }
      ],
      "stateMutability": "view",
      "type": "function",
      "constant": true
    },
    {
      "stateMutability": "payable",
      "type": "receive",
      "payable": true
    },
    {
      "inputs": [
        {
          "internalType": "string",
          "name": "_name",
          "type": "string"
        },
        {
          "internalType": "uint256",
          "name": "_serial",
          "type": "uint256"
        },
        {
          "internalType": "uint256",
          "name": "_value",
          "type": "uint256"
        }
      ],
      "name": "addAsset",
      "outputs": [
        {
          "internalType": "bool",
          "name": "",
          "type": "bool"
        }
      ],
      "stateMutability": "nonpayable",
      "type": "function"
    },
    {
      "inputs": [
        {
          "internalType": "uint256",
          "name": "_serial",
          "type": "uint256"
        }
      ],
      "name": "reportLostOrStolen",
      "outputs": [],
      "stateMutability": "nonpayable",
      "type": "function"
    },
    {
      "inputs": [
        {
          "internalType": "uint256",
          "name": "_serial",
          "type": "uint256"
        }
      ],
      "name": "reportFoundAndInPossession",
      "outputs": [],
      "stateMutability": "nonpayable",
      "type": "function"
    },
    {
      "inputs": [
        {
          "internalType": "uint256",
          "name": "_serial",
          "type": "uint256"
        }
      ],
      "name": "destroyAsset",
      "outputs": [],
      "stateMutability": "nonpayable",
      "type": "function"
    },
    {
      "inputs": [
        {
          "internalType": "uint256",
          "name": "_serial",
          "type": "uint256"
        },
        {
          "internalType": "uint256",
          "name": "_value",
          "type": "uint256"
        }
      ],
      "name": "changeValueOfAsset",
      "outputs": [],
      "stateMutability": "nonpayable",
      "type": "function"
    },
    {
      "inputs": [
        {
          "internalType": "uint256",
          "name": "_serial",
          "type": "uint256"
        }
      ],
      "name": "buyAsset",
      "outputs": [],
      "stateMutability": "payable",
      "type": "function",
      "payable": true
    },
    {
      "inputs": [
        {
          "internalType": "uint256",
          "name": "_serial",
          "type": "uint256"
        }
      ],
      "name": "transferOwnership",
      "outputs": [],
      "stateMutability": "nonpayable",
      "type": "function"
    },
    {
      "inputs": [
        {
          "internalType": "uint256",
          "name": "_serial",
          "type": "uint256"
        }
      ],
      "name": "receiveAsset",
      "outputs": [],
      "stateMutability": "nonpayable",
      "type": "function"
    },
    {
      "inputs": [
        {
          "internalType": "uint256",
          "name": "_serial",
          "type": "uint256"
        }
      ],
      "name": "fetchAsset",
      "outputs": [
        {
          "internalType": "string",
          "name": "name",
          "type": "string"
        },
        {
          "internalType": "uint256",
          "name": "serial",
          "type": "uint256"
        },
        {
          "internalType": "uint256",
          "name": "value",
          "type": "uint256"
        },
        {
          "internalType": "address",
          "name": "buyer",
          "type": "address"
        },
        {
          "internalType": "address",
          "name": "_owner",
          "type": "address"
        },
        {
          "internalType": "enum AssetOwnership.State",
          "name": "state",
          "type": "uint8"
        }
      ],
      "stateMutability": "view",
      "type": "function",
      "constant": true
    }
  ],
  "bytecode": "0x608060405234801561001057600080fd5b50336000806101000a81548173ffffffffffffffffffffffffffffffffffffffff021916908373ffffffffffffffffffffffffffffffffffffffff1602179055506000600181905550611752806100686000396000f3fe6080604052600436106100bd576000357c0100000000000000000000000000000000000000000000000000000000900480638da5cb5b116100815780638da5cb5b1461036a5780638da6074a146103ab578063999d0698146103f0578063ccc8ad121461042b578063d23e848914610466578063eafe7a74146104a1576100c4565b80630d3b39a3146100c6578063110d35b8146101b857806320211587146101e6578063474c1520146102215780637956073b1461025c576100c4565b366100c457005b005b3480156100d257600080fd5b506101a0600480360360608110156100e957600080fd5b810190808035906020019064010000000081111561010657600080fd5b82018360208201111561011857600080fd5b8035906020019184600183028401116401000000008311171561013a57600080fd5b91908080601f016020809104026020016040519081016040528093929190818152602001838380828437600081840152601f19601f82011690508083019250505050505050919291929080359060200190929190803590602001909291905050506104cc565b60405180821515815260200191505060405180910390f35b6101e4600480360360208110156101ce57600080fd5b8101908080359060200190929190505050610686565b005b3480156101f257600080fd5b5061021f6004803603602081101561020957600080fd5b810190808035906020019092919050505061093c565b005b34801561022d57600080fd5b5061025a6004803603602081101561024457600080fd5b8101908080359060200190929190505050610afe565b005b34801561026857600080fd5b506102956004803603602081101561027f57600080fd5b8101908080359060200190929190505050610cc0565b60405180806020018781526020018681526020018573ffffffffffffffffffffffffffffffffffffffff1681526020018473ffffffffffffffffffffffffffffffffffffffff1681526020018360048111156102ed57fe5b8152602001828103825288818151815260200191508051906020019080838360005b8381101561032a57808201518184015260208101905061030f565b50505050905090810190601f1680156103575780820380516001836020036101000a031916815260200191505b5097505050505050505060405180910390f35b34801561037657600080fd5b5061037f610e4e565b604051808273ffffffffffffffffffffffffffffffffffffffff16815260200191505060405180910390f35b3480156103b757600080fd5b506103ee600480360360408110156103ce57600080fd5b810190808035906020019092919080359060200190929190505050610e72565b005b3480156103fc57600080fd5b506104296004803603602081101561041357600080fd5b8101908080359060200190929190505050611020565b005b34801561043757600080fd5b506104646004803603602081101561044e57600080fd5b81019080803590602001909291905050506111e2565b005b34801561047257600080fd5b5061049f6004803603602081101561048957600080fd5b81019080803590602001909291905050506113f9565b005b3480156104ad57600080fd5b506104b66115d7565b6040518082815260200191505060405180910390f35b60006040518060c00160405280858152602001848152602001838152602001600073ffffffffffffffffffffffffffffffffffffffff1681526020013373ffffffffffffffffffffffffffffffffffffffff1681526020016000600481111561053157fe5b8152506002600085815260200190815260200160002060008201518160000190805190602001906105639291906115dd565b50602082015181600101556040820151816002015560608201518160030160006101000a81548173ffffffffffffffffffffffffffffffffffffffff021916908373ffffffffffffffffffffffffffffffffffffffff16021790555060808201518160040160006101000a81548173ffffffffffffffffffffffffffffffffffffffff021916908373ffffffffffffffffffffffffffffffffffffffff16021790555060a08201518160040160146101000a81548160ff0219169083600481111561062a57fe5b0217905550905050600180600082825401925050819055507f093aa5641a6cd9311446f9c310c8be7ddd06c576fdbe8ec65122183c61d258266001546040518082815260200191505060405180910390a1600190509392505050565b806000600481111561069457fe5b6002600083815260200190815260200160002060040160149054906101000a900460ff1660048111156106c357fe5b14610719576040517f08c379a000000000000000000000000000000000000000000000000000000000815260040180806020018281038252602d8152602001806116c1602d913960400191505060405180910390fd5b60026000838152602001908152602001600020600201548034101561073d57600080fd5b82600060026000838152602001908152602001600020600201549050600081340390506002600084815260200190815260200160002060030160009054906101000a900473ffffffffffffffffffffffffffffffffffffffff1673ffffffffffffffffffffffffffffffffffffffff166108fc829081150290604051600060405180830381858888f193505050501580156107dc573d6000803e3d6000fd5b506002600087815260200190815260200160002060040160009054906101000a900473ffffffffffffffffffffffffffffffffffffffff1673ffffffffffffffffffffffffffffffffffffffff166108fc60026000898152602001908152602001600020600201549081150290604051600060405180830381858888f1935050505015801561086f573d6000803e3d6000fd5b50336002600088815260200190815260200160002060030160006101000a81548173ffffffffffffffffffffffffffffffffffffffff021916908373ffffffffffffffffffffffffffffffffffffffff16021790555060016002600088815260200190815260200160002060040160146101000a81548160ff021916908360048111156108f857fe5b02179055507fe64ca8c671e48636f85f3008c1dd538e36bfa74fb6f2790b56b72fcc33b879ef866040518082815260200191505060405180910390a1505050505050565b6002600082815260200190815260200160002060040160009054906101000a900473ffffffffffffffffffffffffffffffffffffffff168073ffffffffffffffffffffffffffffffffffffffff163373ffffffffffffffffffffffffffffffffffffffff16146109f7576040517f08c379a000000000000000000000000000000000000000000000000000000000815260040180806020018281038252602381526020018061167b6023913960400191505060405180910390fd5b8160036004811115610a0557fe5b6002600083815260200190815260200160002060040160149054906101000a900460ff166004811115610a3457fe5b14610a8a576040517f08c379a000000000000000000000000000000000000000000000000000000000815260040180806020018281038252602f8152602001806116ee602f913960400191505060405180910390fd5b60006002600085815260200190815260200160002060040160146101000a81548160ff02191690836004811115610abd57fe5b02179055507f093aa5641a6cd9311446f9c310c8be7ddd06c576fdbe8ec65122183c61d25826836040518082815260200191505060405180910390a1505050565b6002600082815260200190815260200160002060040160009054906101000a900473ffffffffffffffffffffffffffffffffffffffff168073ffffffffffffffffffffffffffffffffffffffff163373ffffffffffffffffffffffffffffffffffffffff1614610bb9576040517f08c379a000000000000000000000000000000000000000000000000000000000815260040180806020018281038252602381526020018061167b6023913960400191505060405180910390fd5b8160006004811115610bc757fe5b6002600083815260200190815260200160002060040160149054906101000a900460ff166004811115610bf657fe5b14610c4c576040517f08c379a000000000000000000000000000000000000000000000000000000000815260040180806020018281038252602d8152602001806116c1602d913960400191505060405180910390fd5b60046002600085815260200190815260200160002060040160146101000a81548160ff02191690836004811115610c7f57fe5b02179055507f5b26169f8a09a82388a380e50ae25febdebf7a25930bed9d2d4c40997aa2bff5836040518082815260200191505060405180910390a1505050565b60606000806000806000600260008881526020019081526020016000206000018054600181600116156101000203166002900480601f016020809104026020016040519081016040528092919081815260200182805460018160011615610100020316600290048015610d745780601f10610d4957610100808354040283529160200191610d74565b820191906000526020600020905b815481529060010190602001808311610d5757829003601f168201915b5050505050955060026000888152602001908152602001600020600101549450600260008881526020019081526020016000206002015493506002600088815260200190815260200160002060030160009054906101000a900473ffffffffffffffffffffffffffffffffffffffff1692506002600088815260200190815260200160002060040160009054906101000a900473ffffffffffffffffffffffffffffffffffffffff1691506002600088815260200190815260200160002060040160149054906101000a900460ff16905091939550919395565b60008054906101000a900473ffffffffffffffffffffffffffffffffffffffff1681565b6002600083815260200190815260200160002060040160009054906101000a900473ffffffffffffffffffffffffffffffffffffffff168073ffffffffffffffffffffffffffffffffffffffff163373ffffffffffffffffffffffffffffffffffffffff1614610f2d576040517f08c379a000000000000000000000000000000000000000000000000000000000815260040180806020018281038252602381526020018061167b6023913960400191505060405180910390fd5b8260006004811115610f3b57fe5b6002600083815260200190815260200160002060040160149054906101000a900460ff166004811115610f6a57fe5b14610fc0576040517f08c379a000000000000000000000000000000000000000000000000000000000815260040180806020018281038252602d8152602001806116c1602d913960400191505060405180910390fd5b8260026000868152602001908152602001600020600201819055507f4976485b2f48f09df07ae290110ea4f5337927c6e906f45113aa7103dbb7b8168484604051808381526020018281526020019250505060405180910390a150505050565b6002600082815260200190815260200160002060040160009054906101000a900473ffffffffffffffffffffffffffffffffffffffff168073ffffffffffffffffffffffffffffffffffffffff163373ffffffffffffffffffffffffffffffffffffffff16146110db576040517f08c379a000000000000000000000000000000000000000000000000000000000815260040180806020018281038252602381526020018061167b6023913960400191505060405180910390fd5b81600060048111156110e957fe5b6002600083815260200190815260200160002060040160149054906101000a900460ff16600481111561111857fe5b1461116e576040517f08c379a000000000000000000000000000000000000000000000000000000000815260040180806020018281038252602d8152602001806116c1602d913960400191505060405180910390fd5b60036002600085815260200190815260200160002060040160146101000a81548160ff021916908360048111156111a157fe5b02179055507f17f25fb4ca769af8193da43a90b66526915e8d63e8ea591300c9257e30826073836040518082815260200191505060405180910390a1505050565b6002600082815260200190815260200160002060030160009054906101000a900473ffffffffffffffffffffffffffffffffffffffff168073ffffffffffffffffffffffffffffffffffffffff163373ffffffffffffffffffffffffffffffffffffffff161461129d576040517f08c379a000000000000000000000000000000000000000000000000000000000815260040180806020018281038252602381526020018061167b6023913960400191505060405180910390fd5b81600260048111156112ab57fe5b6002600083815260200190815260200160002060040160149054906101000a900460ff1660048111156112da57fe5b14611330576040517f08c379a000000000000000000000000000000000000000000000000000000000815260040180806020018281038252602381526020018061169e6023913960400191505060405180910390fd5b336002600085815260200190815260200160002060040160006101000a81548173ffffffffffffffffffffffffffffffffffffffff021916908373ffffffffffffffffffffffffffffffffffffffff16021790555060006002600085815260200190815260200160002060040160146101000a81548160ff021916908360048111156113b857fe5b02179055507f093aa5641a6cd9311446f9c310c8be7ddd06c576fdbe8ec65122183c61d25826836040518082815260200191505060405180910390a1505050565b6002600082815260200190815260200160002060040160009054906101000a900473ffffffffffffffffffffffffffffffffffffffff168073ffffffffffffffffffffffffffffffffffffffff163373ffffffffffffffffffffffffffffffffffffffff16146114b4576040517f08c379a000000000000000000000000000000000000000000000000000000000815260040180806020018281038252602381526020018061167b6023913960400191505060405180910390fd5b81600160048111156114c257fe5b6002600083815260200190815260200160002060040160149054906101000a900460ff1660048111156114f157fe5b14611564576040517f08c379a000000000000000000000000000000000000000000000000000000000815260040180806020018281038252601c8152602001807f5468697320617373657420686173206e6f74206265656e20736f6c640000000081525060200191505060405180910390fd5b600280600085815260200190815260200160002060040160146101000a81548160ff0219169083600481111561159657fe5b02179055507f2a9084725f234daba37e8547a68741c2b44eb71f59b61f7aaaa825fee7ea5c0a836040518082815260200191505060405180910390a1505050565b60015481565b828054600181600116156101000203166002900490600052602060002090601f016020900481019282601f1061161e57805160ff191683800117855561164c565b8280016001018555821561164c579182015b8281111561164b578251825591602001919060010190611630565b5b509050611659919061165d565b5090565b5b8082111561167657600081600090555060010161165e565b509056fe596f7520617265206e6f7420746865206f776e6572206f6620746869732061737365744f776e65727368697020686173206e6f74206265656e207472616e736665727265642e546865206173736574206973206e6f742063757272656e746c7920696e20796f757220706f7373657373696f6e5468697320617373657420686173206e6f74206265656e207265706f72746564206c6f7374206f722073746f6c656ea26469706673582212200a3a3545eb0ea3e64a191aa5f35384bfa8c1778fce6757e9c2878c60a05bf75764736f6c634300060c0033",
  "immutableReferences": {},
  "source": "// SPDX-License-Identifier: MIT\npragma solidity >=0.6.0 <0.9.0;\n\ncontract AssetOwnership {\n\n    // owner\n    address public owner;\n\n    // number of assets\n    uint public assetCount;\n\n    // Function to receive Ether. msg.data must be empty\n    receive() external payable {}\n\n    // Fallback function is called when msg.data is not empty\n    fallback() external payable {}\n\n    // assets\n    mapping (uint => Asset) assets;\n\n    // asset state\n    enum State{InPossession, Sold, TransferringOwnership, LostOrStolen, Destroyed}\n\n    // asset struct\n    struct Asset {\n        string name;\n        uint serial;\n        uint value;\n        address payable buyer;\n        address payable owner;\n        State state;\n    }\n\n\n\n    /*\n     * Constructor\n     */\n\n    constructor () public {\n        owner = msg.sender;\n        assetCount = 0;\n    }\n\n\n\n    /*\n     * Events\n     */\n\n    event LogInPossession(uint serial);\n\n    event LogSold(uint serial);\n\n    event LogTransferringOwnership(uint serial);\n    \n    event LogLostOrStolen(uint serial);\n\n    event LogDestroyed(uint serial);\n\n    event LogChangedValue(uint serial, uint value);\n\n\n    /*\n     * Modifiers\n     */\n\n    \n    \n    \n    modifier verifyCaller (address _address) {\n        require(msg.sender == _address, \"You are not the owner of this asset\");\n        _;\n    }\n\n    modifier inPossession (uint _serial) {\n        require(assets[_serial].state == State.InPossession, \"The asset is not currently in your possession\"); \n        _;\n    }\n\n    modifier isLostorStolen (uint _serial) {\n        require(assets[_serial].state == State.LostOrStolen, \"This asset has not been reported lost or stolen\");\n        _;\n    }\n\n    modifier isNotDestroyed (uint _serial) {\n        require(assets[_serial].state != State.Destroyed, \"This asset has been destroyed. No further actions are available\");\n        _;\n    }\n\n    modifier sold(uint _serial) {\n        require(assets[_serial].state == State.Sold, \"This asset has not been sold\");\n        _;\n    }\n\n    modifier transferringOwnership (uint _serial) {\n        require(assets[_serial].state == State.TransferringOwnership, \"Ownership has not been transferred.\");\n        _;\n    }\n\n    \n    modifier checkValue(uint _serial) {\n        uint _value = assets[_serial].value;\n        uint amountToRefund = msg.value - _value;\n        \n        assets[_serial].buyer.transfer(amountToRefund);\n        _;\n    }\n\n    modifier paidEnough (uint _value) {\n        require(msg.value >= _value);\n        _;\n    }\n\n\n    /*\n     * Functionality\n     */\n\n\n\n    // creates new Asset struct and adds it to asset mapping\n    function addAsset(string memory _name, uint _serial, uint _value) public returns (bool) {\n        \n        assets[_serial] = Asset({\n            name: _name,\n            serial: _serial,\n            value: _value,\n            buyer: payable (address(0)),\n            owner: payable (msg.sender),\n            state: State.InPossession\n        });\n\n        assetCount += 1;\n\n        emit LogInPossession(assetCount);\n\n        return true;\n    }\n\n    // LOST OR STOLEN\n    function reportLostOrStolen(uint _serial) verifyCaller(assets[_serial].owner) inPossession(_serial) public {\n        assets[_serial].state = State.LostOrStolen;\n\n        emit LogLostOrStolen(_serial);\n    }\n\n    // IN POSSESSION\n    function reportFoundAndInPossession(uint _serial) verifyCaller(assets[_serial].owner) isLostorStolen(_serial) public {\n        assets[_serial].state = State.InPossession;\n\n        emit LogInPossession(_serial);\n    }\n\n\n    // DESTROY\n    function destroyAsset(uint _serial) verifyCaller(assets[_serial].owner) inPossession(_serial) public {\n        assets[_serial].state = State.Destroyed;\n\n        emit LogDestroyed(_serial);\n    }\n\n    // VALUE: changeValueOfAsset\n    function changeValueOfAsset(uint _serial, uint _value) verifyCaller(assets[_serial].owner) inPossession(_serial) public {\n        assets[_serial].value = _value;\n\n        emit LogChangedValue(_serial, _value);\n    }\n\n    // BUY\n    function buyAsset(uint _serial) inPossession(_serial) paidEnough(assets[_serial].value) checkValue(_serial) payable public {\n        assets[_serial].owner.transfer(assets[_serial].value);\n        assets[_serial].buyer = payable(msg.sender);\n\n        assets[_serial].state = State.Sold;\n\n        emit LogSold(_serial);\n    }\n\n    // TRANSFER\n    function transferOwnership(uint _serial) verifyCaller(assets[_serial].owner) sold(_serial) public {\n        assets[_serial].state = State.TransferringOwnership;\n\n        emit LogTransferringOwnership(_serial);\n    }\n\n    // RECEIVED\n    function receiveAsset(uint _serial) verifyCaller(assets[_serial].buyer) transferringOwnership(_serial) public {\n        assets[_serial].owner = payable(msg.sender);\n        assets[_serial].state = State.InPossession;\n\n        emit LogInPossession(_serial);\n    }\n\n    // FETCH\n    function fetchAsset(uint _serial) public view \n    returns (string memory name, uint serial, uint value, address buyer, address _owner, State state) {\n        \n        name = assets[_serial].name;\n        serial = assets[_serial].serial;\n        value = assets[_serial].value;\n        buyer = assets[_serial].buyer;\n        _owner = assets[_serial].owner;\n        state = assets[_serial].state;\n\n        return (name, serial, value, buyer, _owner, state);\n    }\n}\n",
  "sourcePath": "/Users/leo/sandbox/blockchain/blockchain-developer-bootcamp-final-project/contracts/AssetOwnership.sol",
  "compiler": {
    "name": "solc",
    "version": "0.6.12+commit.27d51765.Emscripten.clang"
  },
  "schemaVersion": "3.4.3",
  "updatedAt": "2021-12-23T21:42:15.695Z",
  "networkType": "ethereum",
  "devdoc": {
    "kind": "dev",
    "methods": {},
    "version": 1
  },
  "userdoc": {
    "kind": "user",
    "methods": {},
    "version": 1
  }
}