{
  "contractName": "AssetOwnership",
  "abi": [
    {
      "inputs": [],
      "stateMutability": "payable",
      "type": "constructor",
      "payable": true
    },
    {
      "anonymous": false,
      "inputs": [
        {
          "indexed": false,
          "internalType": "uint256",
          "name": "serial",
          "type": "uint256"
        },
        {
          "indexed": false,
          "internalType": "uint256",
          "name": "value",
          "type": "uint256"
        }
      ],
      "name": "LogChangedValue",
      "type": "event"
    },
    {
      "anonymous": false,
      "inputs": [
        {
          "indexed": false,
          "internalType": "uint256",
          "name": "serial",
          "type": "uint256"
        }
      ],
      "name": "LogDestroyed",
      "type": "event"
    },
    {
      "anonymous": false,
      "inputs": [
        {
          "indexed": false,
          "internalType": "uint256",
          "name": "serial",
          "type": "uint256"
        }
      ],
      "name": "LogInPossession",
      "type": "event"
    },
    {
      "anonymous": false,
      "inputs": [
        {
          "indexed": false,
          "internalType": "uint256",
          "name": "serial",
          "type": "uint256"
        }
      ],
      "name": "LogLostOrStolen",
      "type": "event"
    },
    {
      "anonymous": false,
      "inputs": [
        {
          "indexed": false,
          "internalType": "uint256",
          "name": "serial",
          "type": "uint256"
        }
      ],
      "name": "LogSold",
      "type": "event"
    },
    {
      "anonymous": false,
      "inputs": [
        {
          "indexed": false,
          "internalType": "uint256",
          "name": "serial",
          "type": "uint256"
        }
      ],
      "name": "LogTransferringOwnership",
      "type": "event"
    },
    {
      "stateMutability": "payable",
      "type": "fallback",
      "payable": true
    },
    {
      "inputs": [],
      "name": "assetCount",
      "outputs": [
        {
          "internalType": "uint256",
          "name": "",
          "type": "uint256"
        }
      ],
      "stateMutability": "view",
      "type": "function",
      "constant": true
    },
    {
      "inputs": [],
      "name": "owner",
      "outputs": [
        {
          "internalType": "address payable",
          "name": "",
          "type": "address"
        }
      ],
      "stateMutability": "view",
      "type": "function",
      "constant": true
    },
    {
      "stateMutability": "payable",
      "type": "receive",
      "payable": true
    },
    {
      "inputs": [
        {
          "internalType": "string",
          "name": "_name",
          "type": "string"
        },
        {
          "internalType": "uint256",
          "name": "_serial",
          "type": "uint256"
        },
        {
          "internalType": "uint256",
          "name": "_value",
          "type": "uint256"
        }
      ],
      "name": "addAsset",
      "outputs": [
        {
          "internalType": "bool",
          "name": "",
          "type": "bool"
        }
      ],
      "stateMutability": "nonpayable",
      "type": "function"
    },
    {
      "inputs": [
        {
          "internalType": "uint256",
          "name": "_serial",
          "type": "uint256"
        }
      ],
      "name": "reportLostOrStolen",
      "outputs": [],
      "stateMutability": "nonpayable",
      "type": "function"
    },
    {
      "inputs": [
        {
          "internalType": "uint256",
          "name": "_serial",
          "type": "uint256"
        }
      ],
      "name": "reportFoundAndInPossession",
      "outputs": [],
      "stateMutability": "nonpayable",
      "type": "function"
    },
    {
      "inputs": [
        {
          "internalType": "uint256",
          "name": "_serial",
          "type": "uint256"
        }
      ],
      "name": "destroyAsset",
      "outputs": [],
      "stateMutability": "nonpayable",
      "type": "function"
    },
    {
      "inputs": [
        {
          "internalType": "uint256",
          "name": "_serial",
          "type": "uint256"
        },
        {
          "internalType": "uint256",
          "name": "_value",
          "type": "uint256"
        }
      ],
      "name": "changeValueOfAsset",
      "outputs": [],
      "stateMutability": "nonpayable",
      "type": "function"
    },
    {
      "inputs": [
        {
          "internalType": "uint256",
          "name": "_serial",
          "type": "uint256"
        }
      ],
      "name": "buyAsset",
      "outputs": [],
      "stateMutability": "payable",
      "type": "function",
      "payable": true
    },
    {
      "inputs": [
        {
          "internalType": "uint256",
          "name": "_serial",
          "type": "uint256"
        }
      ],
      "name": "receiveAsset",
      "outputs": [],
      "stateMutability": "payable",
      "type": "function",
      "payable": true
    },
    {
      "inputs": [
        {
          "internalType": "uint256",
          "name": "_serial",
          "type": "uint256"
        }
      ],
      "name": "fetchAsset",
      "outputs": [
        {
          "internalType": "string",
          "name": "name",
          "type": "string"
        },
        {
          "internalType": "uint256",
          "name": "serial",
          "type": "uint256"
        },
        {
          "internalType": "uint256",
          "name": "value",
          "type": "uint256"
        },
        {
          "internalType": "address",
          "name": "buyer",
          "type": "address"
        },
        {
          "internalType": "address",
          "name": "_owner",
          "type": "address"
        },
        {
          "internalType": "enum AssetOwnership.State",
          "name": "state",
          "type": "uint8"
        }
      ],
      "stateMutability": "view",
      "type": "function",
      "constant": true
    }
  ],
  "bytecode": "0x6080604052336000806101000a81548173ffffffffffffffffffffffffffffffffffffffff021916908373ffffffffffffffffffffffffffffffffffffffff16021790555060006001819055506115698061005b6000396000f3fe6080604052600436106100b2576000357c0100000000000000000000000000000000000000000000000000000000900480638da5cb5b116100765780638da5cb5b1461035f5780638da6074a146103a0578063999d0698146103e5578063ccc8ad1214610420578063eafe7a741461044e576100b9565b80630d3b39a3146100bb578063110d35b8146101ad57806320211587146101db578063474c1520146102165780637956073b14610251576100b9565b366100b957005b005b3480156100c757600080fd5b50610195600480360360608110156100de57600080fd5b81019080803590602001906401000000008111156100fb57600080fd5b82018360208201111561010d57600080fd5b8035906020019184600183028401116401000000008311171561012f57600080fd5b91908080601f016020809104026020016040519081016040528093929190818152602001838380828437600081840152601f19601f8201169050808301925050505050505091929192908035906020019092919080359060200190929190505050610479565b60405180821515815260200191505060405180910390f35b6101d9600480360360208110156101c357600080fd5b8101908080359060200190929190505050610633565b005b3480156101e757600080fd5b50610214600480360360208110156101fe57600080fd5b810190808035906020019092919050505061084b565b005b34801561022257600080fd5b5061024f6004803603602081101561023957600080fd5b8101908080359060200190929190505050610a0d565b005b34801561025d57600080fd5b5061028a6004803603602081101561027457600080fd5b8101908080359060200190929190505050610bcf565b60405180806020018781526020018681526020018573ffffffffffffffffffffffffffffffffffffffff1681526020018473ffffffffffffffffffffffffffffffffffffffff1681526020018360038111156102e257fe5b8152602001828103825288818151815260200191508051906020019080838360005b8381101561031f578082015181840152602081019050610304565b50505050905090810190601f16801561034c5780820380516001836020036101000a031916815260200191505b5097505050505050505060405180910390f35b34801561036b57600080fd5b50610374610d5d565b604051808273ffffffffffffffffffffffffffffffffffffffff16815260200191505060405180910390f35b3480156103ac57600080fd5b506103e3600480360360408110156103c357600080fd5b810190808035906020019092919080359060200190929190505050610d81565b005b3480156103f157600080fd5b5061041e6004803603602081101561040857600080fd5b8101908080359060200190929190505050610f2f565b005b61044c6004803603602081101561043657600080fd5b81019080803590602001909291905050506110f0565b005b34801561045a57600080fd5b506104636113a4565b6040518082815260200191505060405180910390f35b60006040518060c00160405280858152602001848152602001838152602001600073ffffffffffffffffffffffffffffffffffffffff1681526020013373ffffffffffffffffffffffffffffffffffffffff168152602001600060038111156104de57fe5b8152506002600085815260200190815260200160002060008201518160000190805190602001906105109291906113aa565b50602082015181600101556040820151816002015560608201518160030160006101000a81548173ffffffffffffffffffffffffffffffffffffffff021916908373ffffffffffffffffffffffffffffffffffffffff16021790555060808201518160040160006101000a81548173ffffffffffffffffffffffffffffffffffffffff021916908373ffffffffffffffffffffffffffffffffffffffff16021790555060a08201518160040160146101000a81548160ff021916908360038111156105d757fe5b0217905550905050600180600082825401925050819055507f093aa5641a6cd9311446f9c310c8be7ddd06c576fdbe8ec65122183c61d258266001546040518082815260200191505060405180910390a1600190509392505050565b806000600381111561064157fe5b6002600083815260200190815260200160002060040160149054906101000a900460ff16600381111561067057fe5b146106c6576040517f08c379a000000000000000000000000000000000000000000000000000000000815260040180806020018281038252602d81526020018061148e602d913960400191505060405180910390fd5b6002600083815260200190815260200160002060040160009054906101000a900473ffffffffffffffffffffffffffffffffffffffff168073ffffffffffffffffffffffffffffffffffffffff163373ffffffffffffffffffffffffffffffffffffffff161415610782576040517f08c379a00000000000000000000000000000000000000000000000000000000081526004018080602001828103825260278152602001806114bb6027913960400191505060405180910390fd5b336002600085815260200190815260200160002060030160006101000a81548173ffffffffffffffffffffffffffffffffffffffff021916908373ffffffffffffffffffffffffffffffffffffffff16021790555060016002600085815260200190815260200160002060040160146101000a81548160ff0219169083600381111561080a57fe5b02179055507fe64ca8c671e48636f85f3008c1dd538e36bfa74fb6f2790b56b72fcc33b879ef836040518082815260200191505060405180910390a1505050565b6002600082815260200190815260200160002060040160009054906101000a900473ffffffffffffffffffffffffffffffffffffffff168073ffffffffffffffffffffffffffffffffffffffff163373ffffffffffffffffffffffffffffffffffffffff1614610906576040517f08c379a00000000000000000000000000000000000000000000000000000000081526004018080602001828103825260238152602001806114486023913960400191505060405180910390fd5b816002600381111561091457fe5b6002600083815260200190815260200160002060040160149054906101000a900460ff16600381111561094357fe5b14610999576040517f08c379a000000000000000000000000000000000000000000000000000000000815260040180806020018281038252602f8152602001806114e2602f913960400191505060405180910390fd5b60006002600085815260200190815260200160002060040160146101000a81548160ff021916908360038111156109cc57fe5b02179055507f093aa5641a6cd9311446f9c310c8be7ddd06c576fdbe8ec65122183c61d25826836040518082815260200191505060405180910390a1505050565b6002600082815260200190815260200160002060040160009054906101000a900473ffffffffffffffffffffffffffffffffffffffff168073ffffffffffffffffffffffffffffffffffffffff163373ffffffffffffffffffffffffffffffffffffffff1614610ac8576040517f08c379a00000000000000000000000000000000000000000000000000000000081526004018080602001828103825260238152602001806114486023913960400191505060405180910390fd5b8160006003811115610ad657fe5b6002600083815260200190815260200160002060040160149054906101000a900460ff166003811115610b0557fe5b14610b5b576040517f08c379a000000000000000000000000000000000000000000000000000000000815260040180806020018281038252602d81526020018061148e602d913960400191505060405180910390fd5b60036002600085815260200190815260200160002060040160146101000a81548160ff02191690836003811115610b8e57fe5b02179055507f5b26169f8a09a82388a380e50ae25febdebf7a25930bed9d2d4c40997aa2bff5836040518082815260200191505060405180910390a1505050565b60606000806000806000600260008881526020019081526020016000206000018054600181600116156101000203166002900480601f016020809104026020016040519081016040528092919081815260200182805460018160011615610100020316600290048015610c835780601f10610c5857610100808354040283529160200191610c83565b820191906000526020600020905b815481529060010190602001808311610c6657829003601f168201915b5050505050955060026000888152602001908152602001600020600101549450600260008881526020019081526020016000206002015493506002600088815260200190815260200160002060030160009054906101000a900473ffffffffffffffffffffffffffffffffffffffff1692506002600088815260200190815260200160002060040160009054906101000a900473ffffffffffffffffffffffffffffffffffffffff1691506002600088815260200190815260200160002060040160149054906101000a900460ff16905091939550919395565b60008054906101000a900473ffffffffffffffffffffffffffffffffffffffff1681565b6002600083815260200190815260200160002060040160009054906101000a900473ffffffffffffffffffffffffffffffffffffffff168073ffffffffffffffffffffffffffffffffffffffff163373ffffffffffffffffffffffffffffffffffffffff1614610e3c576040517f08c379a00000000000000000000000000000000000000000000000000000000081526004018080602001828103825260238152602001806114486023913960400191505060405180910390fd5b8260006003811115610e4a57fe5b6002600083815260200190815260200160002060040160149054906101000a900460ff166003811115610e7957fe5b14610ecf576040517f08c379a000000000000000000000000000000000000000000000000000000000815260040180806020018281038252602d81526020018061148e602d913960400191505060405180910390fd5b8260026000868152602001908152602001600020600201819055507f4976485b2f48f09df07ae290110ea4f5337927c6e906f45113aa7103dbb7b8168484604051808381526020018281526020019250505060405180910390a150505050565b6002600082815260200190815260200160002060040160009054906101000a900473ffffffffffffffffffffffffffffffffffffffff168073ffffffffffffffffffffffffffffffffffffffff163373ffffffffffffffffffffffffffffffffffffffff1614610fea576040517f08c379a00000000000000000000000000000000000000000000000000000000081526004018080602001828103825260238152602001806114486023913960400191505060405180910390fd5b8160006003811115610ff857fe5b6002600083815260200190815260200160002060040160149054906101000a900460ff16600381111561102757fe5b1461107d576040517f08c379a000000000000000000000000000000000000000000000000000000000815260040180806020018281038252602d81526020018061148e602d913960400191505060405180910390fd5b600280600085815260200190815260200160002060040160146101000a81548160ff021916908360038111156110af57fe5b02179055507f17f25fb4ca769af8193da43a90b66526915e8d63e8ea591300c9257e30826073836040518082815260200191505060405180910390a1505050565b6002600082815260200190815260200160002060030160009054906101000a900473ffffffffffffffffffffffffffffffffffffffff168073ffffffffffffffffffffffffffffffffffffffff163373ffffffffffffffffffffffffffffffffffffffff16146111ab576040517f08c379a00000000000000000000000000000000000000000000000000000000081526004018080602001828103825260238152602001806115116023913960400191505060405180910390fd5b81600160038111156111b957fe5b6002600083815260200190815260200160002060040160149054906101000a900460ff1660038111156111e857fe5b1461123e576040517f08c379a000000000000000000000000000000000000000000000000000000000815260040180806020018281038252602381526020018061146b6023913960400191505060405180910390fd5b6002600084815260200190815260200160002060040160009054906101000a900473ffffffffffffffffffffffffffffffffffffffff1673ffffffffffffffffffffffffffffffffffffffff166108fc670de0b6b3a76400006002600087815260200190815260200160002060020154029081150290604051600060405180830381858888f193505050501580156112da573d6000803e3d6000fd5b50336002600085815260200190815260200160002060040160006101000a81548173ffffffffffffffffffffffffffffffffffffffff021916908373ffffffffffffffffffffffffffffffffffffffff16021790555060006002600085815260200190815260200160002060040160146101000a81548160ff0219169083600381111561136357fe5b02179055507f093aa5641a6cd9311446f9c310c8be7ddd06c576fdbe8ec65122183c61d25826836040518082815260200191505060405180910390a1505050565b60015481565b828054600181600116156101000203166002900490600052602060002090601f016020900481019282601f106113eb57805160ff1916838001178555611419565b82800160010185558215611419579182015b828111156114185782518255916020019190600101906113fd565b5b509050611426919061142a565b5090565b5b8082111561144357600081600090555060010161142b565b509056fe596f7520617265206e6f7420746865206f776e6572206f6620746869732061737365744f776e65727368697020686173206e6f74206265656e207472616e736665727265642e546865206173736574206973206e6f742063757272656e746c7920696e20796f757220706f7373657373696f6e596f752061726520616c726561647920746865206f776e6572206f6620746869732061737365745468697320617373657420686173206e6f74206265656e207265706f72746564206c6f7374206f722073746f6c656e596f7520617265206e6f7420746865206275796572206f662074686973206173736574a26469706673582212205c592a024dcb935bad21415fef971287e5a3574967c1b84fba082ba777886b4d64736f6c634300060c0033",
  "immutableReferences": {},
  "source": "// SPDX-License-Identifier: MIT\npragma solidity >=0.6.0 <0.9.0;\n\ncontract AssetOwnership {\n\n    // owner\n    address payable public owner;\n\n    // number of assets\n    uint public assetCount;\n\n    // Function to receive Ether. msg.data must be empty\n    receive() external payable {}\n\n    // Fallback function is called when msg.data is not empty\n    fallback() external payable {}\n\n    // assets\n    mapping (uint => Asset) assets;\n\n    // asset state\n    enum State{InPossession, TransferringOwnership, LostOrStolen, Destroyed}\n\n    // asset struct\n    struct Asset {\n        string name;\n        uint serial;\n        uint value;\n        address payable buyer;\n        address payable owner;\n        State state;\n    }\n\n\n\n    /*\n     * Constructor\n     */\n\n    constructor () public payable{\n        owner = payable(msg.sender);\n        assetCount = 0;\n    }\n\n\n\n    /*\n     * Events\n     */\n\n    event LogInPossession(uint serial);\n\n    event LogSold(uint serial);\n\n    event LogTransferringOwnership(uint serial);\n    \n    event LogLostOrStolen(uint serial);\n\n    event LogDestroyed(uint serial);\n\n    event LogChangedValue(uint serial, uint value);\n\n\n    /*\n     * Modifiers\n     */\n\n    \n    \n    \n    modifier verifyOwner (address _address) {\n        require(msg.sender == _address, \"You are not the owner of this asset\");\n        _;\n    }\n\n    modifier verifyBuyer (address _address) {\n        require(msg.sender == _address, \"You are not the buyer of this asset\");\n        _;\n    }\n\n    modifier verifyNotOwner (address _address) {\n        require(msg.sender != _address, \"You are already the owner of this asset\");\n        _;\n    }\n\n    modifier inPossession (uint _serial) {\n        require(assets[_serial].state == State.InPossession, \"The asset is not currently in your possession\"); \n        _;\n    }\n\n    modifier isLostorStolen (uint _serial) {\n        require(assets[_serial].state == State.LostOrStolen, \"This asset has not been reported lost or stolen\");\n        _;\n    }\n\n    modifier isNotDestroyed (uint _serial) {\n        require(assets[_serial].state != State.Destroyed, \"This asset has been destroyed. No further actions are available\");\n        _;\n    }\n\n    modifier transferringOwnership (uint _serial) {\n        require(assets[_serial].state == State.TransferringOwnership, \"Ownership has not been transferred.\");\n        _;\n    }\n\n    \n    modifier checkValue(uint _serial) {\n        uint _value = assets[_serial].value;\n        uint amountToRefund = msg.value - _value;\n        \n        assets[_serial].buyer.transfer(amountToRefund);\n        _;\n    }\n\n    modifier paidEnough (uint _value) {\n        require(msg.value >= _value);\n        _;\n    }\n\n\n    /*\n     * Functionality\n     */\n\n\n\n    // creates new Asset struct and adds it to asset mapping\n    function addAsset(string memory _name, uint _serial, uint _value) public returns (bool) {\n        \n        assets[_serial] = Asset({\n            name: _name,\n            serial: _serial,\n            value: _value,\n            buyer: payable (address(0)),\n            owner: payable (msg.sender),\n            state: State.InPossession\n        });\n\n        assetCount += 1;\n\n        emit LogInPossession(assetCount);\n\n        return true;\n    }\n\n    // LOST OR STOLEN\n    function reportLostOrStolen(uint _serial) verifyOwner(assets[_serial].owner) inPossession(_serial) public {\n        assets[_serial].state = State.LostOrStolen;\n\n        emit LogLostOrStolen(_serial);\n    }\n\n    // IN POSSESSION\n    function reportFoundAndInPossession(uint _serial) verifyOwner(assets[_serial].owner) isLostorStolen(_serial) public {\n        assets[_serial].state = State.InPossession;\n\n        emit LogInPossession(_serial);\n    }\n\n\n    // DESTROY\n    function destroyAsset(uint _serial) verifyOwner(assets[_serial].owner) inPossession(_serial) public {\n        assets[_serial].state = State.Destroyed;\n\n        emit LogDestroyed(_serial);\n    }\n\n    // VALUE: changeValueOfAsset\n    function changeValueOfAsset(uint _serial, uint _value) verifyOwner(assets[_serial].owner) inPossession(_serial) public {\n        assets[_serial].value = _value;\n\n        emit LogChangedValue(_serial, _value);\n    }\n\n    // BUY\n    function buyAsset(uint _serial) inPossession(_serial) verifyNotOwner(assets[_serial].owner) payable public {        \n        // TODO: Change and add modifiers\n        \n        assets[_serial].buyer = payable(msg.sender);\n\n        assets[_serial].state = State.TransferringOwnership;\n\n        emit LogSold(_serial);\n    }\n\n    // RECEIVED\n    function receiveAsset(uint _serial) verifyBuyer(assets[_serial].buyer) transferringOwnership(_serial) payable public {\n        assets[_serial].owner.transfer(assets[_serial].value * 1000000000000000000);\n\n        assets[_serial].owner = payable(msg.sender);\n        \n        assets[_serial].state = State.InPossession;\n\n        emit LogInPossession(_serial);\n    }\n\n    // FETCH\n    function fetchAsset(uint _serial) public view \n    returns (string memory name, uint serial, uint value, address buyer, address _owner, State state) {\n        \n        name = assets[_serial].name;\n        serial = assets[_serial].serial;\n        value = assets[_serial].value;\n        buyer = assets[_serial].buyer;\n        _owner = assets[_serial].owner;\n        state = assets[_serial].state;\n\n        return (name, serial, value, buyer, _owner, state);\n    }\n}\n",
  "sourcePath": "/Users/leo/sandbox/blockchain/blockchain-developer-bootcamp-final-project/contracts/AssetOwnership.sol",
  "compiler": {
    "name": "solc",
    "version": "0.6.12+commit.27d51765.Emscripten.clang"
  },
  "schemaVersion": "3.4.3",
  "updatedAt": "2022-01-13T23:26:19.260Z",
  "networkType": "ethereum",
  "devdoc": {
    "kind": "dev",
    "methods": {},
    "version": 1
  },
  "userdoc": {
    "kind": "user",
    "methods": {},
    "version": 1
  }
}