{
  "contractName": "AssetOwnership",
  "abi": [
    {
      "inputs": [],
      "stateMutability": "nonpayable",
      "type": "constructor"
    },
    {
      "anonymous": false,
      "inputs": [
        {
          "indexed": false,
          "internalType": "uint256",
          "name": "serial",
          "type": "uint256"
        },
        {
          "indexed": false,
          "internalType": "uint256",
          "name": "value",
          "type": "uint256"
        }
      ],
      "name": "LogChangedValue",
      "type": "event"
    },
    {
      "anonymous": false,
      "inputs": [
        {
          "indexed": false,
          "internalType": "uint256",
          "name": "serial",
          "type": "uint256"
        }
      ],
      "name": "LogDestroyed",
      "type": "event"
    },
    {
      "anonymous": false,
      "inputs": [
        {
          "indexed": false,
          "internalType": "uint256",
          "name": "serial",
          "type": "uint256"
        }
      ],
      "name": "LogInPossession",
      "type": "event"
    },
    {
      "anonymous": false,
      "inputs": [
        {
          "indexed": false,
          "internalType": "uint256",
          "name": "serial",
          "type": "uint256"
        }
      ],
      "name": "LogLostOrStolen",
      "type": "event"
    },
    {
      "anonymous": false,
      "inputs": [
        {
          "indexed": false,
          "internalType": "uint256",
          "name": "serial",
          "type": "uint256"
        }
      ],
      "name": "LogSold",
      "type": "event"
    },
    {
      "anonymous": false,
      "inputs": [
        {
          "indexed": false,
          "internalType": "uint256",
          "name": "serial",
          "type": "uint256"
        }
      ],
      "name": "LogTransferringOwnership",
      "type": "event"
    },
    {
      "inputs": [],
      "name": "assetCount",
      "outputs": [
        {
          "internalType": "uint256",
          "name": "",
          "type": "uint256"
        }
      ],
      "stateMutability": "view",
      "type": "function"
    },
    {
      "inputs": [],
      "name": "owner",
      "outputs": [
        {
          "internalType": "address",
          "name": "",
          "type": "address"
        }
      ],
      "stateMutability": "view",
      "type": "function"
    },
    {
      "inputs": [
        {
          "internalType": "string",
          "name": "_name",
          "type": "string"
        },
        {
          "internalType": "uint256",
          "name": "_serial",
          "type": "uint256"
        },
        {
          "internalType": "uint256",
          "name": "_value",
          "type": "uint256"
        }
      ],
      "name": "addAsset",
      "outputs": [
        {
          "internalType": "bool",
          "name": "",
          "type": "bool"
        }
      ],
      "stateMutability": "nonpayable",
      "type": "function"
    },
    {
      "inputs": [
        {
          "internalType": "uint256",
          "name": "_serial",
          "type": "uint256"
        }
      ],
      "name": "reportLostOrStolen",
      "outputs": [],
      "stateMutability": "nonpayable",
      "type": "function"
    },
    {
      "inputs": [
        {
          "internalType": "uint256",
          "name": "_serial",
          "type": "uint256"
        }
      ],
      "name": "reportFoundAndInPossession",
      "outputs": [],
      "stateMutability": "nonpayable",
      "type": "function"
    },
    {
      "inputs": [
        {
          "internalType": "uint256",
          "name": "_serial",
          "type": "uint256"
        }
      ],
      "name": "destroyAsset",
      "outputs": [],
      "stateMutability": "nonpayable",
      "type": "function"
    },
    {
      "inputs": [
        {
          "internalType": "uint256",
          "name": "_serial",
          "type": "uint256"
        },
        {
          "internalType": "uint256",
          "name": "_value",
          "type": "uint256"
        }
      ],
      "name": "changeValueOfAsset",
      "outputs": [],
      "stateMutability": "nonpayable",
      "type": "function"
    },
    {
      "inputs": [
        {
          "internalType": "uint256",
          "name": "_serial",
          "type": "uint256"
        }
      ],
      "name": "buyAsset",
      "outputs": [],
      "stateMutability": "payable",
      "type": "function"
    },
    {
      "inputs": [
        {
          "internalType": "uint256",
          "name": "_serial",
          "type": "uint256"
        }
      ],
      "name": "transferOwnership",
      "outputs": [],
      "stateMutability": "nonpayable",
      "type": "function"
    },
    {
      "inputs": [
        {
          "internalType": "uint256",
          "name": "_serial",
          "type": "uint256"
        }
      ],
      "name": "receiveAsset",
      "outputs": [],
      "stateMutability": "nonpayable",
      "type": "function"
    },
    {
      "inputs": [
        {
          "internalType": "uint256",
          "name": "_serial",
          "type": "uint256"
        }
      ],
      "name": "fetchAsset",
      "outputs": [
        {
          "internalType": "string",
          "name": "name",
          "type": "string"
        },
        {
          "internalType": "uint256",
          "name": "serial",
          "type": "uint256"
        },
        {
          "internalType": "uint256",
          "name": "value",
          "type": "uint256"
        },
        {
          "internalType": "address",
          "name": "buyer",
          "type": "address"
        },
        {
          "internalType": "address",
          "name": "_owner",
          "type": "address"
        },
        {
          "internalType": "enum AssetOwnership.State",
          "name": "state",
          "type": "uint8"
        }
      ],
      "stateMutability": "view",
      "type": "function"
    }
  ],
  "bytecode": "0x608060405234801561001057600080fd5b50336000806101000a81548173ffffffffffffffffffffffffffffffffffffffff021916908373ffffffffffffffffffffffffffffffffffffffff160217905550600060018190555061174a806100686000396000f3fe6080604052600436106100b9576000357c0100000000000000000000000000000000000000000000000000000000900480638da5cb5b116100815780638da5cb5b146103625780638da6074a146103a3578063999d0698146103e8578063ccc8ad1214610423578063d23e84891461045e578063eafe7a7414610499576100b9565b80630d3b39a3146100be578063110d35b8146101b057806320211587146101de578063474c1520146102195780637956073b14610254575b600080fd5b3480156100ca57600080fd5b50610198600480360360608110156100e157600080fd5b81019080803590602001906401000000008111156100fe57600080fd5b82018360208201111561011057600080fd5b8035906020019184600183028401116401000000008311171561013257600080fd5b91908080601f016020809104026020016040519081016040528093929190818152602001838380828437600081840152601f19601f82011690508083019250505050505050919291929080359060200190929190803590602001909291905050506104c4565b60405180821515815260200191505060405180910390f35b6101dc600480360360208110156101c657600080fd5b810190808035906020019092919050505061067e565b005b3480156101ea57600080fd5b506102176004803603602081101561020157600080fd5b8101908080359060200190929190505050610934565b005b34801561022557600080fd5b506102526004803603602081101561023c57600080fd5b8101908080359060200190929190505050610af6565b005b34801561026057600080fd5b5061028d6004803603602081101561027757600080fd5b8101908080359060200190929190505050610cb8565b60405180806020018781526020018681526020018573ffffffffffffffffffffffffffffffffffffffff1681526020018473ffffffffffffffffffffffffffffffffffffffff1681526020018360048111156102e557fe5b8152602001828103825288818151815260200191508051906020019080838360005b83811015610322578082015181840152602081019050610307565b50505050905090810190601f16801561034f5780820380516001836020036101000a031916815260200191505b5097505050505050505060405180910390f35b34801561036e57600080fd5b50610377610e46565b604051808273ffffffffffffffffffffffffffffffffffffffff16815260200191505060405180910390f35b3480156103af57600080fd5b506103e6600480360360408110156103c657600080fd5b810190808035906020019092919080359060200190929190505050610e6a565b005b3480156103f457600080fd5b506104216004803603602081101561040b57600080fd5b8101908080359060200190929190505050611018565b005b34801561042f57600080fd5b5061045c6004803603602081101561044657600080fd5b81019080803590602001909291905050506111da565b005b34801561046a57600080fd5b506104976004803603602081101561048157600080fd5b81019080803590602001909291905050506113f1565b005b3480156104a557600080fd5b506104ae6115cf565b6040518082815260200191505060405180910390f35b60006040518060c00160405280858152602001848152602001838152602001600073ffffffffffffffffffffffffffffffffffffffff1681526020013373ffffffffffffffffffffffffffffffffffffffff1681526020016000600481111561052957fe5b81525060026000858152602001908152602001600020600082015181600001908051906020019061055b9291906115d5565b50602082015181600101556040820151816002015560608201518160030160006101000a81548173ffffffffffffffffffffffffffffffffffffffff021916908373ffffffffffffffffffffffffffffffffffffffff16021790555060808201518160040160006101000a81548173ffffffffffffffffffffffffffffffffffffffff021916908373ffffffffffffffffffffffffffffffffffffffff16021790555060a08201518160040160146101000a81548160ff0219169083600481111561062257fe5b0217905550905050600180600082825401925050819055507f093aa5641a6cd9311446f9c310c8be7ddd06c576fdbe8ec65122183c61d258266001546040518082815260200191505060405180910390a1600190509392505050565b806000600481111561068c57fe5b6002600083815260200190815260200160002060040160149054906101000a900460ff1660048111156106bb57fe5b14610711576040517f08c379a000000000000000000000000000000000000000000000000000000000815260040180806020018281038252602d8152602001806116b9602d913960400191505060405180910390fd5b60026000838152602001908152602001600020600201548034101561073557600080fd5b82600060026000838152602001908152602001600020600201549050600081340390506002600084815260200190815260200160002060030160009054906101000a900473ffffffffffffffffffffffffffffffffffffffff1673ffffffffffffffffffffffffffffffffffffffff166108fc829081150290604051600060405180830381858888f193505050501580156107d4573d6000803e3d6000fd5b506002600087815260200190815260200160002060040160009054906101000a900473ffffffffffffffffffffffffffffffffffffffff1673ffffffffffffffffffffffffffffffffffffffff166108fc60026000898152602001908152602001600020600201549081150290604051600060405180830381858888f19350505050158015610867573d6000803e3d6000fd5b50336002600088815260200190815260200160002060030160006101000a81548173ffffffffffffffffffffffffffffffffffffffff021916908373ffffffffffffffffffffffffffffffffffffffff16021790555060016002600088815260200190815260200160002060040160146101000a81548160ff021916908360048111156108f057fe5b02179055507fe64ca8c671e48636f85f3008c1dd538e36bfa74fb6f2790b56b72fcc33b879ef866040518082815260200191505060405180910390a1505050505050565b6002600082815260200190815260200160002060040160009054906101000a900473ffffffffffffffffffffffffffffffffffffffff168073ffffffffffffffffffffffffffffffffffffffff163373ffffffffffffffffffffffffffffffffffffffff16146109ef576040517f08c379a00000000000000000000000000000000000000000000000000000000081526004018080602001828103825260238152602001806116736023913960400191505060405180910390fd5b81600360048111156109fd57fe5b6002600083815260200190815260200160002060040160149054906101000a900460ff166004811115610a2c57fe5b14610a82576040517f08c379a000000000000000000000000000000000000000000000000000000000815260040180806020018281038252602f8152602001806116e6602f913960400191505060405180910390fd5b60006002600085815260200190815260200160002060040160146101000a81548160ff02191690836004811115610ab557fe5b02179055507f093aa5641a6cd9311446f9c310c8be7ddd06c576fdbe8ec65122183c61d25826836040518082815260200191505060405180910390a1505050565b6002600082815260200190815260200160002060040160009054906101000a900473ffffffffffffffffffffffffffffffffffffffff168073ffffffffffffffffffffffffffffffffffffffff163373ffffffffffffffffffffffffffffffffffffffff1614610bb1576040517f08c379a00000000000000000000000000000000000000000000000000000000081526004018080602001828103825260238152602001806116736023913960400191505060405180910390fd5b8160006004811115610bbf57fe5b6002600083815260200190815260200160002060040160149054906101000a900460ff166004811115610bee57fe5b14610c44576040517f08c379a000000000000000000000000000000000000000000000000000000000815260040180806020018281038252602d8152602001806116b9602d913960400191505060405180910390fd5b60046002600085815260200190815260200160002060040160146101000a81548160ff02191690836004811115610c7757fe5b02179055507f5b26169f8a09a82388a380e50ae25febdebf7a25930bed9d2d4c40997aa2bff5836040518082815260200191505060405180910390a1505050565b60606000806000806000600260008881526020019081526020016000206000018054600181600116156101000203166002900480601f016020809104026020016040519081016040528092919081815260200182805460018160011615610100020316600290048015610d6c5780601f10610d4157610100808354040283529160200191610d6c565b820191906000526020600020905b815481529060010190602001808311610d4f57829003601f168201915b5050505050955060026000888152602001908152602001600020600101549450600260008881526020019081526020016000206002015493506002600088815260200190815260200160002060030160009054906101000a900473ffffffffffffffffffffffffffffffffffffffff1692506002600088815260200190815260200160002060040160009054906101000a900473ffffffffffffffffffffffffffffffffffffffff1691506002600088815260200190815260200160002060040160149054906101000a900460ff16905091939550919395565b60008054906101000a900473ffffffffffffffffffffffffffffffffffffffff1681565b6002600083815260200190815260200160002060040160009054906101000a900473ffffffffffffffffffffffffffffffffffffffff168073ffffffffffffffffffffffffffffffffffffffff163373ffffffffffffffffffffffffffffffffffffffff1614610f25576040517f08c379a00000000000000000000000000000000000000000000000000000000081526004018080602001828103825260238152602001806116736023913960400191505060405180910390fd5b8260006004811115610f3357fe5b6002600083815260200190815260200160002060040160149054906101000a900460ff166004811115610f6257fe5b14610fb8576040517f08c379a000000000000000000000000000000000000000000000000000000000815260040180806020018281038252602d8152602001806116b9602d913960400191505060405180910390fd5b8260026000868152602001908152602001600020600201819055507f4976485b2f48f09df07ae290110ea4f5337927c6e906f45113aa7103dbb7b8168484604051808381526020018281526020019250505060405180910390a150505050565b6002600082815260200190815260200160002060040160009054906101000a900473ffffffffffffffffffffffffffffffffffffffff168073ffffffffffffffffffffffffffffffffffffffff163373ffffffffffffffffffffffffffffffffffffffff16146110d3576040517f08c379a00000000000000000000000000000000000000000000000000000000081526004018080602001828103825260238152602001806116736023913960400191505060405180910390fd5b81600060048111156110e157fe5b6002600083815260200190815260200160002060040160149054906101000a900460ff16600481111561111057fe5b14611166576040517f08c379a000000000000000000000000000000000000000000000000000000000815260040180806020018281038252602d8152602001806116b9602d913960400191505060405180910390fd5b60036002600085815260200190815260200160002060040160146101000a81548160ff0219169083600481111561119957fe5b02179055507f17f25fb4ca769af8193da43a90b66526915e8d63e8ea591300c9257e30826073836040518082815260200191505060405180910390a1505050565b6002600082815260200190815260200160002060030160009054906101000a900473ffffffffffffffffffffffffffffffffffffffff168073ffffffffffffffffffffffffffffffffffffffff163373ffffffffffffffffffffffffffffffffffffffff1614611295576040517f08c379a00000000000000000000000000000000000000000000000000000000081526004018080602001828103825260238152602001806116736023913960400191505060405180910390fd5b81600260048111156112a357fe5b6002600083815260200190815260200160002060040160149054906101000a900460ff1660048111156112d257fe5b14611328576040517f08c379a00000000000000000000000000000000000000000000000000000000081526004018080602001828103825260238152602001806116966023913960400191505060405180910390fd5b336002600085815260200190815260200160002060040160006101000a81548173ffffffffffffffffffffffffffffffffffffffff021916908373ffffffffffffffffffffffffffffffffffffffff16021790555060006002600085815260200190815260200160002060040160146101000a81548160ff021916908360048111156113b057fe5b02179055507f093aa5641a6cd9311446f9c310c8be7ddd06c576fdbe8ec65122183c61d25826836040518082815260200191505060405180910390a1505050565b6002600082815260200190815260200160002060040160009054906101000a900473ffffffffffffffffffffffffffffffffffffffff168073ffffffffffffffffffffffffffffffffffffffff163373ffffffffffffffffffffffffffffffffffffffff16146114ac576040517f08c379a00000000000000000000000000000000000000000000000000000000081526004018080602001828103825260238152602001806116736023913960400191505060405180910390fd5b81600160048111156114ba57fe5b6002600083815260200190815260200160002060040160149054906101000a900460ff1660048111156114e957fe5b1461155c576040517f08c379a000000000000000000000000000000000000000000000000000000000815260040180806020018281038252601c8152602001807f5468697320617373657420686173206e6f74206265656e20736f6c640000000081525060200191505060405180910390fd5b600280600085815260200190815260200160002060040160146101000a81548160ff0219169083600481111561158e57fe5b02179055507f2a9084725f234daba37e8547a68741c2b44eb71f59b61f7aaaa825fee7ea5c0a836040518082815260200191505060405180910390a1505050565b60015481565b828054600181600116156101000203166002900490600052602060002090601f016020900481019282601f1061161657805160ff1916838001178555611644565b82800160010185558215611644579182015b82811115611643578251825591602001919060010190611628565b5b5090506116519190611655565b5090565b5b8082111561166e576000816000905550600101611656565b509056fe596f7520617265206e6f7420746865206f776e6572206f6620746869732061737365744f776e65727368697020686173206e6f74206265656e207472616e736665727265642e546865206173736574206973206e6f742063757272656e746c7920696e20796f757220706f7373657373696f6e5468697320617373657420686173206e6f74206265656e207265706f72746564206c6f7374206f722073746f6c656ea2646970667358221220257d7b46afb223bdc7fe2fd24ae73d715a06aed1886e40b4e3a2d7db4e02e4a264736f6c634300060c0033",
  "immutableReferences": {},
  "source": "// SPDX-License-Identifier: MIT\npragma solidity >=0.6.0 <0.9.0;\n\ncontract AssetOwnership {\n\n    // owner\n    address public owner;\n\n    // number of assets\n    uint public assetCount;\n\n    // assets\n    mapping (uint => Asset) assets;\n\n    // asset state\n    enum State{InPossession, Sold, TransferringOwnership, LostOrStolen, Destroyed}\n\n    // asset struct\n    struct Asset {\n        string name;\n        uint serial;\n        uint value;\n        address payable buyer;\n        address payable owner;\n        State state;\n    }\n\n\n\n    /*\n     * Constructor\n     */\n\n    constructor () public {\n        owner = msg.sender;\n        assetCount = 0;\n    }\n\n\n\n    /*\n     * Events\n     */\n\n    event LogInPossession(uint serial);\n\n    event LogSold(uint serial);\n\n    event LogTransferringOwnership(uint serial);\n    \n    event LogLostOrStolen(uint serial);\n\n    event LogDestroyed(uint serial);\n\n    event LogChangedValue(uint serial, uint value);\n\n\n    /*\n     * Modifiers\n     */\n\n    \n    \n    \n    modifier verifyCaller (address _address) {\n        require(msg.sender == _address, \"You are not the owner of this asset\");\n        _;\n    }\n\n    modifier inPossession (uint _serial) {\n        require(assets[_serial].state == State.InPossession, \"The asset is not currently in your possession\"); \n        _;\n    }\n\n    modifier isLostorStolen (uint _serial) {\n        require(assets[_serial].state == State.LostOrStolen, \"This asset has not been reported lost or stolen\");\n        _;\n    }\n\n    modifier isNotDestroyed (uint _serial) {\n        require(assets[_serial].state != State.Destroyed, \"This asset has been destroyed. No further actions are available\");\n        _;\n    }\n\n    modifier sold(uint _serial) {\n        require(assets[_serial].state == State.Sold, \"This asset has not been sold\");\n        _;\n    }\n\n    modifier transferringOwnership (uint _serial) {\n        require(assets[_serial].state == State.TransferringOwnership, \"Ownership has not been transferred.\");\n        _;\n    }\n\n    \n    modifier checkValue(uint _serial) {\n        uint _value = assets[_serial].value;\n        uint amountToRefund = msg.value - _value;\n        \n        assets[_serial].buyer.transfer(amountToRefund);\n        _;\n    }\n\n    modifier paidEnough (uint _value) {\n        require(msg.value >= _value);\n        _;\n    }\n\n\n    /*\n     * Functionality\n     */\n\n\n\n    // creates new Asset struct and adds it to asset mapping\n    function addAsset(string memory _name, uint _serial, uint _value) public returns (bool) {\n        \n        assets[_serial] = Asset({\n            name: _name,\n            serial: _serial,\n            value: _value,\n            buyer: payable (address(0)),\n            owner: payable (msg.sender),\n            state: State.InPossession\n        });\n\n        assetCount += 1;\n\n        emit LogInPossession(assetCount);\n\n        return true;\n    }\n\n    // LOST OR STOLEN\n    function reportLostOrStolen(uint _serial) verifyCaller(assets[_serial].owner) inPossession(_serial) public {\n        assets[_serial].state = State.LostOrStolen;\n\n        emit LogLostOrStolen(_serial);\n    }\n\n    // IN POSSESSION\n    function reportFoundAndInPossession(uint _serial) verifyCaller(assets[_serial].owner) isLostorStolen(_serial) public {\n        assets[_serial].state = State.InPossession;\n\n        emit LogInPossession(_serial);\n    }\n\n\n    // DESTROY\n    function destroyAsset(uint _serial) verifyCaller(assets[_serial].owner) inPossession(_serial) public {\n        assets[_serial].state = State.Destroyed;\n\n        emit LogDestroyed(_serial);\n    }\n\n    // VALUE: changeValueOfAsset\n    function changeValueOfAsset(uint _serial, uint _value) verifyCaller(assets[_serial].owner) inPossession(_serial) public {\n        assets[_serial].value = _value;\n\n        emit LogChangedValue(_serial, _value);\n    }\n\n    // BUY\n    function buyAsset(uint _serial) inPossession(_serial) paidEnough(assets[_serial].value) checkValue(_serial) payable public {\n        assets[_serial].owner.transfer(assets[_serial].value);\n        assets[_serial].buyer = payable(msg.sender);\n\n        assets[_serial].state = State.Sold;\n\n        emit LogSold(_serial);\n    }\n\n    // TRANSFER\n    function transferOwnership(uint _serial) verifyCaller(assets[_serial].owner) sold(_serial) public {\n        assets[_serial].state = State.TransferringOwnership;\n\n        emit LogTransferringOwnership(_serial);\n    }\n\n    // RECEIVED\n    function receiveAsset(uint _serial) verifyCaller(assets[_serial].buyer) transferringOwnership(_serial) public {\n        assets[_serial].owner = payable(msg.sender);\n        assets[_serial].state = State.InPossession;\n\n        emit LogInPossession(_serial);\n    }\n\n    // FETCH\n    function fetchAsset(uint _serial) public view \n    returns (string memory name, uint serial, uint value, address buyer, address _owner, State state) {\n        \n        name = assets[_serial].name;\n        serial = assets[_serial].serial;\n        value = assets[_serial].value;\n        buyer = assets[_serial].buyer;\n        _owner = assets[_serial].owner;\n        state = assets[_serial].state;\n\n        return (name, serial, value, buyer, _owner, state);\n    }\n}\n",
  "sourcePath": "/Users/leo/sandbox/blockchain/blockchain-developer-bootcamp-final-project/contracts/AssetOwnership.sol",
  "compiler": {
    "name": "solc",
    "version": "0.6.12+commit.27d51765.Emscripten.clang"
  },
  "schemaVersion": "3.4.3",
  "updatedAt": "2021-11-28T20:20:46.822Z",
  "devdoc": {
    "kind": "dev",
    "methods": {},
    "version": 1
  },
  "userdoc": {
    "kind": "user",
    "methods": {},
    "version": 1
  }
}